{
  "address": "0xacF9f57777142e7d647e2ce9d1A3E8aF3BA92531",
  "abi": [
    {
      "inputs": [],
      "stateMutability": "nonpayable",
      "type": "constructor"
    },
    {
      "inputs": [],
      "name": "AccessControlBadConfirmation",
      "type": "error"
    },
    {
      "inputs": [
        {
          "internalType": "address",
          "name": "account",
          "type": "address"
        },
        {
          "internalType": "bytes32",
          "name": "neededRole",
          "type": "bytes32"
        }
      ],
      "name": "AccessControlUnauthorizedAccount",
      "type": "error"
    },
    {
      "inputs": [
        {
          "internalType": "address",
          "name": "sender",
          "type": "address"
        },
        {
          "internalType": "uint256",
          "name": "tokenId",
          "type": "uint256"
        },
        {
          "internalType": "address",
          "name": "owner",
          "type": "address"
        }
      ],
      "name": "ERC721IncorrectOwner",
      "type": "error"
    },
    {
      "inputs": [
        {
          "internalType": "address",
          "name": "operator",
          "type": "address"
        },
        {
          "internalType": "uint256",
          "name": "tokenId",
          "type": "uint256"
        }
      ],
      "name": "ERC721InsufficientApproval",
      "type": "error"
    },
    {
      "inputs": [
        {
          "internalType": "address",
          "name": "approver",
          "type": "address"
        }
      ],
      "name": "ERC721InvalidApprover",
      "type": "error"
    },
    {
      "inputs": [
        {
          "internalType": "address",
          "name": "operator",
          "type": "address"
        }
      ],
      "name": "ERC721InvalidOperator",
      "type": "error"
    },
    {
      "inputs": [
        {
          "internalType": "address",
          "name": "owner",
          "type": "address"
        }
      ],
      "name": "ERC721InvalidOwner",
      "type": "error"
    },
    {
      "inputs": [
        {
          "internalType": "address",
          "name": "receiver",
          "type": "address"
        }
      ],
      "name": "ERC721InvalidReceiver",
      "type": "error"
    },
    {
      "inputs": [
        {
          "internalType": "address",
          "name": "sender",
          "type": "address"
        }
      ],
      "name": "ERC721InvalidSender",
      "type": "error"
    },
    {
      "inputs": [
        {
          "internalType": "uint256",
          "name": "tokenId",
          "type": "uint256"
        }
      ],
      "name": "ERC721NonexistentToken",
      "type": "error"
    },
    {
      "anonymous": false,
      "inputs": [
        {
          "indexed": true,
          "internalType": "address",
          "name": "owner",
          "type": "address"
        },
        {
          "indexed": true,
          "internalType": "address",
          "name": "approved",
          "type": "address"
        },
        {
          "indexed": true,
          "internalType": "uint256",
          "name": "tokenId",
          "type": "uint256"
        }
      ],
      "name": "Approval",
      "type": "event"
    },
    {
      "anonymous": false,
      "inputs": [
        {
          "indexed": true,
          "internalType": "address",
          "name": "owner",
          "type": "address"
        },
        {
          "indexed": true,
          "internalType": "address",
          "name": "operator",
          "type": "address"
        },
        {
          "indexed": false,
          "internalType": "bool",
          "name": "approved",
          "type": "bool"
        }
      ],
      "name": "ApprovalForAll",
      "type": "event"
    },
    {
      "anonymous": false,
      "inputs": [
        {
          "indexed": true,
          "internalType": "address",
          "name": "recipient",
          "type": "address"
        },
        {
          "indexed": true,
          "internalType": "uint256",
          "name": "tokenId",
          "type": "uint256"
        },
        {
          "indexed": false,
          "internalType": "enum CommunityBadges.BadgeType",
          "name": "badgeType",
          "type": "uint8"
        },
        {
          "indexed": false,
          "internalType": "uint256",
          "name": "challengeId",
          "type": "uint256"
        }
      ],
      "name": "BadgeMinted",
      "type": "event"
    },
    {
      "anonymous": false,
      "inputs": [
        {
          "indexed": false,
          "internalType": "uint256",
          "name": "_fromTokenId",
          "type": "uint256"
        },
        {
          "indexed": false,
          "internalType": "uint256",
          "name": "_toTokenId",
          "type": "uint256"
        }
      ],
      "name": "BatchMetadataUpdate",
      "type": "event"
    },
    {
      "anonymous": false,
      "inputs": [
        {
          "indexed": false,
          "internalType": "uint256",
          "name": "_tokenId",
          "type": "uint256"
        }
      ],
      "name": "MetadataUpdate",
      "type": "event"
    },
    {
      "anonymous": false,
      "inputs": [
        {
          "indexed": true,
          "internalType": "bytes32",
          "name": "role",
          "type": "bytes32"
        },
        {
          "indexed": true,
          "internalType": "bytes32",
          "name": "previousAdminRole",
          "type": "bytes32"
        },
        {
          "indexed": true,
          "internalType": "bytes32",
          "name": "newAdminRole",
          "type": "bytes32"
        }
      ],
      "name": "RoleAdminChanged",
      "type": "event"
    },
    {
      "anonymous": false,
      "inputs": [
        {
          "indexed": true,
          "internalType": "bytes32",
          "name": "role",
          "type": "bytes32"
        },
        {
          "indexed": true,
          "internalType": "address",
          "name": "account",
          "type": "address"
        },
        {
          "indexed": true,
          "internalType": "address",
          "name": "sender",
          "type": "address"
        }
      ],
      "name": "RoleGranted",
      "type": "event"
    },
    {
      "anonymous": false,
      "inputs": [
        {
          "indexed": true,
          "internalType": "bytes32",
          "name": "role",
          "type": "bytes32"
        },
        {
          "indexed": true,
          "internalType": "address",
          "name": "account",
          "type": "address"
        },
        {
          "indexed": true,
          "internalType": "address",
          "name": "sender",
          "type": "address"
        }
      ],
      "name": "RoleRevoked",
      "type": "event"
    },
    {
      "anonymous": false,
      "inputs": [
        {
          "indexed": true,
          "internalType": "address",
          "name": "from",
          "type": "address"
        },
        {
          "indexed": true,
          "internalType": "address",
          "name": "to",
          "type": "address"
        },
        {
          "indexed": true,
          "internalType": "uint256",
          "name": "tokenId",
          "type": "uint256"
        }
      ],
      "name": "Transfer",
      "type": "event"
    },
    {
      "inputs": [],
      "name": "ADMIN_ROLE",
      "outputs": [
        {
          "internalType": "bytes32",
          "name": "",
          "type": "bytes32"
        }
      ],
      "stateMutability": "view",
      "type": "function"
    },
    {
      "inputs": [],
      "name": "DEFAULT_ADMIN_ROLE",
      "outputs": [
        {
          "internalType": "bytes32",
          "name": "",
          "type": "bytes32"
        }
      ],
      "stateMutability": "view",
      "type": "function"
    },
    {
      "inputs": [],
      "name": "MINTER_ROLE",
      "outputs": [
        {
          "internalType": "bytes32",
          "name": "",
          "type": "bytes32"
        }
      ],
      "stateMutability": "view",
      "type": "function"
    },
    {
      "inputs": [
        {
          "internalType": "address",
          "name": "minter",
          "type": "address"
        }
      ],
      "name": "addMinter",
      "outputs": [],
      "stateMutability": "nonpayable",
      "type": "function"
    },
    {
      "inputs": [
        {
          "internalType": "address",
          "name": "to",
          "type": "address"
        },
        {
          "internalType": "uint256",
          "name": "tokenId",
          "type": "uint256"
        }
      ],
      "name": "approve",
      "outputs": [],
      "stateMutability": "nonpayable",
      "type": "function"
    },
    {
      "inputs": [
        {
          "internalType": "uint256",
          "name": "",
          "type": "uint256"
        }
      ],
      "name": "badges",
      "outputs": [
        {
          "internalType": "string",
          "name": "name",
          "type": "string"
        },
        {
          "internalType": "string",
          "name": "description",
          "type": "string"
        },
        {
          "internalType": "enum CommunityBadges.BadgeType",
          "name": "badgeType",
          "type": "uint8"
        },
        {
          "internalType": "uint256",
          "name": "challengeId",
          "type": "uint256"
        },
        {
          "internalType": "uint256",
          "name": "timestamp",
          "type": "uint256"
        }
      ],
      "stateMutability": "view",
      "type": "function"
    },
    {
      "inputs": [
        {
          "internalType": "address",
          "name": "owner",
          "type": "address"
        }
      ],
      "name": "balanceOf",
      "outputs": [
        {
          "internalType": "uint256",
          "name": "",
          "type": "uint256"
        }
      ],
      "stateMutability": "view",
      "type": "function"
    },
    {
      "inputs": [
        {
          "internalType": "uint256",
          "name": "tokenId",
          "type": "uint256"
        }
      ],
      "name": "getApproved",
      "outputs": [
        {
          "internalType": "address",
          "name": "",
          "type": "address"
        }
      ],
      "stateMutability": "view",
      "type": "function"
    },
    {
      "inputs": [
        {
          "internalType": "uint256",
          "name": "tokenId",
          "type": "uint256"
        }
      ],
      "name": "getBadge",
      "outputs": [
        {
          "components": [
            {
              "internalType": "string",
              "name": "name",
              "type": "string"
            },
            {
              "internalType": "string",
              "name": "description",
              "type": "string"
            },
            {
              "internalType": "enum CommunityBadges.BadgeType",
              "name": "badgeType",
              "type": "uint8"
            },
            {
              "internalType": "uint256",
              "name": "challengeId",
              "type": "uint256"
            },
            {
              "internalType": "uint256",
              "name": "timestamp",
              "type": "uint256"
            }
          ],
          "internalType": "struct CommunityBadges.Badge",
          "name": "",
          "type": "tuple"
        }
      ],
      "stateMutability": "view",
      "type": "function"
    },
    {
      "inputs": [
        {
          "internalType": "bytes32",
          "name": "role",
          "type": "bytes32"
        }
      ],
      "name": "getRoleAdmin",
      "outputs": [
        {
          "internalType": "bytes32",
          "name": "",
          "type": "bytes32"
        }
      ],
      "stateMutability": "view",
      "type": "function"
    },
    {
      "inputs": [],
      "name": "getTotalBadges",
      "outputs": [
        {
          "internalType": "uint256",
          "name": "",
          "type": "uint256"
        }
      ],
      "stateMutability": "view",
      "type": "function"
    },
    {
      "inputs": [
        {
          "internalType": "address",
          "name": "user",
          "type": "address"
        },
        {
          "internalType": "enum CommunityBadges.BadgeType",
          "name": "badgeType",
          "type": "uint8"
        }
      ],
      "name": "getUserBadgeCount",
      "outputs": [
        {
          "internalType": "uint256",
          "name": "",
          "type": "uint256"
        }
      ],
      "stateMutability": "view",
      "type": "function"
    },
    {
      "inputs": [
        {
          "internalType": "address",
          "name": "user",
          "type": "address"
        }
      ],
      "name": "getUserBadges",
      "outputs": [
        {
          "internalType": "uint256[]",
          "name": "",
          "type": "uint256[]"
        }
      ],
      "stateMutability": "view",
      "type": "function"
    },
    {
      "inputs": [
        {
          "internalType": "address",
          "name": "user",
          "type": "address"
        },
        {
          "internalType": "enum CommunityBadges.BadgeType",
          "name": "badgeType",
          "type": "uint8"
        }
      ],
      "name": "getUserBadgesByType",
      "outputs": [
        {
          "internalType": "uint256[]",
          "name": "",
          "type": "uint256[]"
        }
      ],
      "stateMutability": "view",
      "type": "function"
    },
    {
      "inputs": [
        {
          "internalType": "bytes32",
          "name": "role",
          "type": "bytes32"
        },
        {
          "internalType": "address",
          "name": "account",
          "type": "address"
        }
      ],
      "name": "grantRole",
      "outputs": [],
      "stateMutability": "nonpayable",
      "type": "function"
    },
    {
      "inputs": [
        {
          "internalType": "bytes32",
          "name": "role",
          "type": "bytes32"
        },
        {
          "internalType": "address",
          "name": "account",
          "type": "address"
        }
      ],
      "name": "hasRole",
      "outputs": [
        {
          "internalType": "bool",
          "name": "",
          "type": "bool"
        }
      ],
      "stateMutability": "view",
      "type": "function"
    },
    {
      "inputs": [
        {
          "internalType": "address",
          "name": "owner",
          "type": "address"
        },
        {
          "internalType": "address",
          "name": "operator",
          "type": "address"
        }
      ],
      "name": "isApprovedForAll",
      "outputs": [
        {
          "internalType": "bool",
          "name": "",
          "type": "bool"
        }
      ],
      "stateMutability": "view",
      "type": "function"
    },
    {
      "inputs": [
        {
          "internalType": "address",
          "name": "to",
          "type": "address"
        },
        {
          "internalType": "uint256",
          "name": "agreementId",
          "type": "uint256"
        },
        {
          "internalType": "string",
          "name": "badgeTokenURI",
          "type": "string"
        }
      ],
      "name": "mintAgreementKeeperBadge",
      "outputs": [
        {
          "internalType": "uint256",
          "name": "",
          "type": "uint256"
        }
      ],
      "stateMutability": "nonpayable",
      "type": "function"
    },
    {
      "inputs": [
        {
          "internalType": "address",
          "name": "to",
          "type": "address"
        },
        {
          "internalType": "string",
          "name": "name",
          "type": "string"
        },
        {
          "internalType": "string",
          "name": "description",
          "type": "string"
        },
        {
          "internalType": "string",
          "name": "badgeTokenURI",
          "type": "string"
        },
        {
          "internalType": "enum CommunityBadges.BadgeType",
          "name": "badgeType",
          "type": "uint8"
        },
        {
          "internalType": "uint256",
          "name": "challengeId",
          "type": "uint256"
        }
      ],
      "name": "mintBadge",
      "outputs": [
        {
          "internalType": "uint256",
          "name": "",
          "type": "uint256"
        }
      ],
      "stateMutability": "nonpayable",
      "type": "function"
    },
    {
      "inputs": [
        {
          "internalType": "address",
          "name": "to",
          "type": "address"
        },
        {
          "internalType": "uint256",
          "name": "challengeId",
          "type": "uint256"
        },
        {
          "internalType": "string",
          "name": "badgeTokenURI",
          "type": "string"
        }
      ],
      "name": "mintChallengeWinnerBadge",
      "outputs": [
        {
          "internalType": "uint256",
          "name": "",
          "type": "uint256"
        }
      ],
      "stateMutability": "nonpayable",
      "type": "function"
    },
    {
      "inputs": [
        {
          "internalType": "address",
          "name": "to",
          "type": "address"
        },
        {
          "internalType": "string",
          "name": "badgeTokenURI",
          "type": "string"
        }
      ],
      "name": "mintCommunityContributorBadge",
      "outputs": [
        {
          "internalType": "uint256",
          "name": "",
          "type": "uint256"
        }
      ],
      "stateMutability": "nonpayable",
      "type": "function"
    },
    {
      "inputs": [
        {
          "internalType": "address",
          "name": "to",
          "type": "address"
        },
        {
          "internalType": "uint256",
          "name": "challengeId",
          "type": "uint256"
        },
        {
          "internalType": "string",
          "name": "badgeTokenURI",
          "type": "string"
        }
      ],
      "name": "mintParticipationBadge",
      "outputs": [
        {
          "internalType": "uint256",
          "name": "",
          "type": "uint256"
        }
      ],
      "stateMutability": "nonpayable",
      "type": "function"
    },
    {
      "inputs": [
        {
          "internalType": "address",
          "name": "to",
          "type": "address"
        },
        {
          "internalType": "string",
          "name": "badgeTokenURI",
          "type": "string"
        }
      ],
      "name": "mintVerifierBadge",
      "outputs": [
        {
          "internalType": "uint256",
          "name": "",
          "type": "uint256"
        }
      ],
      "stateMutability": "nonpayable",
      "type": "function"
    },
    {
      "inputs": [],
      "name": "name",
      "outputs": [
        {
          "internalType": "string",
          "name": "",
          "type": "string"
        }
      ],
      "stateMutability": "view",
      "type": "function"
    },
    {
      "inputs": [
        {
          "internalType": "uint256",
          "name": "tokenId",
          "type": "uint256"
        }
      ],
      "name": "ownerOf",
      "outputs": [
        {
          "internalType": "address",
          "name": "",
          "type": "address"
        }
      ],
      "stateMutability": "view",
      "type": "function"
    },
    {
      "inputs": [
        {
          "internalType": "address",
          "name": "minter",
          "type": "address"
        }
      ],
      "name": "removeMinter",
      "outputs": [],
      "stateMutability": "nonpayable",
      "type": "function"
    },
    {
      "inputs": [
        {
          "internalType": "bytes32",
          "name": "role",
          "type": "bytes32"
        },
        {
          "internalType": "address",
          "name": "callerConfirmation",
          "type": "address"
        }
      ],
      "name": "renounceRole",
      "outputs": [],
      "stateMutability": "nonpayable",
      "type": "function"
    },
    {
      "inputs": [
        {
          "internalType": "bytes32",
          "name": "role",
          "type": "bytes32"
        },
        {
          "internalType": "address",
          "name": "account",
          "type": "address"
        }
      ],
      "name": "revokeRole",
      "outputs": [],
      "stateMutability": "nonpayable",
      "type": "function"
    },
    {
      "inputs": [
        {
          "internalType": "address",
          "name": "from",
          "type": "address"
        },
        {
          "internalType": "address",
          "name": "to",
          "type": "address"
        },
        {
          "internalType": "uint256",
          "name": "tokenId",
          "type": "uint256"
        }
      ],
      "name": "safeTransferFrom",
      "outputs": [],
      "stateMutability": "nonpayable",
      "type": "function"
    },
    {
      "inputs": [
        {
          "internalType": "address",
          "name": "from",
          "type": "address"
        },
        {
          "internalType": "address",
          "name": "to",
          "type": "address"
        },
        {
          "internalType": "uint256",
          "name": "tokenId",
          "type": "uint256"
        },
        {
          "internalType": "bytes",
          "name": "data",
          "type": "bytes"
        }
      ],
      "name": "safeTransferFrom",
      "outputs": [],
      "stateMutability": "nonpayable",
      "type": "function"
    },
    {
      "inputs": [
        {
          "internalType": "address",
          "name": "operator",
          "type": "address"
        },
        {
          "internalType": "bool",
          "name": "approved",
          "type": "bool"
        }
      ],
      "name": "setApprovalForAll",
      "outputs": [],
      "stateMutability": "nonpayable",
      "type": "function"
    },
    {
      "inputs": [
        {
          "internalType": "bytes4",
          "name": "interfaceId",
          "type": "bytes4"
        }
      ],
      "name": "supportsInterface",
      "outputs": [
        {
          "internalType": "bool",
          "name": "",
          "type": "bool"
        }
      ],
      "stateMutability": "view",
      "type": "function"
    },
    {
      "inputs": [],
      "name": "symbol",
      "outputs": [
        {
          "internalType": "string",
          "name": "",
          "type": "string"
        }
      ],
      "stateMutability": "view",
      "type": "function"
    },
    {
      "inputs": [
        {
          "internalType": "uint256",
          "name": "tokenId",
          "type": "uint256"
        }
      ],
      "name": "tokenURI",
      "outputs": [
        {
          "internalType": "string",
          "name": "",
          "type": "string"
        }
      ],
      "stateMutability": "view",
      "type": "function"
    },
    {
      "inputs": [
        {
          "internalType": "address",
          "name": "from",
          "type": "address"
        },
        {
          "internalType": "address",
          "name": "to",
          "type": "address"
        },
        {
          "internalType": "uint256",
          "name": "tokenId",
          "type": "uint256"
        }
      ],
      "name": "transferFrom",
      "outputs": [],
      "stateMutability": "nonpayable",
      "type": "function"
    },
    {
      "inputs": [
        {
          "internalType": "address",
          "name": "",
          "type": "address"
        },
        {
          "internalType": "enum CommunityBadges.BadgeType",
          "name": "",
          "type": "uint8"
        }
      ],
      "name": "userBadgeCount",
      "outputs": [
        {
          "internalType": "uint256",
          "name": "",
          "type": "uint256"
        }
      ],
      "stateMutability": "view",
      "type": "function"
    },
    {
      "inputs": [
        {
          "internalType": "address",
          "name": "",
          "type": "address"
        },
        {
          "internalType": "uint256",
          "name": "",
          "type": "uint256"
        }
      ],
      "name": "userBadges",
      "outputs": [
        {
          "internalType": "uint256",
          "name": "",
          "type": "uint256"
        }
      ],
      "stateMutability": "view",
      "type": "function"
    }
  ],
  "transactionHash": "0x15fe547841b77b7ccdaa7fe87d7bfa0214588b856221a9458ac5e0e3ab13603f",
  "args": [],
  "numDeployments": 1,
  "solcInputHash": "fa9b6b3c5b8f5adfe51df92ed6f57f7a",
  "bytecode": "0x6080346200033a576001600160401b03906040908082018381118282101762000324578252601281526020927150726f6f664f66476f6f642042616467657360701b848301528251838101818110838211176200032457845260048152632827a3a160e11b85820152825190828211620003245760008054926001958685811c9516801562000319575b8986101462000305578190601f95868111620002b2575b5089908683116001146200024e57849262000242575b5050600019600383901b1c191690861b1781555b81519384116200022e5784548581811c9116801562000223575b888210146200020f57838111620001c7575b5086928411600114620001615783949596509262000155575b5050600019600383901b1c191690821b1790555b6200012e336200033f565b506200013a33620003c0565b50620001463362000463565b5051613aaf9081620005028239f35b0151905038806200010f565b9190601f1984169685845280842093905b888210620001af575050838596971062000195575b505050811b01905562000123565b015160001960f88460031b161c1916905538808062000187565b80878596829496860151815501950193019062000172565b8582528782208480870160051c8201928a881062000205575b0160051c019086905b828110620001f9575050620000f6565b838155018690620001e9565b92508192620001e0565b634e487b7160e01b82526022600452602482fd5b90607f1690620000e4565b634e487b7160e01b81526041600452602490fd5b015190503880620000b6565b8480528a85208994509190601f198416865b8d8282106200029b575050841162000281575b505050811b018155620000ca565b015160001960f88460031b161c1916905538808062000273565b8385015186558c9790950194938401930162000260565b9091508380528984208680850160051c8201928c8610620002fb575b918a91869594930160051c01915b828110620002ec575050620000a0565b8681558594508a9101620002dc565b92508192620002ce565b634e487b7160e01b83526022600452602483fd5b94607f169462000089565b634e487b7160e01b600052604160045260246000fd5b600080fd5b6001600160a01b031660008181527f6d5257204ebe7d88fd91ae87941cb2dd9d8062b64ae5a2bd2d28ec40b9fbf6df602052604081205490919060ff16620003bc5781805260076020526040822081835260205260408220600160ff19825416179055339160008051602062003fb18339815191528180a4600190565b5090565b6001600160a01b031660008181527fa70365933f78520ef41d6645ba61e509916296603327302d41466c063e8e260860205260408120549091907fa49807205ce4d355092ef5a8a18f56e8913cf4a201fbe287825b095693c217759060ff166200045e5780835260076020526040832082845260205260408320600160ff1982541617905560008051602062003fb1833981519152339380a4600190565b505090565b6001600160a01b031660008181527fa4bfd7afe708e2e87e7f0e2ad9b4d545417e0f795f57b5c5ab5d799c565a04f460205260408120549091907f9f2df0fed2c77648de5860a4cc508cd0818c85b8b8a1ab4ceeef8d981c8956a69060ff166200045e5780835260076020526040832082845260205260408320600160ff1982541617905560008051602062003fb1833981519152339380a460019056fe608080604052600436101561001357600080fd5b60003560e01c90816301ffc9a714612d9b5750806306fdde0314612cf8578063081812fc14612cba578063095ea7b314612bd357806323b872dd14612bbc578063248a9ca314612b8d5780632f2ff15d14612b4e5780633092afd514612b2557806331e36ea8146125d057806336568abe1461258957806337c245fe1461250557806342842e0e146124d757806347ea8184146124b9578063578f1f0114610ea457806358daa19114611f625780635db5ebe614611e255780636352211e14611df557806370a0823114611d9c57806375b238fc14611d615780638cda02ae146118275780638d838622146116d957806391d148541461168c57806395d89b41146115ad578063983b2d561461158457806398e36d8b146114f5578063a217fddf146114d9578063a22cb46514611434578063b39fa6b814610edd578063b4af641414610ea4578063b88d4fde14610e39578063c87b56dd14610ddc578063d539139314610db3578063d547741f14610d72578063df91cc2314610d1a578063df9c45be146107d3578063e89e0483146102115763e985e9c5146101b657600080fd5b3461020c57604036600319011261020c576101cf612e7a565b6101d7612e90565b9060018060a01b03809116600052600560205260406000209116600052602052602060ff604060002054166040519015158152f35b600080fd5b3461020c5761021f36612fd8565b610227613270565b6040519061023482612ef6565b601082526f2a393ab9ba32b2102b32b934b334b2b960811b60208301526040519161025e83612f11565b602483527f4177617264656420666f72206265696e672061207472757374656420766572696020840152633334b2b960e11b604084015261029d613270565b6102a86008546139bd565b9283600855604051926102ba84612f2c565b600084526001600160a01b0393868516156107ba57846102da8789613693565b166107a1576102eb9086883361378a565b8460005260066020526040600020908051906001600160401b03821161051f57819061031784546130e8565b601f811161074e575b50602090601f83116001146106e2576000926106d7575b50508160011b916000199060031b1c19161790555b600080516020613a5a8339815191526020604051868152a16040519161037183612edb565b82526020820152600260408201526000606082015242608082015282600052600960205260406000209080518051906001600160401b03821161051f5781906103ba85546130e8565b601f8111610687575b50602090601f831160011461062157600092610616575b50508160011b916000199060031b1c19161782555b60208101518051906001600160401b03821161051f57819061041460018601546130e8565b601f81116105c3575b50602090601f83116001146105565760009261054b575b50508160011b916000199060031b1c19161760018301555b6040810151600283019160058210156105355760049260809260ff80198354169116179055606081015160038501550151910155808316600052600a602052604060002092835493600160401b85101561051f57604084936104e2856104c989600080516020613a1a83398151915296600160209c0181556131c8565b90919082549060031b91821b91600019901b1916179055565b808416600052600b875281600020600260005287528160002061050581546139bd565b9055815193600285526000888601521692a3604051908152f35b634e487b7160e01b600052604160045260246000fd5b634e487b7160e01b600052602160045260246000fd5b015190508780610434565b600186016000908152602081209350601f198516905b8181106105ab5750908460019594939210610592575b505050811b01600183015561044c565b015160001960f88460031b161c19169055878080610582565b9293602060018192878601518155019501930161056c565b909150600185016000526020600020601f840160051c81016020851061060f575b90849392915b601f830160051c8201811061060057505061041d565b600081558594506001016105ea565b50806105e4565b0151905087806103da565b6000868152602081209350601f198516905b81811061066f5750908460019594939210610656575b505050811b0182556103ef565b015160001960f88460031b161c19169055878080610649565b92936020600181928786015181550195019301610633565b909150846000526020600020601f840160051c8101602085106106d0575b90849392915b601f830160051c820181106106c15750506103c3565b600081558594506001016106ab565b50806106a5565b015190508880610337565b9250836000526020600020906000935b601f1984168510610733576001945083601f1981161061071a575b505050811b01905561034c565b015160001960f88460031b161c1916905588808061070d565b818101518355602094850194600190930192909101906106f2565b909150836000526020600020601f840160051c81019160208510610797575b90601f859493920160051c01905b8181106107885750610320565b6000815584935060010161077b565b909150819061076d565b6040516339e3563760e11b815260006004820152602490fd5b604051633250574960e11b815260006004820152602490fd5b3461020c576107e136613099565b916107ea613270565b604051916107f783612ef6565b601083526f20b3b932b2b6b2b73a1025b2b2b832b960811b60208401526040519261082184612f11565b602384527f4177617264656420666f722066756c66696c6c696e6720616e2061677265656d602085015262195b9d60ea1b604085015261085f613270565b61086a6008546139bd565b93846008556040519561087c87612f2c565b600087526001600160a01b0396858816156107ba578761089c8888613693565b166107a1576108ad9087873361378a565b8560005260066020526040600020908051906001600160401b03821161051f5781906108d984546130e8565b601f8111610cc7575b50602090601f8311600114610c5b57600092610c50575b50508160011b916000199060031b1c19161790555b600080516020613a5a8339815191526020604051878152a16040519161093383612edb565b825260208201526004604082015281606082015242608082015283600052600960205260406000209080518051906001600160401b03821161051f57819061097b85546130e8565b601f8111610c00575b50602090601f8311600114610b9a57600092610b8f575b50508160011b916000199060031b1c19161782555b60208101518051906001600160401b03821161051f5781906109d560018601546130e8565b601f8111610b3c575b50602090601f8311600114610acf57600092610ac4575b50508160011b916000199060031b1c19161760018301555b6040810151600283019160058210156105355760049260809260ff80198354169116179055606081015160038501550151910155838216600052600a60205260406000208054600160401b81101561051f576020958594610a89866104c985600080516020613a1a8339815191529760016040980181556131c8565b818116600052600b8852826000206004600052885282600020610aac81546139bd565b905582519460048652888601521692a3604051908152f35b0151905088806109f5565b600186016000908152602081209350601f198516905b818110610b245750908460019594939210610b0b575b505050811b016001830155610a0d565b015160001960f88460031b161c19169055888080610afb565b92936020600181928786015181550195019301610ae5565b909150600185016000526020600020601f840160051c810160208510610b88575b90849392915b601f830160051c82018110610b795750506109de565b60008155859450600101610b63565b5080610b5d565b01519050888061099b565b6000868152602081209350601f198516905b818110610be85750908460019594939210610bcf575b505050811b0182556109b0565b015160001960f88460031b161c19169055888080610bc2565b92936020600181928786015181550195019301610bac565b909150846000526020600020601f840160051c810160208510610c49575b90849392915b601f830160051c82018110610c3a575050610984565b60008155859450600101610c24565b5080610c1e565b0151905089806108f9565b9250836000526020600020906000935b601f1984168510610cac576001945083601f19811610610c93575b505050811b01905561090e565b015160001960f88460031b161c19169055898080610c86565b81810151835560209485019460019093019290910190610c6b565b909150836000526020600020601f840160051c81019160208510610d10575b90601f859493920160051c01905b818110610d0157506108e2565b60008155849350600101610cf4565b9091508190610ce6565b3461020c57604036600319011261020c57610d33612e7a565b6001600160a01b03166000908152600a602052604090208054602435919082101561020c57602091610d64916131c8565b90546040519160031b1c8152f35b3461020c57604036600319011261020c57610db1600435610d91612e90565b90806000526007602052610dac6001604060002001546132ba565b613496565b005b3461020c57600036600319011261020c576020604051600080516020613a3a8339815191528152f35b3461020c57602036600319011261020c57600435610df98161374f565b506000526006602052610e35610e126040600020613122565b6000604051610e2081612f2c565b52604051918291602083526020830190612e3a565b0390f35b3461020c57608036600319011261020c57610e52612e7a565b610e5a612e90565b90604435606435926001600160401b03841161020c573660238501121561020c57610e92610db1943690602481600401359101612f83565b92610e9e83838361350d565b336138d2565b3461020c576020610ed4610eb736613052565b6001600160a01b039091166000908152600b845260409020613081565b54604051908152f35b3461020c57610eeb36613099565b91610ef4613270565b60405191610f0183612ef6565b601583527410da185b1b195b99d94814185c9d1a58da5c185b9d605a1b602084015260405192610f3084612f11565b602884527f4177617264656420666f722070617274696369706174696e6720696e2061206360208501526768616c6c656e676560c01b6040850152610f73613270565b610f7e6008546139bd565b938460085560405195610f9087612f2c565b600087526001600160a01b0396858816156107ba5787610fb08888613693565b166107a157610fc19087873361378a565b8560005260066020526040600020908051906001600160401b03821161051f578190610fed84546130e8565b601f81116113e1575b50602090601f83116001146113755760009261136a575b50508160011b916000199060031b1c19161790555b600080516020613a5a8339815191526020604051878152a16040519161104783612edb565b825260208201526001604082015281606082015242608082015283600052600960205260406000209080518051906001600160401b03821161051f57819061108f85546130e8565b601f811161131a575b50602090601f83116001146112ae576000926112a3575b50508160011b916000199060031b1c19161782555b60208101518051906001600160401b03821161051f5781906110e960018601546130e8565b601f8111611250575b50602090601f83116001146111e3576000926111d8575b50508160011b916000199060031b1c19161760018301555b6040810151600283019160058210156105355760049260809260ff80198354169116179055606081015160038501550151910155838216600052600a60205260406000208054600160401b81101561051f57602095859461119d866104c985600080516020613a1a8339815191529760016040980181556131c8565b818116600052600b88528260002060016000528852826000206111c081546139bd565b905582519460018652888601521692a3604051908152f35b015190508880611109565b600186016000908152602081209350601f198516905b818110611238575090846001959493921061121f575b505050811b016001830155611121565b015160001960f88460031b161c1916905588808061120f565b929360206001819287860151815501950193016111f9565b909150600185016000526020600020601f840160051c81016020851061129c575b90849392915b601f830160051c8201811061128d5750506110f2565b60008155859450600101611277565b5080611271565b0151905088806110af565b9250846000526020600020906000935b601f19841685106112ff576001945083601f198116106112e6575b505050811b0182556110c4565b015160001960f88460031b161c191690558880806112d9565b818101518355602094850194600190930192909101906112be565b909150846000526020600020601f840160051c810160208510611363575b90849392915b601f830160051c82018110611354575050611098565b6000815585945060010161133e565b5080611338565b01519050898061100d565b9250836000526020600020906000935b601f19841685106113c6576001945083601f198116106113ad575b505050811b019055611022565b015160001960f88460031b161c191690558980806113a0565b81810151835560209485019460019093019290910190611385565b909150836000526020600020601f840160051c8101916020851061142a575b90601f859493920160051c01905b81811061141b5750610ff6565b6000815584935060010161140e565b9091508190611400565b3461020c57604036600319011261020c5761144d612e7a565b6024359081151580920361020c576001600160a01b03169081156114c057336000526005602052604060002082600052602052604060002060ff1981541660ff83161790556040519081527f17307eab39ab6107e8899845ad3d59bd9653f200f220920489ca2b5937696c3160203392a3005b604051630b61174360e31b815260048101839052602490fd5b3461020c57600036600319011261020c57602060405160008152f35b3461020c57602036600319011261020c57600435600052600960205261155d604060002061152281613122565b9061152f60018201613122565b60ff6002830154169161157661156b600460038401549301549360405197889760a0895260a0890190612e3a565b908782036020890152612e3a565b9360408601906130db565b606084015260808301520390f35b3461020c57602036600319011261020c57610db16115a0612e7a565b6115a86131f6565b6132e0565b3461020c57600036600319011261020c57604051600060018054906115d1826130e8565b80855291818116908115611665575060011461160c575b610e35846115f881860382612f47565b604051918291602083526020830190612e3a565b600081815292507fb10e2d527612073b26eecdfd717e6a320cf44b4afac2b0732d9fcbe2b7fa0cf65b82841061164d5750505081016020016115f8826115e8565b80546020858701810191909152909301928101611635565b60ff191660208087019190915292151560051b850190920192506115f891508390506115e8565b3461020c57604036600319011261020c576116a5612e90565b600435600052600760205260406000209060018060a01b0316600052602052602060ff604060002054166040519015158152f35b3461020c5760208060031936011261020c5760043590600060806040516116ff81612edb565b606081526060848201528260408201528260608201520152816000526002815260018060a01b0360406000205416156117ec5760a0916000526009815260406000206040519161174e83612edb565b61175782613122565b835261176560018301613122565b918184019283526117dc6117d060ff600284015416946117896040880196876139e2565b6117bd600460038601549560608a0196875201549560808901968752604051998a99828b5251918a015260c0890190612e3a565b9051878203601f19016040890152612e3a565b935160608601906130db565b5160808401525160a08301520390f35b6064906040519062461bcd60e51b82526004820152601460248201527310985919d948191bd95cc81b9bdd08195e1a5cdd60621b6044820152fd5b3461020c5761183536613099565b9161183e613270565b6040519161184b83612ef6565b601083526f21b430b63632b733b2902bb4b73732b960811b60208401526040519261187584612ef6565b601f84527f4177617264656420666f722077696e6e696e672061206368616c6c656e67650060208501526118a7613270565b6118b26008546139bd565b9384600855604051956118c487612f2c565b600087526001600160a01b0396858816156107ba57876118e48888613693565b166107a1576118f59087873361378a565b8560005260066020526040600020908051906001600160401b03821161051f57819061192184546130e8565b601f8111611d0e575b50602090601f8311600114611ca257600092611c97575b50508160011b916000199060031b1c19161790555b600080516020613a5a8339815191526020604051878152a16040519161197b83612edb565b825260208201526000604082015281606082015242608082015283600052600960205260406000209080518051906001600160401b03821161051f5781906119c385546130e8565b601f8111611c47575b50602090601f8311600114611be157600092611bd6575b50508160011b916000199060031b1c19161782555b60208101518051906001600160401b03821161051f578190611a1d60018601546130e8565b601f8111611b83575b50602090601f8311600114611b1657600092611b0b575b50508160011b916000199060031b1c19161760018301555b6040810151600283019160058210156105355760049260809260ff80198354169116179055606081015160038501550151910155838216600052600a60205260406000208054600160401b81101561051f576020958594611ad1866104c985600080516020613a1a8339815191529760016040980181556131c8565b818116600052600b88528260002060008052885282600020611af381546139bd565b905582519460008652888601521692a3604051908152f35b015190508880611a3d565b600186016000908152602081209350601f198516905b818110611b6b5750908460019594939210611b52575b505050811b016001830155611a55565b015160001960f88460031b161c19169055888080611b42565b92936020600181928786015181550195019301611b2c565b909150600185016000526020600020601f840160051c810160208510611bcf575b90849392915b601f830160051c82018110611bc0575050611a26565b60008155859450600101611baa565b5080611ba4565b0151905088806119e3565b6000868152602081209350601f198516905b818110611c2f5750908460019594939210611c16575b505050811b0182556119f8565b015160001960f88460031b161c19169055888080611c09565b92936020600181928786015181550195019301611bf3565b909150846000526020600020601f840160051c810160208510611c90575b90849392915b601f830160051c82018110611c815750506119cc565b60008155859450600101611c6b565b5080611c65565b015190508980611941565b9250836000526020600020906000935b601f1984168510611cf3576001945083601f19811610611cda575b505050811b019055611956565b015160001960f88460031b161c19169055898080611ccd565b81810151835560209485019460019093019290910190611cb2565b909150836000526020600020601f840160051c81019160208510611d57575b90601f859493920160051c01905b818110611d48575061192a565b60008155849350600101611d3b565b9091508190611d2d565b3461020c57600036600319011261020c5760206040517fa49807205ce4d355092ef5a8a18f56e8913cf4a201fbe287825b095693c217758152f35b3461020c57602036600319011261020c576001600160a01b03611dbd612e7a565b168015611ddc5760005260036020526020604060002054604051908152f35b6040516322718ad960e21b815260006004820152602490fd5b3461020c57602036600319011261020c576020611e1360043561374f565b6040516001600160a01b039091168152f35b3461020c57611e3336613052565b9060018060a01b031680600052602090600a8252604060002090604051808385829554938481520190600052856000209260005b87828210611f4c57505050611e7e92500383612f47565b600052600b8252611e93836040600020613081565b54611e9d816139ee565b90611eab6040519283612f47565b808252611eba601f19916139ee565b01368483013760009060005b8351811015611f3e57611ed98185613a05565b516000526009855260ff6002604060002001541660058088101561053557811015610535578614611f13575b611f0e906139bd565b611ec6565b91611f36611f0e91611f258587613a05565b51611f308286613a05565b526139bd565b929050611f05565b60405180610e358482613017565b8554845260019586019588955093019201611e67565b3461020c5760c036600319011261020c57611f7b612e7a565b6024356001600160401b03811161020c57611f9a903690600401612fba565b6044356001600160401b03811161020c57611fb9903690600401612fba565b906064356001600160401b03811161020c57611fd9903690600401612fba565b906005608435101561020c57611fed613270565b611ff86008546139bd565b92836008556040519261200a84612f2c565b600084526001600160a01b0393868516156107ba578461202a8789613693565b166107a15761203b9086883361378a565b8460005260066020526040600020908051906001600160401b03821161051f57819061206784546130e8565b601f811161246b575b50602090601f83116001146123ff576000926123f4575b50508160011b916000199060031b1c19161790555b600080516020613a5a8339815191526020604051868152a1604051916120c183612edb565b825260208201526120d7608435604083016139e2565b60a435606082015242608082015282600052600960205260406000209080518051906001600160401b03821161051f57819061211385546130e8565b601f81116123a4575b50602090601f831160011461233e57600092612333575b50508160011b916000199060031b1c19161782555b60208101518051906001600160401b03821161051f57819061216d60018601546130e8565b601f81116122e0575b50602090601f831160011461227357600092612268575b50508160011b916000199060031b1c19161760018301555b6040810151600283019160058210156105355760049260809260ff80198354169116179055606081015160038501550151910155808316600052600a602052604060002092835493600160401b85101561051f5760408493612222856104c989600080516020613a1a83398151915296600160209c0181556131c8565b808416600052600b875261223b60843583600020613081565b61224581546139bd565b9055815193612256856084356130db565b60a435888601521692a3604051908152f35b01519050878061218d565b600186016000908152602081209350601f198516905b8181106122c857509084600195949392106122af575b505050811b0160018301556121a5565b015160001960f88460031b161c1916905587808061229f565b92936020600181928786015181550195019301612289565b909150600185016000526020600020601f840160051c81016020851061232c575b90849392915b601f830160051c8201811061231d575050612176565b60008155859450600101612307565b5080612301565b015190508780612133565b6000868152602081209350601f198516905b81811061238c5750908460019594939210612373575b505050811b018255612148565b015160001960f88460031b161c19169055878080612366565b92936020600181928786015181550195019301612350565b909150846000526020600020601f840160051c8101602085106123ed575b90849392915b601f830160051c820181106123de57505061211c565b600081558594506001016123c8565b50806123c2565b015190508880612087565b9250836000526020600020906000935b601f1984168510612450576001945083601f19811610612437575b505050811b01905561209c565b015160001960f88460031b161c1916905588808061242a565b8181015183556020948501946001909301929091019061240f565b909150836000526020600020601f840160051c8101602085106124b2575b90601f8594930160051c01905b8181106124a35750612070565b60008155849350600101612496565b5080612489565b3461020c57600036600319011261020c576020600854604051908152f35b3461020c57610db16124e836612ea6565b90604051926124f684612f2c565b60008452610e9e83838361350d565b3461020c5760208060031936011261020c576001600160a01b03612527612e7a565b16600052600a8152604060002090604051908181845491828152019360005281600020916000905b82821061257257610e358561256681890382612f47565b60405191829182613017565b83548652948501946001938401939091019061254f565b3461020c57604036600319011261020c576125a2612e90565b336001600160a01b038216036125be57610db190600435613496565b60405163334bd91960e11b8152600490fd5b3461020c576125de36612fd8565b6125e6613270565b604051906125f382612ef6565b601582527421b7b6b6bab734ba3c9021b7b73a3934b13aba37b960591b60208301526040519161262283612f11565b602983527f4177617264656420666f7220636f6e747269627574696e6720746f2074686520602084015268636f6d6d756e69747960b81b6040840152612666613270565b6126716008546139bd565b92836008556040519261268384612f2c565b600084526001600160a01b0393868516156107ba57846126a38789613693565b166107a1576126b49086883361378a565b8460005260066020526040600020908051906001600160401b03821161051f5781906126e084546130e8565b601f8111612ad2575b50602090601f8311600114612a6657600092612a5b575b50508160011b916000199060031b1c19161790555b600080516020613a5a8339815191526020604051868152a16040519161273a83612edb565b82526020820152600360408201526000606082015242608082015282600052600960205260406000209080518051906001600160401b03821161051f57819061278385546130e8565b601f8111612a0b575b50602090601f83116001146129a55760009261299a575b50508160011b916000199060031b1c19161782555b60208101518051906001600160401b03821161051f5781906127dd60018601546130e8565b601f8111612947575b50602090601f83116001146128da576000926128cf575b50508160011b916000199060031b1c19161760018301555b6040810151600283019160058210156105355760049260809260ff80198354169116179055606081015160038501550151910155808316600052600a602052604060002092835493600160401b85101561051f5760408493612892856104c989600080516020613a1a83398151915296600160209c0181556131c8565b808416600052600b87528160002060036000528752816000206128b581546139bd565b9055815193600385526000888601521692a3604051908152f35b0151905087806127fd565b600186016000908152602081209350601f198516905b81811061292f5750908460019594939210612916575b505050811b016001830155612815565b015160001960f88460031b161c19169055878080612906565b929360206001819287860151815501950193016128f0565b909150600185016000526020600020601f840160051c810160208510612993575b90849392915b601f830160051c820181106129845750506127e6565b6000815585945060010161296e565b5080612968565b0151905087806127a3565b6000868152602081209350601f198516905b8181106129f357509084600195949392106129da575b505050811b0182556127b8565b015160001960f88460031b161c191690558780806129cd565b929360206001819287860151815501950193016129b7565b909150846000526020600020601f840160051c810160208510612a54575b90849392915b601f830160051c82018110612a4557505061278c565b60008155859450600101612a2f565b5080612a29565b015190508880612700565b9250836000526020600020906000935b601f1984168510612ab7576001945083601f19811610612a9e575b505050811b019055612715565b015160001960f88460031b161c19169055888080612a91565b81810151835560209485019460019093019290910190612a76565b909150836000526020600020601f840160051c81019160208510612b1b575b90601f859493920160051c01905b818110612b0c57506126e9565b60008155849350600101612aff565b9091508190612af1565b3461020c57602036600319011261020c57610db1612b41612e7a565b612b496131f6565b6133fc565b3461020c57604036600319011261020c57610db1600435612b6d612e90565b90806000526007602052612b886001604060002001546132ba565b613381565b3461020c57602036600319011261020c5760043560005260076020526020600160406000200154604051908152f35b3461020c57610db1612bcd36612ea6565b9161350d565b3461020c57604036600319011261020c57612bec612e7a565b602435612bf88161374f565b33151580612ca7575b80612c7a575b612c62576001600160a01b039283169282918491167f8c5be1e5ebec7d5bd14f71427d1e84f3dd0314c0f7b2291e5b200ac8c7c3b925600080a4600090815260046020526040902080546001600160a01b0319169091179055005b60405163a9fbf51f60e01b8152336004820152602490fd5b5060018060a01b038116600052600560205260406000203360005260205260ff6040600020541615612c07565b506001600160a01b038116331415612c01565b3461020c57602036600319011261020c57600435612cd78161374f565b506000526004602052602060018060a01b0360406000205416604051908152f35b3461020c57600036600319011261020c5760405160008054612d19816130e8565b808452906001908181169081156116655750600114612d4257610e35846115f881860382612f47565b600080805292507f290decd9548b62a8d60345a988386fc84ba6bc95484008f6362f93160ef3e5635b828410612d835750505081016020016115f8826115e8565b80546020858701810191909152909301928101612d6b565b3461020c57602036600319011261020c576004359063ffffffff60e01b821680920361020c57602091637965db0b60e01b8114908115612ddd575b5015158152f35b632483248360e11b811491508115612df7575b5083612dd6565b6380ac58cd60e01b811491508115612e29575b8115612e18575b5083612df0565b6301ffc9a760e01b14905083612e11565b635b5e139f60e01b81149150612e0a565b919082519283825260005b848110612e66575050826000602080949584010152601f8019910116010190565b602081830181015184830182015201612e45565b600435906001600160a01b038216820361020c57565b602435906001600160a01b038216820361020c57565b606090600319011261020c576001600160a01b0390600435828116810361020c5791602435908116810361020c579060443590565b60a081019081106001600160401b0382111761051f57604052565b604081019081106001600160401b0382111761051f57604052565b606081019081106001600160401b0382111761051f57604052565b602081019081106001600160401b0382111761051f57604052565b90601f801991011681019081106001600160401b0382111761051f57604052565b6001600160401b03811161051f57601f01601f191660200190565b929192612f8f82612f68565b91612f9d6040519384612f47565b82948184528183011161020c578281602093846000960137010152565b9080601f8301121561020c57816020612fd593359101612f83565b90565b90604060031983011261020c576004356001600160a01b038116810361020c5791602435906001600160401b03821161020c57612fd591600401612fba565b6020908160408183019282815285518094520193019160005b82811061303e575050505090565b835185529381019392810192600101613030565b604090600319011261020c576004356001600160a01b038116810361020c5790602435600581101561020c5790565b90600581101561053557600052602052604060002090565b606060031982011261020c576004356001600160a01b038116810361020c579160243591604435906001600160401b03821161020c57612fd591600401612fba565b9060058210156105355752565b90600182811c92168015613118575b602083101461310257565b634e487b7160e01b600052602260045260246000fd5b91607f16916130f7565b9060405191826000825492613136846130e8565b9081845260019485811690816000146131a55750600114613162575b505061316092500383612f47565b565b9093915060005260209081600020936000915b81831061318d57505061316093508201013880613152565b85548884018501529485019487945091830191613175565b91505061316094506020925060ff191682840152151560051b8201013880613152565b80548210156131e05760005260206000200190600090565b634e487b7160e01b600052603260045260246000fd5b3360009081527fa70365933f78520ef41d6645ba61e509916296603327302d41466c063e8e260860205260409020547fa49807205ce4d355092ef5a8a18f56e8913cf4a201fbe287825b095693c217759060ff16156132525750565b6044906040519063e2517d3f60e01b82523360048301526024820152fd5b3360009081527fa4bfd7afe708e2e87e7f0e2ad9b4d545417e0f795f57b5c5ab5d799c565a04f46020526040902054600080516020613a3a8339815191529060ff16156132525750565b80600052600760205260406000203360005260205260ff60406000205416156132525750565b6001600160a01b031660008181527fa4bfd7afe708e2e87e7f0e2ad9b4d545417e0f795f57b5c5ab5d799c565a04f46020526040812054909190600080516020613a3a8339815191529060ff1661337c5780835260076020526040832082845260205260408320600160ff198254161790557f2f8788117e7eff1d82e926ec794901d17c78024a50270940304540a733656f0d339380a4600190565b505090565b906000918083526007602052604083209160018060a01b03169182845260205260ff6040842054161560001461337c5780835260076020526040832082845260205260408320600160ff198254161790557f2f8788117e7eff1d82e926ec794901d17c78024a50270940304540a733656f0d339380a4600190565b6001600160a01b031660008181527fa4bfd7afe708e2e87e7f0e2ad9b4d545417e0f795f57b5c5ab5d799c565a04f46020526040812054909190600080516020613a3a8339815191529060ff161561337c578083526007602052604083208284526020526040832060ff1981541690557ff6391f5c32d9c69d2a47ea670b442974b53935d1edc7fd64eb21e047a839171b339380a4600190565b906000918083526007602052604083209160018060a01b03169182845260205260ff60408420541660001461337c578083526007602052604083208284526020526040832060ff1981541690557ff6391f5c32d9c69d2a47ea670b442974b53935d1edc7fd64eb21e047a839171b339380a4600190565b6001600160a01b0391821692909183156107ba576000928284528260209560028752604096848888205416968791331515806135fd575b509060027fddf252ad1be2c89b69c2b068fc378daa952ba7f163c4a11628f55a4df523b3ef92846135ca575b858352600381528b8320805460010190558683525289812080546001600160a01b0319168517905580a416928383036135a95750505050565b6064945051926364283d7b60e01b8452600484015260248301526044820152fd5b600087815260046020526040902080546001600160a01b0319169055848352600381528b83208054600019019055613570565b91939450915080613652575b1561361957859291879138613544565b878688613636576024915190637e27328960e01b82526004820152fd5b604491519063177e802f60e01b82523360048301526024820152fd5b503387148015613677575b806136095750858252600481523385898420541614613609565b5086825260058152878220338352815260ff888320541661365d565b6000828152600260205260408120546001600160a01b03908116939284917fddf252ad1be2c89b69c2b068fc378daa952ba7f163c4a11628f55a4df523b3ef918361371a575b169283613702575b84815260026020526040812080546001600160a01b0319168517905580a490565b838152600360205260408120600181540190556136e1565b600086815260046020526040902080546001600160a01b031916905583855260036020526040852080546000190190556136d9565b6000818152600260205260409020546001600160a01b0316908115613772575090565b60249060405190637e27328960e01b82526004820152fd5b90929192803b61379b575b50505050565b906137ea9293949160018060a01b038091169460405191630a85bd0160e11b93848452166004830152600096876024840152604483015260806064830152818060209687936084830190612e3a565b038189895af186918161388e575b50613859575050503d600014613850573d61381281612f68565b906138206040519283612f47565b81528093823d92013e5b8251928361384b57604051633250574960e11b815260048101849052602490fd5b019050fd5b6060925061382a565b919450915063ffffffff60e01b1603613876575038808080613795565b60249060405190633250574960e11b82526004820152fd5b9091508481813d83116138cb575b6138a68183612f47565b810103126138c757516001600160e01b0319811681036138c75790386137f8565b8680fd5b503d61389c565b90939192833b6138e4575b5050505050565b604051630a85bd0160e11b8082526001600160a01b039384166004830152958316602482015260448101919091526080606482015294921692602092918590613931906084830190612e3a565b039483816000978189895af186918161397d575b5061395f575050503d600014613850573d61381281612f68565b919450915063ffffffff60e01b1603613876575038808080806138dd565b9091508481813d83116139b6575b6139958183612f47565b810103126138c757516001600160e01b0319811681036138c7579038613945565b503d61398b565b60001981146139cc5760010190565b634e487b7160e01b600052601160045260246000fd5b60058210156105355752565b6001600160401b03811161051f5760051b60200190565b80518210156131e05760209160051b01019056fef6b70dedb47bc6e8680e80b2d7055aedd55e5598da29758ae2b17b4b133422399f2df0fed2c77648de5860a4cc508cd0818c85b8b8a1ab4ceeef8d981c8956a6f8e1a15aba9398e019f0b49df1a4fde98ee17ae345cb5f6b5e2c27f5033e8ce7a26469706673582212203b20fe7ada4d5131c2161462a379b44185dbcf4f25e625dce475d392ffbb6f5064736f6c634300081400332f8788117e7eff1d82e926ec794901d17c78024a50270940304540a733656f0d",
  "devdoc": {
    "errors": {
      "AccessControlBadConfirmation()": [
        {
          "details": "The caller of a function is not the expected one. NOTE: Don't confuse with {AccessControlUnauthorizedAccount}."
        }
      ],
      "AccessControlUnauthorizedAccount(address,bytes32)": [
        {
          "details": "The `account` is missing a role."
        }
      ],
      "ERC721IncorrectOwner(address,uint256,address)": [
        {
          "details": "Indicates an error related to the ownership over a particular token. Used in transfers.",
          "params": {
            "owner": "Address of the current owner of a token.",
            "sender": "Address whose tokens are being transferred.",
            "tokenId": "Identifier number of a token."
          }
        }
      ],
      "ERC721InsufficientApproval(address,uint256)": [
        {
          "details": "Indicates a failure with the `operator`s approval. Used in transfers.",
          "params": {
            "operator": "Address that may be allowed to operate on tokens without being their owner.",
            "tokenId": "Identifier number of a token."
          }
        }
      ],
      "ERC721InvalidApprover(address)": [
        {
          "details": "Indicates a failure with the `approver` of a token to be approved. Used in approvals.",
          "params": {
            "approver": "Address initiating an approval operation."
          }
        }
      ],
      "ERC721InvalidOperator(address)": [
        {
          "details": "Indicates a failure with the `operator` to be approved. Used in approvals.",
          "params": {
            "operator": "Address that may be allowed to operate on tokens without being their owner."
          }
        }
      ],
      "ERC721InvalidOwner(address)": [
        {
          "details": "Indicates that an address can't be an owner. For example, `address(0)` is a forbidden owner in ERC-20. Used in balance queries.",
          "params": {
            "owner": "Address of the current owner of a token."
          }
        }
      ],
      "ERC721InvalidReceiver(address)": [
        {
          "details": "Indicates a failure with the token `receiver`. Used in transfers.",
          "params": {
            "receiver": "Address to which tokens are being transferred."
          }
        }
      ],
      "ERC721InvalidSender(address)": [
        {
          "details": "Indicates a failure with the token `sender`. Used in transfers.",
          "params": {
            "sender": "Address whose tokens are being transferred."
          }
        }
      ],
      "ERC721NonexistentToken(uint256)": [
        {
          "details": "Indicates a `tokenId` whose `owner` is the zero address.",
          "params": {
            "tokenId": "Identifier number of a token."
          }
        }
      ]
    },
    "events": {
      "Approval(address,address,uint256)": {
        "details": "Emitted when `owner` enables `approved` to manage the `tokenId` token."
      },
      "ApprovalForAll(address,address,bool)": {
        "details": "Emitted when `owner` enables or disables (`approved`) `operator` to manage all of its assets."
      },
      "BatchMetadataUpdate(uint256,uint256)": {
        "details": "This event emits when the metadata of a range of tokens is changed. So that the third-party platforms such as NFT market could timely update the images and related attributes of the NFTs."
      },
      "MetadataUpdate(uint256)": {
        "details": "This event emits when the metadata of a token is changed. So that the third-party platforms such as NFT market could timely update the images and related attributes of the NFT."
      },
      "RoleAdminChanged(bytes32,bytes32,bytes32)": {
        "details": "Emitted when `newAdminRole` is set as ``role``'s admin role, replacing `previousAdminRole` `DEFAULT_ADMIN_ROLE` is the starting admin for all roles, despite {RoleAdminChanged} not being emitted to signal this."
      },
      "RoleGranted(bytes32,address,address)": {
        "details": "Emitted when `account` is granted `role`. `sender` is the account that originated the contract call. This account bears the admin role (for the granted role). Expected in cases where the role was granted using the internal {AccessControl-_grantRole}."
      },
      "RoleRevoked(bytes32,address,address)": {
        "details": "Emitted when `account` is revoked `role`. `sender` is the account that originated the contract call:   - if using `revokeRole`, it is the admin role bearer   - if using `renounceRole`, it is the role bearer (i.e. `account`)"
      },
      "Transfer(address,address,uint256)": {
        "details": "Emitted when `tokenId` token is transferred from `from` to `to`."
      }
    },
    "kind": "dev",
    "methods": {
      "approve(address,uint256)": {
        "details": "Gives permission to `to` to transfer `tokenId` token to another account. The approval is cleared when the token is transferred. Only a single account can be approved at a time, so approving the zero address clears previous approvals. Requirements: - The caller must own the token or be an approved operator. - `tokenId` must exist. Emits an {Approval} event."
      },
      "balanceOf(address)": {
        "details": "Returns the number of tokens in ``owner``'s account."
      },
      "getApproved(uint256)": {
        "details": "Returns the account approved for `tokenId` token. Requirements: - `tokenId` must exist."
      },
      "getRoleAdmin(bytes32)": {
        "details": "Returns the admin role that controls `role`. See {grantRole} and {revokeRole}. To change a role's admin, use {_setRoleAdmin}."
      },
      "grantRole(bytes32,address)": {
        "details": "Grants `role` to `account`. If `account` had not been already granted `role`, emits a {RoleGranted} event. Requirements: - the caller must have ``role``'s admin role. May emit a {RoleGranted} event."
      },
      "hasRole(bytes32,address)": {
        "details": "Returns `true` if `account` has been granted `role`."
      },
      "isApprovedForAll(address,address)": {
        "details": "Returns if the `operator` is allowed to manage all of the assets of `owner`. See {setApprovalForAll}"
      },
      "name()": {
        "details": "Returns the token collection name."
      },
      "ownerOf(uint256)": {
        "details": "Returns the owner of the `tokenId` token. Requirements: - `tokenId` must exist."
      },
      "renounceRole(bytes32,address)": {
        "details": "Revokes `role` from the calling account. Roles are often managed via {grantRole} and {revokeRole}: this function's purpose is to provide a mechanism for accounts to lose their privileges if they are compromised (such as when a trusted device is misplaced). If the calling account had been revoked `role`, emits a {RoleRevoked} event. Requirements: - the caller must be `callerConfirmation`. May emit a {RoleRevoked} event."
      },
      "revokeRole(bytes32,address)": {
        "details": "Revokes `role` from `account`. If `account` had been granted `role`, emits a {RoleRevoked} event. Requirements: - the caller must have ``role``'s admin role. May emit a {RoleRevoked} event."
      },
      "safeTransferFrom(address,address,uint256)": {
        "details": "Safely transfers `tokenId` token from `from` to `to`, checking first that contract recipients are aware of the ERC-721 protocol to prevent tokens from being forever locked. Requirements: - `from` cannot be the zero address. - `to` cannot be the zero address. - `tokenId` token must exist and be owned by `from`. - If the caller is not `from`, it must have been allowed to move this token by either {approve} or   {setApprovalForAll}. - If `to` refers to a smart contract, it must implement {IERC721Receiver-onERC721Received}, which is called upon   a safe transfer. Emits a {Transfer} event."
      },
      "safeTransferFrom(address,address,uint256,bytes)": {
        "details": "Safely transfers `tokenId` token from `from` to `to`. Requirements: - `from` cannot be the zero address. - `to` cannot be the zero address. - `tokenId` token must exist and be owned by `from`. - If the caller is not `from`, it must be approved to move this token by either {approve} or {setApprovalForAll}. - If `to` refers to a smart contract, it must implement {IERC721Receiver-onERC721Received}, which is called upon   a safe transfer. Emits a {Transfer} event."
      },
      "setApprovalForAll(address,bool)": {
        "details": "Approve or remove `operator` as an operator for the caller. Operators can call {transferFrom} or {safeTransferFrom} for any token owned by the caller. Requirements: - The `operator` cannot be the address zero. Emits an {ApprovalForAll} event."
      },
      "symbol()": {
        "details": "Returns the token collection symbol."
      },
      "transferFrom(address,address,uint256)": {
        "details": "Transfers `tokenId` token from `from` to `to`. WARNING: Note that the caller is responsible to confirm that the recipient is capable of receiving ERC-721 or else they may be permanently lost. Usage of {safeTransferFrom} prevents loss, though the caller must understand this adds an external call which potentially creates a reentrancy vulnerability. Requirements: - `from` cannot be the zero address. - `to` cannot be the zero address. - `tokenId` token must be owned by `from`. - If the caller is not `from`, it must be approved to move this token by either {approve} or {setApprovalForAll}. Emits a {Transfer} event."
      }
    },
    "version": 1
  },
  "userdoc": {
    "kind": "user",
    "methods": {},
    "version": 1
  },
  "storageLayout": {
    "storage": [
      {
        "astId": 1225,
        "contract": "contracts/CommunityBadges.sol:CommunityBadges",
        "label": "_name",
        "offset": 0,
        "slot": "0",
        "type": "t_string_storage"
      },
      {
        "astId": 1227,
        "contract": "contracts/CommunityBadges.sol:CommunityBadges",
        "label": "_symbol",
        "offset": 0,
        "slot": "1",
        "type": "t_string_storage"
      },
      {
        "astId": 1231,
        "contract": "contracts/CommunityBadges.sol:CommunityBadges",
        "label": "_owners",
        "offset": 0,
        "slot": "2",
        "type": "t_mapping(t_uint256,t_address)"
      },
      {
        "astId": 1235,
        "contract": "contracts/CommunityBadges.sol:CommunityBadges",
        "label": "_balances",
        "offset": 0,
        "slot": "3",
        "type": "t_mapping(t_address,t_uint256)"
      },
      {
        "astId": 1239,
        "contract": "contracts/CommunityBadges.sol:CommunityBadges",
        "label": "_tokenApprovals",
        "offset": 0,
        "slot": "4",
        "type": "t_mapping(t_uint256,t_address)"
      },
      {
        "astId": 1245,
        "contract": "contracts/CommunityBadges.sol:CommunityBadges",
        "label": "_operatorApprovals",
        "offset": 0,
        "slot": "5",
        "type": "t_mapping(t_address,t_mapping(t_address,t_bool))"
      },
      {
        "astId": 2314,
        "contract": "contracts/CommunityBadges.sol:CommunityBadges",
        "label": "_tokenURIs",
        "offset": 0,
        "slot": "6",
        "type": "t_mapping(t_uint256,t_string_storage)"
      },
      {
        "astId": 27,
        "contract": "contracts/CommunityBadges.sol:CommunityBadges",
        "label": "_roles",
        "offset": 0,
        "slot": "7",
        "type": "t_mapping(t_bytes32,t_struct(RoleData)22_storage)"
      },
      {
        "astId": 8661,
        "contract": "contracts/CommunityBadges.sol:CommunityBadges",
        "label": "_tokenIdCounter",
        "offset": 0,
        "slot": "8",
        "type": "t_uint256"
      },
      {
        "astId": 8684,
        "contract": "contracts/CommunityBadges.sol:CommunityBadges",
        "label": "badges",
        "offset": 0,
        "slot": "9",
        "type": "t_mapping(t_uint256,t_struct(Badge)8679_storage)"
      },
      {
        "astId": 8689,
        "contract": "contracts/CommunityBadges.sol:CommunityBadges",
        "label": "userBadges",
        "offset": 0,
        "slot": "10",
        "type": "t_mapping(t_address,t_array(t_uint256)dyn_storage)"
      },
      {
        "astId": 8696,
        "contract": "contracts/CommunityBadges.sol:CommunityBadges",
        "label": "userBadgeCount",
        "offset": 0,
        "slot": "11",
        "type": "t_mapping(t_address,t_mapping(t_enum(BadgeType)8667,t_uint256))"
      }
    ],
    "types": {
      "t_address": {
        "encoding": "inplace",
        "label": "address",
        "numberOfBytes": "20"
      },
      "t_array(t_uint256)dyn_storage": {
        "base": "t_uint256",
        "encoding": "dynamic_array",
        "label": "uint256[]",
        "numberOfBytes": "32"
      },
      "t_bool": {
        "encoding": "inplace",
        "label": "bool",
        "numberOfBytes": "1"
      },
      "t_bytes32": {
        "encoding": "inplace",
        "label": "bytes32",
        "numberOfBytes": "32"
      },
      "t_enum(BadgeType)8667": {
        "encoding": "inplace",
        "label": "enum CommunityBadges.BadgeType",
        "numberOfBytes": "1"
      },
      "t_mapping(t_address,t_array(t_uint256)dyn_storage)": {
        "encoding": "mapping",
        "key": "t_address",
        "label": "mapping(address => uint256[])",
        "numberOfBytes": "32",
        "value": "t_array(t_uint256)dyn_storage"
      },
      "t_mapping(t_address,t_bool)": {
        "encoding": "mapping",
        "key": "t_address",
        "label": "mapping(address => bool)",
        "numberOfBytes": "32",
        "value": "t_bool"
      },
      "t_mapping(t_address,t_mapping(t_address,t_bool))": {
        "encoding": "mapping",
        "key": "t_address",
        "label": "mapping(address => mapping(address => bool))",
        "numberOfBytes": "32",
        "value": "t_mapping(t_address,t_bool)"
      },
      "t_mapping(t_address,t_mapping(t_enum(BadgeType)8667,t_uint256))": {
        "encoding": "mapping",
        "key": "t_address",
        "label": "mapping(address => mapping(enum CommunityBadges.BadgeType => uint256))",
        "numberOfBytes": "32",
        "value": "t_mapping(t_enum(BadgeType)8667,t_uint256)"
      },
      "t_mapping(t_address,t_uint256)": {
        "encoding": "mapping",
        "key": "t_address",
        "label": "mapping(address => uint256)",
        "numberOfBytes": "32",
        "value": "t_uint256"
      },
      "t_mapping(t_bytes32,t_struct(RoleData)22_storage)": {
        "encoding": "mapping",
        "key": "t_bytes32",
        "label": "mapping(bytes32 => struct AccessControl.RoleData)",
        "numberOfBytes": "32",
        "value": "t_struct(RoleData)22_storage"
      },
      "t_mapping(t_enum(BadgeType)8667,t_uint256)": {
        "encoding": "mapping",
        "key": "t_enum(BadgeType)8667",
        "label": "mapping(enum CommunityBadges.BadgeType => uint256)",
        "numberOfBytes": "32",
        "value": "t_uint256"
      },
      "t_mapping(t_uint256,t_address)": {
        "encoding": "mapping",
        "key": "t_uint256",
        "label": "mapping(uint256 => address)",
        "numberOfBytes": "32",
        "value": "t_address"
      },
      "t_mapping(t_uint256,t_string_storage)": {
        "encoding": "mapping",
        "key": "t_uint256",
        "label": "mapping(uint256 => string)",
        "numberOfBytes": "32",
        "value": "t_string_storage"
      },
      "t_mapping(t_uint256,t_struct(Badge)8679_storage)": {
        "encoding": "mapping",
        "key": "t_uint256",
        "label": "mapping(uint256 => struct CommunityBadges.Badge)",
        "numberOfBytes": "32",
        "value": "t_struct(Badge)8679_storage"
      },
      "t_string_storage": {
        "encoding": "bytes",
        "label": "string",
        "numberOfBytes": "32"
      },
      "t_struct(Badge)8679_storage": {
        "encoding": "inplace",
        "label": "struct CommunityBadges.Badge",
        "members": [
          {
            "astId": 8669,
            "contract": "contracts/CommunityBadges.sol:CommunityBadges",
            "label": "name",
            "offset": 0,
            "slot": "0",
            "type": "t_string_storage"
          },
          {
            "astId": 8671,
            "contract": "contracts/CommunityBadges.sol:CommunityBadges",
            "label": "description",
            "offset": 0,
            "slot": "1",
            "type": "t_string_storage"
          },
          {
            "astId": 8674,
            "contract": "contracts/CommunityBadges.sol:CommunityBadges",
            "label": "badgeType",
            "offset": 0,
            "slot": "2",
            "type": "t_enum(BadgeType)8667"
          },
          {
            "astId": 8676,
            "contract": "contracts/CommunityBadges.sol:CommunityBadges",
            "label": "challengeId",
            "offset": 0,
            "slot": "3",
            "type": "t_uint256"
          },
          {
            "astId": 8678,
            "contract": "contracts/CommunityBadges.sol:CommunityBadges",
            "label": "timestamp",
            "offset": 0,
            "slot": "4",
            "type": "t_uint256"
          }
        ],
        "numberOfBytes": "160"
      },
      "t_struct(RoleData)22_storage": {
        "encoding": "inplace",
        "label": "struct AccessControl.RoleData",
        "members": [
          {
            "astId": 19,
            "contract": "contracts/CommunityBadges.sol:CommunityBadges",
            "label": "hasRole",
            "offset": 0,
            "slot": "0",
            "type": "t_mapping(t_address,t_bool)"
          },
          {
            "astId": 21,
            "contract": "contracts/CommunityBadges.sol:CommunityBadges",
            "label": "adminRole",
            "offset": 0,
            "slot": "1",
            "type": "t_bytes32"
          }
        ],
        "numberOfBytes": "64"
      },
      "t_uint256": {
        "encoding": "inplace",
        "label": "uint256",
        "numberOfBytes": "32"
      }
    }
  }
}