{
  "address": "0x5e21057Ae2A86699D9c638AB2ac5ce30c8EED5CA",
  "abi": [
    {
      "inputs": [],
      "stateMutability": "nonpayable",
      "type": "constructor"
    },
    {
      "inputs": [],
      "name": "AccessControlBadConfirmation",
      "type": "error"
    },
    {
      "inputs": [
        {
          "internalType": "address",
          "name": "account",
          "type": "address"
        },
        {
          "internalType": "bytes32",
          "name": "neededRole",
          "type": "bytes32"
        }
      ],
      "name": "AccessControlUnauthorizedAccount",
      "type": "error"
    },
    {
      "anonymous": false,
      "inputs": [
        {
          "indexed": true,
          "internalType": "address",
          "name": "user",
          "type": "address"
        },
        {
          "indexed": false,
          "internalType": "string",
          "name": "subdomain",
          "type": "string"
        }
      ],
      "name": "ProfileCreated",
      "type": "event"
    },
    {
      "anonymous": false,
      "inputs": [
        {
          "indexed": true,
          "internalType": "address",
          "name": "user",
          "type": "address"
        }
      ],
      "name": "ProfileUpdated",
      "type": "event"
    },
    {
      "anonymous": false,
      "inputs": [
        {
          "indexed": true,
          "internalType": "bytes32",
          "name": "role",
          "type": "bytes32"
        },
        {
          "indexed": true,
          "internalType": "bytes32",
          "name": "previousAdminRole",
          "type": "bytes32"
        },
        {
          "indexed": true,
          "internalType": "bytes32",
          "name": "newAdminRole",
          "type": "bytes32"
        }
      ],
      "name": "RoleAdminChanged",
      "type": "event"
    },
    {
      "anonymous": false,
      "inputs": [
        {
          "indexed": true,
          "internalType": "bytes32",
          "name": "role",
          "type": "bytes32"
        },
        {
          "indexed": true,
          "internalType": "address",
          "name": "account",
          "type": "address"
        },
        {
          "indexed": true,
          "internalType": "address",
          "name": "sender",
          "type": "address"
        }
      ],
      "name": "RoleGranted",
      "type": "event"
    },
    {
      "anonymous": false,
      "inputs": [
        {
          "indexed": true,
          "internalType": "bytes32",
          "name": "role",
          "type": "bytes32"
        },
        {
          "indexed": true,
          "internalType": "address",
          "name": "account",
          "type": "address"
        },
        {
          "indexed": true,
          "internalType": "address",
          "name": "sender",
          "type": "address"
        }
      ],
      "name": "RoleRevoked",
      "type": "event"
    },
    {
      "anonymous": false,
      "inputs": [
        {
          "indexed": true,
          "internalType": "address",
          "name": "user",
          "type": "address"
        },
        {
          "indexed": false,
          "internalType": "string",
          "name": "subdomain",
          "type": "string"
        }
      ],
      "name": "SubdomainAssigned",
      "type": "event"
    },
    {
      "inputs": [],
      "name": "ADMIN_ROLE",
      "outputs": [
        {
          "internalType": "bytes32",
          "name": "",
          "type": "bytes32"
        }
      ],
      "stateMutability": "view",
      "type": "function"
    },
    {
      "inputs": [],
      "name": "BASE_DOMAIN",
      "outputs": [
        {
          "internalType": "string",
          "name": "",
          "type": "string"
        }
      ],
      "stateMutability": "view",
      "type": "function"
    },
    {
      "inputs": [],
      "name": "DEFAULT_ADMIN_ROLE",
      "outputs": [
        {
          "internalType": "bytes32",
          "name": "",
          "type": "bytes32"
        }
      ],
      "stateMutability": "view",
      "type": "function"
    },
    {
      "inputs": [
        {
          "internalType": "address",
          "name": "",
          "type": "address"
        }
      ],
      "name": "addressToSubdomain",
      "outputs": [
        {
          "internalType": "string",
          "name": "",
          "type": "string"
        }
      ],
      "stateMutability": "view",
      "type": "function"
    },
    {
      "inputs": [
        {
          "internalType": "address",
          "name": "user",
          "type": "address"
        },
        {
          "internalType": "string",
          "name": "subdomain",
          "type": "string"
        },
        {
          "internalType": "string",
          "name": "displayName",
          "type": "string"
        },
        {
          "internalType": "string",
          "name": "bio",
          "type": "string"
        },
        {
          "internalType": "string",
          "name": "avatar",
          "type": "string"
        }
      ],
      "name": "createProfile",
      "outputs": [],
      "stateMutability": "nonpayable",
      "type": "function"
    },
    {
      "inputs": [
        {
          "internalType": "address",
          "name": "user",
          "type": "address"
        }
      ],
      "name": "deactivateProfile",
      "outputs": [],
      "stateMutability": "nonpayable",
      "type": "function"
    },
    {
      "inputs": [
        {
          "internalType": "address",
          "name": "user",
          "type": "address"
        },
        {
          "internalType": "string",
          "name": "key",
          "type": "string"
        }
      ],
      "name": "getCustomField",
      "outputs": [
        {
          "internalType": "string",
          "name": "",
          "type": "string"
        }
      ],
      "stateMutability": "view",
      "type": "function"
    },
    {
      "inputs": [
        {
          "internalType": "address",
          "name": "user",
          "type": "address"
        }
      ],
      "name": "getProfile",
      "outputs": [
        {
          "internalType": "string",
          "name": "ensSubdomain",
          "type": "string"
        },
        {
          "internalType": "string",
          "name": "displayName",
          "type": "string"
        },
        {
          "internalType": "string",
          "name": "bio",
          "type": "string"
        },
        {
          "internalType": "string",
          "name": "avatar",
          "type": "string"
        },
        {
          "internalType": "string[]",
          "name": "socialLinks",
          "type": "string[]"
        },
        {
          "internalType": "bool",
          "name": "isActive",
          "type": "bool"
        },
        {
          "internalType": "uint256",
          "name": "createdAt",
          "type": "uint256"
        }
      ],
      "stateMutability": "view",
      "type": "function"
    },
    {
      "inputs": [
        {
          "internalType": "bytes32",
          "name": "role",
          "type": "bytes32"
        }
      ],
      "name": "getRoleAdmin",
      "outputs": [
        {
          "internalType": "bytes32",
          "name": "",
          "type": "bytes32"
        }
      ],
      "stateMutability": "view",
      "type": "function"
    },
    {
      "inputs": [
        {
          "internalType": "address",
          "name": "user",
          "type": "address"
        }
      ],
      "name": "getSubdomain",
      "outputs": [
        {
          "internalType": "string",
          "name": "",
          "type": "string"
        }
      ],
      "stateMutability": "view",
      "type": "function"
    },
    {
      "inputs": [],
      "name": "getTotalProfiles",
      "outputs": [
        {
          "internalType": "uint256",
          "name": "",
          "type": "uint256"
        }
      ],
      "stateMutability": "view",
      "type": "function"
    },
    {
      "inputs": [
        {
          "internalType": "bytes32",
          "name": "role",
          "type": "bytes32"
        },
        {
          "internalType": "address",
          "name": "account",
          "type": "address"
        }
      ],
      "name": "grantRole",
      "outputs": [],
      "stateMutability": "nonpayable",
      "type": "function"
    },
    {
      "inputs": [
        {
          "internalType": "bytes32",
          "name": "role",
          "type": "bytes32"
        },
        {
          "internalType": "address",
          "name": "account",
          "type": "address"
        }
      ],
      "name": "hasRole",
      "outputs": [
        {
          "internalType": "bool",
          "name": "",
          "type": "bool"
        }
      ],
      "stateMutability": "view",
      "type": "function"
    },
    {
      "inputs": [
        {
          "internalType": "address",
          "name": "",
          "type": "address"
        }
      ],
      "name": "profiles",
      "outputs": [
        {
          "internalType": "string",
          "name": "ensSubdomain",
          "type": "string"
        },
        {
          "internalType": "string",
          "name": "displayName",
          "type": "string"
        },
        {
          "internalType": "string",
          "name": "bio",
          "type": "string"
        },
        {
          "internalType": "string",
          "name": "avatar",
          "type": "string"
        },
        {
          "internalType": "bool",
          "name": "isActive",
          "type": "bool"
        },
        {
          "internalType": "uint256",
          "name": "createdAt",
          "type": "uint256"
        }
      ],
      "stateMutability": "view",
      "type": "function"
    },
    {
      "inputs": [
        {
          "internalType": "address",
          "name": "user",
          "type": "address"
        }
      ],
      "name": "reactivateProfile",
      "outputs": [],
      "stateMutability": "nonpayable",
      "type": "function"
    },
    {
      "inputs": [
        {
          "internalType": "bytes32",
          "name": "role",
          "type": "bytes32"
        },
        {
          "internalType": "address",
          "name": "callerConfirmation",
          "type": "address"
        }
      ],
      "name": "renounceRole",
      "outputs": [],
      "stateMutability": "nonpayable",
      "type": "function"
    },
    {
      "inputs": [
        {
          "internalType": "string",
          "name": "subdomain",
          "type": "string"
        }
      ],
      "name": "resolveSubdomain",
      "outputs": [
        {
          "internalType": "address",
          "name": "",
          "type": "address"
        }
      ],
      "stateMutability": "view",
      "type": "function"
    },
    {
      "inputs": [
        {
          "internalType": "bytes32",
          "name": "role",
          "type": "bytes32"
        },
        {
          "internalType": "address",
          "name": "account",
          "type": "address"
        }
      ],
      "name": "revokeRole",
      "outputs": [],
      "stateMutability": "nonpayable",
      "type": "function"
    },
    {
      "inputs": [
        {
          "internalType": "string",
          "name": "key",
          "type": "string"
        },
        {
          "internalType": "string",
          "name": "value",
          "type": "string"
        }
      ],
      "name": "setCustomField",
      "outputs": [],
      "stateMutability": "nonpayable",
      "type": "function"
    },
    {
      "inputs": [
        {
          "internalType": "string",
          "name": "",
          "type": "string"
        }
      ],
      "name": "subdomainToAddress",
      "outputs": [
        {
          "internalType": "address",
          "name": "",
          "type": "address"
        }
      ],
      "stateMutability": "view",
      "type": "function"
    },
    {
      "inputs": [
        {
          "internalType": "bytes4",
          "name": "interfaceId",
          "type": "bytes4"
        }
      ],
      "name": "supportsInterface",
      "outputs": [
        {
          "internalType": "bool",
          "name": "",
          "type": "bool"
        }
      ],
      "stateMutability": "view",
      "type": "function"
    },
    {
      "inputs": [
        {
          "internalType": "string",
          "name": "displayName",
          "type": "string"
        },
        {
          "internalType": "string",
          "name": "bio",
          "type": "string"
        },
        {
          "internalType": "string",
          "name": "avatar",
          "type": "string"
        },
        {
          "internalType": "string[]",
          "name": "socialLinks",
          "type": "string[]"
        }
      ],
      "name": "updateProfile",
      "outputs": [],
      "stateMutability": "nonpayable",
      "type": "function"
    }
  ],
  "transactionHash": "0xfa36159848d5f2af2e02ed85f455a5d25f2da188c8576fb8b8bb3ac1a89ef70f",
  "args": [],
  "numDeployments": 1,
  "solcInputHash": "fa9b6b3c5b8f5adfe51df92ed6f57f7a",
  "bytecode": "0x6080604052346200003257620000153362000037565b506200002133620000b7565b50604051611b4e90816200015a8239f35b600080fd5b6001600160a01b031660008181527fad3228b676f7d3cd4284a5443f17f1962b36e491b30a40b2405849e597ba5fb5602052604081205490919060ff16620000b357818052816020526040822081835260205260408220600160ff19825416179055339160008051602062001ca88339815191528180a4600190565b5090565b6001600160a01b031660008181527f7d7ffb7a348e1c6a02869081a26547b49160dd3df72d1d75a570eb9b698292ec60205260408120549091907fa49807205ce4d355092ef5a8a18f56e8913cf4a201fbe287825b095693c217759060ff166200015457808352826020526040832082845260205260408320600160ff1982541617905560008051602062001ca8833981519152339380a4600190565b50509056fe60806040818152600436101561001457600080fd5b600091823560e01c90816301ffc9a71461169157508063036e564314610c2d5780630f53a4701461151557806318dc373d146114e9578063248a9ca3146114bf5780632f2ff15d146114955780633496abed1461143d57806336568abe146113f657806342c4023f14610c9957806348ba438f14610c2d5780636ba57b8f146105f85780636fbdca251461058557806375b238fc1461054b5780637ea073c8146104e65780638f599e441461034057806391d14854146102fb578063a217fddf146102e1578063b71093571461028b578063bab17ce91461026d578063bbe15627146101a7578063d547741f146101685763db4f4ee91461011457600080fd5b34610164576020366003190112610164576101609161014d9082906001600160a01b0361013f6117c1565b168152600360205220611863565b90519182916020835260208301906117ed565b0390f35b5080fd5b50346101645780600319360112610164576101a39060043561019e600161018d6117d7565b938387528660205286200154611983565b611a27565b5080f35b5034610164576020366003190112610164576102339181906001600160a01b036101cf6117c1565b1681526001602052206101e181611863565b9161025c6101f160018401611863565b9161024e61020160028601611863565b9161020e60038701611863565b92610241600760ff60068a0154169801549683519a8b9a60c08c5260c08c01906117ed565b908a820360208c01526117ed565b91888303908901526117ed565b9085820360608701526117ed565b911515608084015260a08301520390f35b50346101645781600319360112610164576020906004549051908152f35b50346101645760203660031901126101645760066102a76117c1565b6102af611909565b6001600160a01b0316808452600160205291832001805460ff19169055600080516020611af98339815191528280a280f35b503461016457816003193601126101645751908152602090f35b503461016457806003193601126101645760ff8160209361031a6117d7565b60043582528186528282206001600160a01b039091168252855220549151911615158152f35b50346101645780600319360112610164576001600160401b03906004358281116104e25761037290369060040161171d565b916024358181116104de5761038b90369060040161171d565b923385526103c3602091600383526103af6103a886892054611829565b1515611ab3565b33875260056001958685528820019061179b565b9380519283116104ca576103d78554611829565b601f8111610491575b5081601f841160011461042e57509282939183928794610423575b50501b916000199060031b1c19161790555b33600080516020611af98339815191528280a280f35b0151925038806103fb565b919083601f1981168789528489209489905b88838310610477575050501061045e575b505050811b01905561040d565b015160001960f88460031b161c19169055388080610451565b858701518855909601959485019487935090810190610440565b6104ba90868852838820601f860160051c8101918587106104c0575b601f0160051c0190611a9c565b386103e0565b90915081906104ad565b634e487b7160e01b86526041600452602486fd5b8480fd5b8380fd5b50346101645780600319360112610164576104ff6117c1565b6024356001600160401b0381116104e25761014d916005846101609661052c61054695369060040161171d565b6001600160a01b039094168152600160205220019061179b565b611863565b5034610164578160031936011261016457602090517fa49807205ce4d355092ef5a8a18f56e8913cf4a201fbe287825b095693c217758152f35b50346101645781600319360112610164578051908082018281106001600160401b038211176105e45761016093508152601082526f05ce0e4dedeccdecccededec85ccae8d60831b6020830152519182916020835260208301906117ed565b634e487b7160e01b84526041600452602484fd5b5034610164576080366003190112610164576004356001600160401b038111610c295761062990369060040161171d565b6024356001600160401b0381116104e25761064890369060040161171d565b906044356001600160401b0381116104de5761066890369060040161171d565b606435926001600160401b038411610c255736602385011215610c255783600401359461069486611812565b946106a1825196876116e6565b868652602086019660051b810160240187368211610c215760248301905b828210610bee575050505033875260036020526106e16103a882892054611829565b33875260016020528620928051906001600160401b038211610bda57819061070c6001870154611829565b601f8111610ba7575b50602090601f8311600114610b38578992610b2d575b50508160011b916000199060031b1c19161760018401555b8051906001600160401b03821161094e5781906107636002860154611829565b601f8111610afa575b50602090601f8311600114610a8b578892610a80575b50508160011b916000199060031b1c19161760028301555b8051906001600160401b0382116104ca576107b86003840154611829565b601f8111610a4d575b50602090601f83116001146109dd5760049392918791836109d2575b50508160011b916000199060031b1c19161760038201555b019051916801000000000000000083116105e4578154838355808410610962575b509083526020832083915b83831061083f578433600080516020611af98339815191528280a280f35b80518051906001600160401b03821161094e5761085c8454611829565b601f811161091e575b50602090601f83116001146108b15792826001949360209386958b926108a6575b5050600019600383901b1c191690841b1785555b01920192019190610821565b015190503880610886565b908488526020882091885b601f1985168110610906575083602093600196938796938794601f198116106108ed575b505050811b01855561089a565b015160001960f88460031b161c191690553880806108e0565b919260206001819286850151815501940192016108bc565b6109489085895260208920601f850160051c810191602086106104c057601f0160051c0190611a9c565b38610865565b634e487b7160e01b87526041600452602487fd5b828552836020862091820191015b81811061097d5750610816565b808661098b60019354611829565b80610999575b505001610970565b601f811184146109ae575081555b8638610991565b8282526109c9601f60208420920160051c8201858301611a9c565b818355556109a7565b0151905038806107dd565b906003840187526020872091875b601f1985168110610a35575091839160019360049695601f19811610610a1c575b505050811b0160038201556107f5565b015160001960f88460031b161c19169055388080610a0c565b919260206001819286850151815501940192016109eb565b610a7a9060038501885260208820601f850160051c810191602086106104c057601f0160051c0190611a9c565b386107c1565b015190503880610782565b9250600285018852602088209088935b601f1984168510610adf576001945083601f19811610610ac6575b505050811b01600283015561079a565b015160001960f88460031b161c19169055388080610ab6565b81810151835560209485019460019093019290910190610a9b565b610b2790600287018a5260208a20601f850160051c810191602086106104c057601f0160051c0190611a9c565b3861076c565b01519050388061072b565b9250600186018952602089209089935b601f1984168510610b8c576001945083601f19811610610b73575b505050811b016001840155610743565b015160001960f88460031b161c19169055388080610b63565b81810151835560209485019460019093019290910190610b48565b610bd490600188018b5260208b20601f850160051c810191602086106104c057601f0160051c0190611a9c565b38610715565b634e487b7160e01b88526041600452602488fd5b81356001600160401b038111610c1d57602091610c1283926024369189010161171d565b8152019101906106bf565b8b80fd5b8980fd5b8580fd5b8280fd5b503461016457602036600319011261016457600435916001600160401b038311610c965750610c62602092369060040161171d565b82610c7583519283815193849201611778565b6002908201908152819003830190205490516001600160a01b039091168152f35b80fd5b50346101645760a036600319011261016457610cb36117c1565b906024356001600160401b0381116104e257610cd390369060040161171d565b906044356001600160401b0381116104de57610cf390369060040161171d565b6064356001600160401b038111610c2557610d1290369060040161171d565b936084356001600160401b0381116113f257610d3290369060040161171d565b90610d3b611909565b8351908551610d4e818460208a01611778565b82016002815282602060018060a01b039485930301902054166113ae5716948587526003602052610d8184882054611829565b61136a5785875260016020528387209285516001600160401b0381116112b757610dab8554611829565b601f811161133a575b50806020601f82116001146112d6578a916112cb575b508160011b916000199060031b1c19161784555b8051906001600160401b0382116112b7578190610dfe6001870154611829565b601f8111611284575b50602090601f8311600114611215578a9261120a575b50508160011b916000199060031b1c19161760018401555b8051906001600160401b038211610bda578190610e556002860154611829565b601f81116111d7575b50602090601f831160011461116857899261115d575b50508160011b916000199060031b1c19161760028301555b805160038301916001600160401b038211610bda578190610ead8454611829565b601f811161112d575b50602090601f83116001146110c95789926110be575b50508160011b916000199060031b1c19161790555b60068101600160ff1982541617905560074291015580516020818451610f0a8183858901611778565b81016002815203019020836bffffffffffffffffffffffff60a01b825416179055828452600360205280842082516001600160401b0381116104ca57610f508254611829565b601f811161108e575b50806020601f821160011461102c578791611021575b508160011b916000199060031b1c19161790555b600454600019811461100d57916110079160017f275b307ce57e576a97c47b72f753ace5d778d3554f89b6f7ca37ecf5e6b505dd9401600455847fbafddecbd1dec1c1afb76d693f1de16901f521bdf29a02438e3e6806c0b8d94882516020815280610ff260208201876117ed565b0390a2519182916020835260208301906117ed565b0390a280f35b634e487b7160e01b85526011600452602485fd5b905084015138610f6f565b838852602088209150601f198316885b8181106110765750908360019493921061105d575b5050811b019055610f83565b86015160001960f88460031b161c191690553880611051565b9192602060018192868b01518155019401920161103c565b6110b89083885260208820601f840160051c810191602085106104c057601f0160051c0190611a9c565b38610f59565b015190503880610ecc565b848a5260208a209250601f1984168a5b81811061111557509084600195949392106110fc575b505050811b019055610ee1565b015160001960f88460031b161c191690553880806110ef565b929360206001819287860151815501950193016110d9565b61115790858b5260208b20601f850160051c810191602086106104c057601f0160051c0190611a9c565b38610eb6565b015190503880610e74565b9250600285018952602089209089935b601f19841685106111bc576001945083601f198116106111a3575b505050811b016002830155610e8c565b015160001960f88460031b161c19169055388080611193565b81810151835560209485019460019093019290910190611178565b61120490600287018b5260208b20601f850160051c810191602086106104c057601f0160051c0190611a9c565b38610e5e565b015190503880610e1d565b9250600186018a5260208a20908a935b601f1984168510611269576001945083601f19811610611250575b505050811b016001840155610e35565b015160001960f88460031b161c19169055388080611240565b81810151835560209485019460019093019290910190611225565b6112b190600188018c5260208c20601f850160051c810191602086106104c057601f0160051c0190611a9c565b38610e07565b634e487b7160e01b89526041600452602489fd5b905087015138610dca565b9150858a5260208a208a925b601f1983168410611322576001935082601f19811610611309575b5050811b018455610dde565b89015160001960f88460031b161c1916905538806112fd565b898101518255602093840193600190920191016112e2565b61136490868b5260208b20601f840160051c810191602085106104c057601f0160051c0190611a9c565b38610db4565b835162461bcd60e51b815260206004820152601860248201527f5573657220616c7265616479206861732070726f66696c6500000000000000006044820152606490fd5b845162461bcd60e51b815260206004820152601760248201527f537562646f6d61696e20616c72656164792074616b656e0000000000000000006044820152606490fd5b8680fd5b503461016457806003193601126101645761140f6117d7565b90336001600160a01b0383160361142d57506101a390600435611a27565b5163334bd91960e11b8152600490fd5b50346101645760203660031901126101645760066114596117c1565b611461611909565b60018060a01b0316918284526001602052832001600160ff19825416179055600080516020611af98339815191528280a280f35b50346101645780600319360112610164576101a3906004356114ba600161018d6117d7565b6119a9565b50346101645760203660031901126101645760018160209360043581528085522001549051908152f35b5034610164576020366003190112610164576101609161014d9082906001600160a01b0361013f6117c1565b50346101645760209182600319360112610c96576001600160a01b036115396117c1565b168152600192838152828220600481019260ff6006830154169160078101549361156282611863565b9661156e898401611863565b92611587600361158060028401611863565b9201611863565b9888549461159486611812565b956115a1855197886116e6565b8087528c868801809c8a52878a208a915b848310611670575050505050926115e29a926115ef6115fc9361160a9684519e8f9260e0845260e08401906117ed565b91898184039101526117ed565b918c8303908d01526117ed565b9089820360608b01526117ed565b9187830360808901525191828152818101828460051b8301019794915b8483106116435789808a8a8a151560a084015260c08301520390f35b90919293949784806116608d93601f198682030187528c516117ed565b9a01930193019194939290611627565b838a8192611680859e9d9e611863565b8152019201920191909998996115b2565b8390346101645760203660031901126101645760043563ffffffff60e01b8116809103610c295760209250637965db0b60e01b81149081156116d5575b5015158152f35b6301ffc9a760e01b149050836116ce565b90601f801991011681019081106001600160401b0382111761170757604052565b634e487b7160e01b600052604160045260246000fd5b81601f82011215611773578035906001600160401b0382116117075760405192611751601f8401601f1916602001856116e6565b8284526020838301011161177357816000926020809301838601378301015290565b600080fd5b60005b83811061178b5750506000910152565b818101518382015260200161177b565b6020906117b5928260405194838680955193849201611778565b82019081520301902090565b600435906001600160a01b038216820361177357565b602435906001600160a01b038216820361177357565b9060209161180681518092818552858086019101611778565b601f01601f1916010190565b6001600160401b0381116117075760051b60200190565b90600182811c92168015611859575b602083101461184357565b634e487b7160e01b600052602260045260246000fd5b91607f1691611838565b906040519182600082549261187784611829565b9081845260019485811690816000146118e657506001146118a3575b50506118a1925003836116e6565b565b9093915060005260209081600020936000915b8183106118ce5750506118a193508201013880611893565b855488840185015294850194879450918301916118b6565b9150506118a194506020925060ff191682840152151560051b8201013880611893565b3360009081527f7d7ffb7a348e1c6a02869081a26547b49160dd3df72d1d75a570eb9b698292ec60205260409020547fa49807205ce4d355092ef5a8a18f56e8913cf4a201fbe287825b095693c217759060ff16156119655750565b6044906040519063e2517d3f60e01b82523360048301526024820152fd5b80600052600060205260406000203360005260205260ff60406000205416156119655750565b9060009180835282602052604083209160018060a01b03169182845260205260ff60408420541615600014611a2257808352826020526040832082845260205260408320600160ff198254161790557f2f8788117e7eff1d82e926ec794901d17c78024a50270940304540a733656f0d339380a4600190565b505090565b9060009180835282602052604083209160018060a01b03169182845260205260ff604084205416600014611a225780835282602052604083208284526020526040832060ff1981541690557ff6391f5c32d9c69d2a47ea670b442974b53935d1edc7fd64eb21e047a839171b339380a4600190565b818110611aa7575050565b60008155600101611a9c565b15611aba57565b60405162461bcd60e51b8152602060048201526016602482015275141c9bd99a5b1948191bd95cc81b9bdd08195e1a5cdd60521b6044820152606490fdfebe4ec58a792f909e102ee3d745d0c3b34a4d437a54d903c4db098d31c556422fa2646970667358221220a5989f13b990f998cc60fc97f5de3ed36301837a2b9b9a56d396d5c62a21007064736f6c634300081400332f8788117e7eff1d82e926ec794901d17c78024a50270940304540a733656f0d",
  "devdoc": {
    "errors": {
      "AccessControlBadConfirmation()": [
        {
          "details": "The caller of a function is not the expected one. NOTE: Don't confuse with {AccessControlUnauthorizedAccount}."
        }
      ],
      "AccessControlUnauthorizedAccount(address,bytes32)": [
        {
          "details": "The `account` is missing a role."
        }
      ]
    },
    "events": {
      "RoleAdminChanged(bytes32,bytes32,bytes32)": {
        "details": "Emitted when `newAdminRole` is set as ``role``'s admin role, replacing `previousAdminRole` `DEFAULT_ADMIN_ROLE` is the starting admin for all roles, despite {RoleAdminChanged} not being emitted to signal this."
      },
      "RoleGranted(bytes32,address,address)": {
        "details": "Emitted when `account` is granted `role`. `sender` is the account that originated the contract call. This account bears the admin role (for the granted role). Expected in cases where the role was granted using the internal {AccessControl-_grantRole}."
      },
      "RoleRevoked(bytes32,address,address)": {
        "details": "Emitted when `account` is revoked `role`. `sender` is the account that originated the contract call:   - if using `revokeRole`, it is the admin role bearer   - if using `renounceRole`, it is the role bearer (i.e. `account`)"
      }
    },
    "kind": "dev",
    "methods": {
      "getRoleAdmin(bytes32)": {
        "details": "Returns the admin role that controls `role`. See {grantRole} and {revokeRole}. To change a role's admin, use {_setRoleAdmin}."
      },
      "grantRole(bytes32,address)": {
        "details": "Grants `role` to `account`. If `account` had not been already granted `role`, emits a {RoleGranted} event. Requirements: - the caller must have ``role``'s admin role. May emit a {RoleGranted} event."
      },
      "hasRole(bytes32,address)": {
        "details": "Returns `true` if `account` has been granted `role`."
      },
      "renounceRole(bytes32,address)": {
        "details": "Revokes `role` from the calling account. Roles are often managed via {grantRole} and {revokeRole}: this function's purpose is to provide a mechanism for accounts to lose their privileges if they are compromised (such as when a trusted device is misplaced). If the calling account had been revoked `role`, emits a {RoleRevoked} event. Requirements: - the caller must be `callerConfirmation`. May emit a {RoleRevoked} event."
      },
      "revokeRole(bytes32,address)": {
        "details": "Revokes `role` from `account`. If `account` had been granted `role`, emits a {RoleRevoked} event. Requirements: - the caller must have ``role``'s admin role. May emit a {RoleRevoked} event."
      },
      "supportsInterface(bytes4)": {
        "details": "Returns true if this contract implements the interface defined by `interfaceId`. See the corresponding https://eips.ethereum.org/EIPS/eip-165#how-interfaces-are-identified[ERC section] to learn more about how these ids are created. This function call must use less than 30 000 gas."
      }
    },
    "version": 1
  },
  "userdoc": {
    "kind": "user",
    "methods": {},
    "version": 1
  },
  "storageLayout": {
    "storage": [
      {
        "astId": 27,
        "contract": "contracts/ENSProfileManager.sol:ENSProfileManager",
        "label": "_roles",
        "offset": 0,
        "slot": "0",
        "type": "t_mapping(t_bytes32,t_struct(RoleData)22_storage)"
      },
      {
        "astId": 9653,
        "contract": "contracts/ENSProfileManager.sol:ENSProfileManager",
        "label": "profiles",
        "offset": 0,
        "slot": "1",
        "type": "t_mapping(t_address,t_struct(Profile)9648_storage)"
      },
      {
        "astId": 9657,
        "contract": "contracts/ENSProfileManager.sol:ENSProfileManager",
        "label": "subdomainToAddress",
        "offset": 0,
        "slot": "2",
        "type": "t_mapping(t_string_memory_ptr,t_address)"
      },
      {
        "astId": 9661,
        "contract": "contracts/ENSProfileManager.sol:ENSProfileManager",
        "label": "addressToSubdomain",
        "offset": 0,
        "slot": "3",
        "type": "t_mapping(t_address,t_string_storage)"
      },
      {
        "astId": 9666,
        "contract": "contracts/ENSProfileManager.sol:ENSProfileManager",
        "label": "_profileCounter",
        "offset": 0,
        "slot": "4",
        "type": "t_uint256"
      }
    ],
    "types": {
      "t_address": {
        "encoding": "inplace",
        "label": "address",
        "numberOfBytes": "20"
      },
      "t_array(t_string_storage)dyn_storage": {
        "base": "t_string_storage",
        "encoding": "dynamic_array",
        "label": "string[]",
        "numberOfBytes": "32"
      },
      "t_bool": {
        "encoding": "inplace",
        "label": "bool",
        "numberOfBytes": "1"
      },
      "t_bytes32": {
        "encoding": "inplace",
        "label": "bytes32",
        "numberOfBytes": "32"
      },
      "t_mapping(t_address,t_bool)": {
        "encoding": "mapping",
        "key": "t_address",
        "label": "mapping(address => bool)",
        "numberOfBytes": "32",
        "value": "t_bool"
      },
      "t_mapping(t_address,t_string_storage)": {
        "encoding": "mapping",
        "key": "t_address",
        "label": "mapping(address => string)",
        "numberOfBytes": "32",
        "value": "t_string_storage"
      },
      "t_mapping(t_address,t_struct(Profile)9648_storage)": {
        "encoding": "mapping",
        "key": "t_address",
        "label": "mapping(address => struct ENSProfileManager.Profile)",
        "numberOfBytes": "32",
        "value": "t_struct(Profile)9648_storage"
      },
      "t_mapping(t_bytes32,t_struct(RoleData)22_storage)": {
        "encoding": "mapping",
        "key": "t_bytes32",
        "label": "mapping(bytes32 => struct AccessControl.RoleData)",
        "numberOfBytes": "32",
        "value": "t_struct(RoleData)22_storage"
      },
      "t_mapping(t_string_memory_ptr,t_address)": {
        "encoding": "mapping",
        "key": "t_string_memory_ptr",
        "label": "mapping(string => address)",
        "numberOfBytes": "32",
        "value": "t_address"
      },
      "t_mapping(t_string_memory_ptr,t_string_storage)": {
        "encoding": "mapping",
        "key": "t_string_memory_ptr",
        "label": "mapping(string => string)",
        "numberOfBytes": "32",
        "value": "t_string_storage"
      },
      "t_string_memory_ptr": {
        "encoding": "bytes",
        "label": "string",
        "numberOfBytes": "32"
      },
      "t_string_storage": {
        "encoding": "bytes",
        "label": "string",
        "numberOfBytes": "32"
      },
      "t_struct(Profile)9648_storage": {
        "encoding": "inplace",
        "label": "struct ENSProfileManager.Profile",
        "members": [
          {
            "astId": 9630,
            "contract": "contracts/ENSProfileManager.sol:ENSProfileManager",
            "label": "ensSubdomain",
            "offset": 0,
            "slot": "0",
            "type": "t_string_storage"
          },
          {
            "astId": 9632,
            "contract": "contracts/ENSProfileManager.sol:ENSProfileManager",
            "label": "displayName",
            "offset": 0,
            "slot": "1",
            "type": "t_string_storage"
          },
          {
            "astId": 9634,
            "contract": "contracts/ENSProfileManager.sol:ENSProfileManager",
            "label": "bio",
            "offset": 0,
            "slot": "2",
            "type": "t_string_storage"
          },
          {
            "astId": 9636,
            "contract": "contracts/ENSProfileManager.sol:ENSProfileManager",
            "label": "avatar",
            "offset": 0,
            "slot": "3",
            "type": "t_string_storage"
          },
          {
            "astId": 9639,
            "contract": "contracts/ENSProfileManager.sol:ENSProfileManager",
            "label": "socialLinks",
            "offset": 0,
            "slot": "4",
            "type": "t_array(t_string_storage)dyn_storage"
          },
          {
            "astId": 9643,
            "contract": "contracts/ENSProfileManager.sol:ENSProfileManager",
            "label": "customFields",
            "offset": 0,
            "slot": "5",
            "type": "t_mapping(t_string_memory_ptr,t_string_storage)"
          },
          {
            "astId": 9645,
            "contract": "contracts/ENSProfileManager.sol:ENSProfileManager",
            "label": "isActive",
            "offset": 0,
            "slot": "6",
            "type": "t_bool"
          },
          {
            "astId": 9647,
            "contract": "contracts/ENSProfileManager.sol:ENSProfileManager",
            "label": "createdAt",
            "offset": 0,
            "slot": "7",
            "type": "t_uint256"
          }
        ],
        "numberOfBytes": "256"
      },
      "t_struct(RoleData)22_storage": {
        "encoding": "inplace",
        "label": "struct AccessControl.RoleData",
        "members": [
          {
            "astId": 19,
            "contract": "contracts/ENSProfileManager.sol:ENSProfileManager",
            "label": "hasRole",
            "offset": 0,
            "slot": "0",
            "type": "t_mapping(t_address,t_bool)"
          },
          {
            "astId": 21,
            "contract": "contracts/ENSProfileManager.sol:ENSProfileManager",
            "label": "adminRole",
            "offset": 0,
            "slot": "1",
            "type": "t_bytes32"
          }
        ],
        "numberOfBytes": "64"
      },
      "t_uint256": {
        "encoding": "inplace",
        "label": "uint256",
        "numberOfBytes": "32"
      }
    }
  }
}