{
  "address": "0xB8DFe6094B8Fd55D8f1C4C4b6fA78c8dBC66133b",
  "abi": [
    {
      "inputs": [],
      "stateMutability": "nonpayable",
      "type": "constructor"
    },
    {
      "inputs": [],
      "name": "AccessControlBadConfirmation",
      "type": "error"
    },
    {
      "inputs": [
        {
          "internalType": "address",
          "name": "account",
          "type": "address"
        },
        {
          "internalType": "bytes32",
          "name": "neededRole",
          "type": "bytes32"
        }
      ],
      "name": "AccessControlUnauthorizedAccount",
      "type": "error"
    },
    {
      "inputs": [],
      "name": "ECDSAInvalidSignature",
      "type": "error"
    },
    {
      "inputs": [
        {
          "internalType": "uint256",
          "name": "length",
          "type": "uint256"
        }
      ],
      "name": "ECDSAInvalidSignatureLength",
      "type": "error"
    },
    {
      "inputs": [
        {
          "internalType": "bytes32",
          "name": "s",
          "type": "bytes32"
        }
      ],
      "name": "ECDSAInvalidSignatureS",
      "type": "error"
    },
    {
      "inputs": [],
      "name": "InvalidShortString",
      "type": "error"
    },
    {
      "inputs": [],
      "name": "ReentrancyGuardReentrantCall",
      "type": "error"
    },
    {
      "inputs": [
        {
          "internalType": "string",
          "name": "str",
          "type": "string"
        }
      ],
      "name": "StringTooLong",
      "type": "error"
    },
    {
      "anonymous": false,
      "inputs": [],
      "name": "EIP712DomainChanged",
      "type": "event"
    },
    {
      "anonymous": false,
      "inputs": [
        {
          "indexed": true,
          "internalType": "address",
          "name": "user",
          "type": "address"
        }
      ],
      "name": "GaslessEligibilityGranted",
      "type": "event"
    },
    {
      "anonymous": false,
      "inputs": [
        {
          "indexed": true,
          "internalType": "address",
          "name": "user",
          "type": "address"
        }
      ],
      "name": "GaslessEligibilityRevoked",
      "type": "event"
    },
    {
      "anonymous": false,
      "inputs": [
        {
          "indexed": true,
          "internalType": "address",
          "name": "userAddress",
          "type": "address"
        },
        {
          "indexed": true,
          "internalType": "address",
          "name": "relayerAddress",
          "type": "address"
        },
        {
          "indexed": false,
          "internalType": "bytes",
          "name": "functionSignature",
          "type": "bytes"
        }
      ],
      "name": "MetaTransactionExecuted",
      "type": "event"
    },
    {
      "anonymous": false,
      "inputs": [
        {
          "indexed": true,
          "internalType": "bytes32",
          "name": "role",
          "type": "bytes32"
        },
        {
          "indexed": true,
          "internalType": "bytes32",
          "name": "previousAdminRole",
          "type": "bytes32"
        },
        {
          "indexed": true,
          "internalType": "bytes32",
          "name": "newAdminRole",
          "type": "bytes32"
        }
      ],
      "name": "RoleAdminChanged",
      "type": "event"
    },
    {
      "anonymous": false,
      "inputs": [
        {
          "indexed": true,
          "internalType": "bytes32",
          "name": "role",
          "type": "bytes32"
        },
        {
          "indexed": true,
          "internalType": "address",
          "name": "account",
          "type": "address"
        },
        {
          "indexed": true,
          "internalType": "address",
          "name": "sender",
          "type": "address"
        }
      ],
      "name": "RoleGranted",
      "type": "event"
    },
    {
      "anonymous": false,
      "inputs": [
        {
          "indexed": true,
          "internalType": "bytes32",
          "name": "role",
          "type": "bytes32"
        },
        {
          "indexed": true,
          "internalType": "address",
          "name": "account",
          "type": "address"
        },
        {
          "indexed": true,
          "internalType": "address",
          "name": "sender",
          "type": "address"
        }
      ],
      "name": "RoleRevoked",
      "type": "event"
    },
    {
      "inputs": [],
      "name": "ADMIN_ROLE",
      "outputs": [
        {
          "internalType": "bytes32",
          "name": "",
          "type": "bytes32"
        }
      ],
      "stateMutability": "view",
      "type": "function"
    },
    {
      "inputs": [],
      "name": "DEFAULT_ADMIN_ROLE",
      "outputs": [
        {
          "internalType": "bytes32",
          "name": "",
          "type": "bytes32"
        }
      ],
      "stateMutability": "view",
      "type": "function"
    },
    {
      "inputs": [],
      "name": "MAX_GASLESS_TRANSACTIONS",
      "outputs": [
        {
          "internalType": "uint256",
          "name": "",
          "type": "uint256"
        }
      ],
      "stateMutability": "view",
      "type": "function"
    },
    {
      "inputs": [],
      "name": "RELAYER_ROLE",
      "outputs": [
        {
          "internalType": "bytes32",
          "name": "",
          "type": "bytes32"
        }
      ],
      "stateMutability": "view",
      "type": "function"
    },
    {
      "inputs": [
        {
          "internalType": "address[]",
          "name": "users",
          "type": "address[]"
        }
      ],
      "name": "batchGrantGaslessEligibility",
      "outputs": [],
      "stateMutability": "nonpayable",
      "type": "function"
    },
    {
      "inputs": [],
      "name": "eip712Domain",
      "outputs": [
        {
          "internalType": "bytes1",
          "name": "fields",
          "type": "bytes1"
        },
        {
          "internalType": "string",
          "name": "name",
          "type": "string"
        },
        {
          "internalType": "string",
          "name": "version",
          "type": "string"
        },
        {
          "internalType": "uint256",
          "name": "chainId",
          "type": "uint256"
        },
        {
          "internalType": "address",
          "name": "verifyingContract",
          "type": "address"
        },
        {
          "internalType": "bytes32",
          "name": "salt",
          "type": "bytes32"
        },
        {
          "internalType": "uint256[]",
          "name": "extensions",
          "type": "uint256[]"
        }
      ],
      "stateMutability": "view",
      "type": "function"
    },
    {
      "inputs": [
        {
          "internalType": "address",
          "name": "userAddress",
          "type": "address"
        },
        {
          "internalType": "bytes",
          "name": "functionSignature",
          "type": "bytes"
        },
        {
          "internalType": "bytes32",
          "name": "sigR",
          "type": "bytes32"
        },
        {
          "internalType": "bytes32",
          "name": "sigS",
          "type": "bytes32"
        },
        {
          "internalType": "uint8",
          "name": "sigV",
          "type": "uint8"
        }
      ],
      "name": "executeMetaTransaction",
      "outputs": [
        {
          "internalType": "bytes",
          "name": "",
          "type": "bytes"
        }
      ],
      "stateMutability": "nonpayable",
      "type": "function"
    },
    {
      "inputs": [
        {
          "internalType": "address",
          "name": "",
          "type": "address"
        }
      ],
      "name": "gaslessTransactionCount",
      "outputs": [
        {
          "internalType": "uint256",
          "name": "",
          "type": "uint256"
        }
      ],
      "stateMutability": "view",
      "type": "function"
    },
    {
      "inputs": [],
      "name": "getChainID",
      "outputs": [
        {
          "internalType": "uint256",
          "name": "",
          "type": "uint256"
        }
      ],
      "stateMutability": "view",
      "type": "function"
    },
    {
      "inputs": [],
      "name": "getDomainSeparator",
      "outputs": [
        {
          "internalType": "bytes32",
          "name": "",
          "type": "bytes32"
        }
      ],
      "stateMutability": "view",
      "type": "function"
    },
    {
      "inputs": [
        {
          "internalType": "address",
          "name": "user",
          "type": "address"
        }
      ],
      "name": "getNonce",
      "outputs": [
        {
          "internalType": "uint256",
          "name": "",
          "type": "uint256"
        }
      ],
      "stateMutability": "view",
      "type": "function"
    },
    {
      "inputs": [
        {
          "internalType": "address",
          "name": "user",
          "type": "address"
        }
      ],
      "name": "getRemainingGaslessTransactions",
      "outputs": [
        {
          "internalType": "uint256",
          "name": "",
          "type": "uint256"
        }
      ],
      "stateMutability": "view",
      "type": "function"
    },
    {
      "inputs": [
        {
          "internalType": "bytes32",
          "name": "role",
          "type": "bytes32"
        }
      ],
      "name": "getRoleAdmin",
      "outputs": [
        {
          "internalType": "bytes32",
          "name": "",
          "type": "bytes32"
        }
      ],
      "stateMutability": "view",
      "type": "function"
    },
    {
      "inputs": [
        {
          "internalType": "address",
          "name": "user",
          "type": "address"
        }
      ],
      "name": "grantGaslessEligibility",
      "outputs": [],
      "stateMutability": "nonpayable",
      "type": "function"
    },
    {
      "inputs": [
        {
          "internalType": "bytes32",
          "name": "role",
          "type": "bytes32"
        },
        {
          "internalType": "address",
          "name": "account",
          "type": "address"
        }
      ],
      "name": "grantRole",
      "outputs": [],
      "stateMutability": "nonpayable",
      "type": "function"
    },
    {
      "inputs": [
        {
          "internalType": "bytes32",
          "name": "role",
          "type": "bytes32"
        },
        {
          "internalType": "address",
          "name": "account",
          "type": "address"
        }
      ],
      "name": "hasRole",
      "outputs": [
        {
          "internalType": "bool",
          "name": "",
          "type": "bool"
        }
      ],
      "stateMutability": "view",
      "type": "function"
    },
    {
      "inputs": [
        {
          "internalType": "address",
          "name": "",
          "type": "address"
        }
      ],
      "name": "isGaslessEligible",
      "outputs": [
        {
          "internalType": "bool",
          "name": "",
          "type": "bool"
        }
      ],
      "stateMutability": "view",
      "type": "function"
    },
    {
      "inputs": [
        {
          "internalType": "address",
          "name": "",
          "type": "address"
        }
      ],
      "name": "nonces",
      "outputs": [
        {
          "internalType": "uint256",
          "name": "",
          "type": "uint256"
        }
      ],
      "stateMutability": "view",
      "type": "function"
    },
    {
      "inputs": [
        {
          "internalType": "bytes32",
          "name": "role",
          "type": "bytes32"
        },
        {
          "internalType": "address",
          "name": "callerConfirmation",
          "type": "address"
        }
      ],
      "name": "renounceRole",
      "outputs": [],
      "stateMutability": "nonpayable",
      "type": "function"
    },
    {
      "inputs": [
        {
          "internalType": "address",
          "name": "user",
          "type": "address"
        }
      ],
      "name": "resetGaslessCount",
      "outputs": [],
      "stateMutability": "nonpayable",
      "type": "function"
    },
    {
      "inputs": [
        {
          "internalType": "address",
          "name": "user",
          "type": "address"
        }
      ],
      "name": "revokeGaslessEligibility",
      "outputs": [],
      "stateMutability": "nonpayable",
      "type": "function"
    },
    {
      "inputs": [
        {
          "internalType": "bytes32",
          "name": "role",
          "type": "bytes32"
        },
        {
          "internalType": "address",
          "name": "account",
          "type": "address"
        }
      ],
      "name": "revokeRole",
      "outputs": [],
      "stateMutability": "nonpayable",
      "type": "function"
    },
    {
      "inputs": [
        {
          "internalType": "bytes4",
          "name": "interfaceId",
          "type": "bytes4"
        }
      ],
      "name": "supportsInterface",
      "outputs": [
        {
          "internalType": "bool",
          "name": "",
          "type": "bool"
        }
      ],
      "stateMutability": "view",
      "type": "function"
    }
  ],
  "transactionHash": "0x89d8df57c47a179b40dc4ce9022a9075cb54da00d79c14ac899aa447d2c5f578",
  "args": [],
  "numDeployments": 1,
  "solcInputHash": "fa9b6b3c5b8f5adfe51df92ed6f57f7a",
  "bytecode": "0x610160604090808252346200017d57620000198162000182565b6010815260208101906f4d6574615472616e73616374696f6e7360801b8252825192620000468462000182565b6001845260208401603160f81b8152620000608362000360565b93610120948552620000728662000533565b93610140948552519020948560e05251902093610100948086524660a05282519060208201927f8b73c3c69bb8fe3d512ecc4cf759cc79239f7b179b0ffacaa9a75d522b39400f84528483015260608201524660808201523060a082015260a0815260c0810181811060018060401b03821117620001675783525190206080523060c052600160035562000106336200019e565b5062000112336200021f565b506200011e33620002c2565b5051916113999384620006e18539608051846111f9015260a051846112c5015260c051846111c3015260e051846112480152518361126e015251826103d0015251816103fa0152f35b634e487b7160e01b600052604160045260246000fd5b600080fd5b604081019081106001600160401b038211176200016757604052565b6001600160a01b031660008181527fac33ff75c19e70fe83507db0d683fd3465c996598dc972688b7ace676c89077b602052604081205490919060ff166200021b5781805260026020526040822081835260205260408220600160ff19825416179055339160008051602062001a7a8339815191528180a4600190565b5090565b6001600160a01b031660008181527fe5ebfa64fca8d502a8e50c1edffd2c31ef4dad5b396e65d9f397fb028f74abc560205260408120549091907fa49807205ce4d355092ef5a8a18f56e8913cf4a201fbe287825b095693c217759060ff16620002bd5780835260026020526040832082845260205260408320600160ff1982541617905560008051602062001a7a833981519152339380a4600190565b505090565b6001600160a01b031660008181527f4b91538963c32b740164d2d906bc8a6f8c763bc558d1da61d4e306ed7651eca260205260408120549091907fe2b7fb3b832174769106daebcfd6d1970523240dda11281102db9363b83b0dc49060ff16620002bd5780835260026020526040832082845260205260408320600160ff1982541617905560008051602062001a7a833981519152339380a4600190565b80516020919082811015620003ff575090601f8251116200039e57808251920151908083106200038f57501790565b82600019910360031b1b161790565b90604051809263305a27a960e01b82528060048301528251908160248401526000935b828510620003e5575050604492506000838284010152601f80199101168101030190fd5b8481018201518686016044015293810193859350620003c1565b6001600160401b03811162000167576000928354926001938481811c9116801562000528575b838210146200051457601f8111620004de575b5081601f841160011462000477575092829391839286946200046b575b50501b916000199060031b1c191617905560ff90565b01519250388062000455565b919083601f1981168780528488209488905b88838310620004c35750505010620004a9575b505050811b01905560ff90565b015160001960f88460031b161c191690553880806200049c565b85870151885590960195948501948793509081019062000489565b85805284601f848820920160051c820191601f860160051c015b8281106200050857505062000438565b878155018590620004f8565b634e487b7160e01b86526022600452602486fd5b90607f169062000425565b805160209081811015620005c15750601f8251116200056057808251920151908083106200038f57501790565b90604051809263305a27a960e01b82528060048301528251908160248401526000935b828510620005a7575050604492506000838284010152601f80199101168101030190fd5b848101820151868601604401529381019385935062000583565b9192916001600160401b038111620001675760019182548381811c91168015620006d5575b82821014620006bf57601f811162000686575b5080601f8311600114620006395750819293946000926200062d575b5050600019600383901b1c191690821b17905560ff90565b01519050388062000615565b90601f198316958460005282600020926000905b8882106200066e5750508385969710620004a957505050811b01905560ff90565b8087859682949686015181550195019301906200064d565b8360005283601f83600020920160051c820191601f850160051c015b828110620006b2575050620005f9565b60008155018490620006a2565b634e487b7160e01b600052602260045260246000fd5b90607f1690620005e656fe608060408181526004918236101561001657600080fd5b600092833560e01c91826301ffc9a714610bba575081630c53c51c1461078d5781631a5e7de514610767578163248a9ca31461073c578163262019ff146107205781632d0335ab1461050e5781632f2ff15d146106f657816336568abe146106b057816337e2e1f11461063c57838263553e57df1461060057508163564b81ef146105e55781637277acc71461057f57816375b238fc146105445781637ecebe001461050e5781637eee561a146104d657816384b0196e146103b85781638ec4491b1461037a57816391d1485414610333578163926d7d7f146102f8578163976bc8d2146101a9578163a217fddf1461018e578163d547741f1461014a575063ed24911d1461012457600080fd5b3461014657816003193601126101465760209061013f6111c0565b9051908152f35b5080fd5b9190503461018a578060031936011261018a576101869135610181600161016f610c28565b93838752600260205286200154610d70565b610e16565b5080f35b8280fd5b50503461014657816003193601126101465751908152602090f35b9190503461018a57602091826003193601126102f45780359167ffffffffffffffff918284116102f057366023850112156102f057838101359283116102dd575060059282841b8251936101ff87830186610c70565b8452602486850191830101913683116102d957602401905b8282106102b657505050610229610cf6565b845b82518110156102b2576102ad906001600160a01b038061024b83876112eb565b51168852858752838820805460ff191660011790558061026b83876112eb565b5116885260068752878481205561028282866112eb565b51167f092f367eaadbff1e4865ad6a633d7bde5b87319b15bc2a9c10d9668c8ac6658b8880a2611086565b61022b565b8580f35b81356001600160a01b03811681036102d5578152908601908601610217565b8880fd5b8780fd5b634e487b7160e01b865260419052602485fd5b8580fd5b8380fd5b505034610146578160031936011261014657602090517fe2b7fb3b832174769106daebcfd6d1970523240dda11281102db9363b83b0dc48152f35b90503461018a578160031936011261018a578160209360ff92610354610c28565b90358252600286528282206001600160a01b039091168252855220549151911615158152f35b5050346101465760203660031901126101465760209160ff9082906001600160a01b036103a5610c0d565b1681526005855220541690519015158152f35b9190503461018a578260031936011261018a576103f47f0000000000000000000000000000000000000000000000000000000000000000610e8d565b9261041e7f0000000000000000000000000000000000000000000000000000000000000000610fb3565b908251926020928385019585871067ffffffffffffffff8811176104c35750928061047983889661046c998b9996528686528151998a99600f60f81b8b5260e0868c015260e08b0190610cd1565b91898303908a0152610cd1565b924660608801523060808801528460a088015286840360c088015251928381520193925b8281106104ac57505050500390f35b83518552869550938101939281019260010161049d565b634e487b7160e01b845260419052602483fd5b5050346101465760203660031901126101465760209181906001600160a01b036104fe610c0d565b1681526006845220549051908152f35b90503461018a57602036600319011261018a5760209282916001600160a01b03610536610c0d565b168252845220549051908152f35b505034610146578160031936011261014657602090517fa49807205ce4d355092ef5a8a18f56e8913cf4a201fbe287825b095693c217758152f35b5050346101465760203660031901126101465761059a610c0d565b6105a2610cf6565b6001600160a01b03168083526005602052908220805460ff191690557f2a879e8fe4f391b6801cb98cc73783a4f9184e23cfdcc8f905ce8de46fc0c8518280a280f35b50503461014657816003193601126101465760209051468152f35b8084346106395760203660031901126106395761061b610c0d565b610623610cf6565b6001600160a01b03168252600660205281205580f35b50fd5b5050346101465760203660031901126101465781610658610c0d565b610660610cf6565b6001600160a01b031680825260056020908152838320805460ff1916600117905560069052918120557f092f367eaadbff1e4865ad6a633d7bde5b87319b15bc2a9c10d9668c8ac6658b8280a280f35b8383346101465780600319360112610146576106ca610c28565b90336001600160a01b038316036106e75750610186919235610e16565b5163334bd91960e11b81528390fd5b9190503461018a578060031936011261018a57610186913561071b600161016f610c28565b610d96565b5050346101465781600319360112610146576020905160058152f35b90503461018a57602036600319011261018a5781602093600192358152600285522001549051908152f35b5050346101465760203660031901126101465760209061013f610788610c0d565b611315565b9190503461018a5760a036600319011261018a576107a9610c0d565b91602480359367ffffffffffffffff90818611610bb65736602387011215610bb65785840135916107d983610c92565b906107e687519283610c70565b83825288602098898401953688828401011161018a5780888c930188378401015260843560ff81168103610bb2577fe2b7fb3b832174769106daebcfd6d1970523240dda11281102db9363b83b0dc4808b5260028a52888b20338c528a5260ff898c20541615610b955750600260035414610b8557600260035560018060a01b039081851692838c5260058b5260ff8a8d20541615610b3057838c5260068b5260058a8d20541015610af557838c52888b52898c2054908a516060810181811083821117610ae3578791878f8f938452868352820152015285518820908b51918d8301937f23d10def3caacba2e4042e0c75d44a42d2558aabcf5ce951d0642a8032e1e65385528d84015286606084015260808301526080825260a082019082821090821117610ad157926109589261094f928796958e525190206109296111c0565b908d519161190160f01b83526002830152602282015260643591604260443592206110ab565b9092919261113b565b1603610a9b5791610a0b60348a95938a86889788528a82528b882061097d8154611086565b9055808852600682528b88206109938154611086565b90557f5845892132946850460bff5a0083f71031bc5bf9aadcd40f1de79423eac9b10b8c51838152806109c93395820187610cd1565b0390a389519384916109e38d840197889251928391610cae565b8201906bffffffffffffffffffffffff199060601b168c820152036014810184520182610c70565b519082305af13d15610a92573d610a2181610c92565b90610a2e86519283610c70565b81528096863d92013e5b15610a5b575050610a5790600160035551928284938452830190610cd1565b0390f35b60649360149293519362461bcd60e51b855284015282015273119d5b98dd1a5bdb8818d85b1b0819985a5b195960621b6044820152fd5b60609550610a38565b865162461bcd60e51b815280870189905260118187015270496e76616c6964207369676e617475726560781b6044820152606490fd5b634e487b7160e01b8e5260418b52898efd5b634e487b7160e01b8f5260418c528a8ffd5b895162461bcd60e51b8152808a018c90526016818a01527511d85cdb195cdcc81b1a5b5a5d08195e18d95959195960521b6044820152606490fd5b895162461bcd60e51b8152808a018c9052602a818a01527f55736572206e6f7420656c696769626c6520666f72206761736c657373207472604482015269616e73616374696f6e7360b01b6064820152608490fd5b8751633ee5aeb560e01b81528790fd5b885163e2517d3f60e01b815233818a015280880191909152604490fd5b8980fd5b8680fd5b84913461018a57602036600319011261018a573563ffffffff60e01b811680910361018a5760209250637965db0b60e01b8114908115610bfc575b5015158152f35b6301ffc9a760e01b14905083610bf5565b600435906001600160a01b0382168203610c2357565b600080fd5b602435906001600160a01b0382168203610c2357565b6040810190811067ffffffffffffffff821117610c5a57604052565b634e487b7160e01b600052604160045260246000fd5b90601f8019910116810190811067ffffffffffffffff821117610c5a57604052565b67ffffffffffffffff8111610c5a57601f01601f191660200190565b60005b838110610cc15750506000910152565b8181015183820152602001610cb1565b90602091610cea81518092818552858086019101610cae565b601f01601f1916010190565b3360009081527fe5ebfa64fca8d502a8e50c1edffd2c31ef4dad5b396e65d9f397fb028f74abc560205260409020547fa49807205ce4d355092ef5a8a18f56e8913cf4a201fbe287825b095693c217759060ff1615610d525750565b6044906040519063e2517d3f60e01b82523360048301526024820152fd5b80600052600260205260406000203360005260205260ff6040600020541615610d525750565b906000918083526002602052604083209160018060a01b03169182845260205260ff60408420541615600014610e115780835260026020526040832082845260205260408320600160ff198254161790557f2f8788117e7eff1d82e926ec794901d17c78024a50270940304540a733656f0d339380a4600190565b505090565b906000918083526002602052604083209160018060a01b03169182845260205260ff604084205416600014610e11578083526002602052604083208284526020526040832060ff1981541690557ff6391f5c32d9c69d2a47ea670b442974b53935d1edc7fd64eb21e047a839171b339380a4600190565b60ff8114610ecb5760ff811690601f8211610eb95760405191610eaf83610c3e565b8252602082015290565b604051632cd44ac360e21b8152600490fd5b506040516000805490600182811c90808416938415610fa9575b6020948584108114610f955783875286949392918115610f755750600114610f19575b5050610f1692500382610c70565b90565b60008080527f290decd9548b62a8d60345a988386fc84ba6bc95484008f6362f93160ef3e56395935091905b818310610f5d575050610f1693508201013880610f08565b85548784018501529485019486945091830191610f45565b915050610f1694925060ff191682840152151560051b8201013880610f08565b634e487b7160e01b85526022600452602485fd5b91607f1691610ee5565b60ff8114610fd55760ff811690601f8211610eb95760405191610eaf83610c3e565b50604051600060019081549182811c9080841693841561107c575b6020948584108114610f955783875286949392918115610f755750600114611020575050610f1692500382610c70565b60008181527fb10e2d527612073b26eecdfd717e6a320cf44b4afac2b0732d9fcbe2b7fa0cf695935091905b818310611064575050610f1693508201013880610f08565b8554878401850152948501948694509183019161104c565b91607f1691610ff0565b60001981146110955760010190565b634e487b7160e01b600052601160045260246000fd5b91907f7fffffffffffffffffffffffffffffff5d576e7357a4501ddfe92f46681b20a0841161112f57926020929160ff608095604051948552168484015260408301526060820152600092839182805260015afa156111235780516001600160a01b0381161561111a57918190565b50809160019190565b604051903d90823e3d90fd5b50505060009160039190565b60048110156111aa578061114d575050565b600181036111675760405163f645eedf60e01b8152600490fd5b600281036111885760405163fce698f760e01b815260048101839052602490fd5b6003146111925750565b602490604051906335e2f38360e21b82526004820152fd5b634e487b7160e01b600052602160045260246000fd5b307f00000000000000000000000000000000000000000000000000000000000000006001600160a01b031614806112c2575b1561121b577f000000000000000000000000000000000000000000000000000000000000000090565b60405160208101907f8b73c3c69bb8fe3d512ecc4cf759cc79239f7b179b0ffacaa9a75d522b39400f82527f000000000000000000000000000000000000000000000000000000000000000060408201527f000000000000000000000000000000000000000000000000000000000000000060608201524660808201523060a082015260a0815260c0810181811067ffffffffffffffff821117610c5a5760405251902090565b507f000000000000000000000000000000000000000000000000000000000000000046146111f2565b80518210156112ff5760209160051b010190565b634e487b7160e01b600052603260045260246000fd5b6001600160a01b031660009081526005602052604081205460ff1615610f165760066020526040812054600503906005821161134f575090565b634e487b7160e01b81526011600452602490fdfea26469706673582212206454355b1fdfaf4f089a27c21518c1c04538ff97958ead1761d1253ca47560ac64736f6c634300081400332f8788117e7eff1d82e926ec794901d17c78024a50270940304540a733656f0d",
  "devdoc": {
    "errors": {
      "AccessControlBadConfirmation()": [
        {
          "details": "The caller of a function is not the expected one. NOTE: Don't confuse with {AccessControlUnauthorizedAccount}."
        }
      ],
      "AccessControlUnauthorizedAccount(address,bytes32)": [
        {
          "details": "The `account` is missing a role."
        }
      ],
      "ECDSAInvalidSignature()": [
        {
          "details": "The signature derives the `address(0)`."
        }
      ],
      "ECDSAInvalidSignatureLength(uint256)": [
        {
          "details": "The signature has an invalid length."
        }
      ],
      "ECDSAInvalidSignatureS(bytes32)": [
        {
          "details": "The signature has an S value that is in the upper half order."
        }
      ],
      "ReentrancyGuardReentrantCall()": [
        {
          "details": "Unauthorized reentrant call."
        }
      ]
    },
    "events": {
      "EIP712DomainChanged()": {
        "details": "MAY be emitted to signal that the domain could have changed."
      },
      "RoleAdminChanged(bytes32,bytes32,bytes32)": {
        "details": "Emitted when `newAdminRole` is set as ``role``'s admin role, replacing `previousAdminRole` `DEFAULT_ADMIN_ROLE` is the starting admin for all roles, despite {RoleAdminChanged} not being emitted to signal this."
      },
      "RoleGranted(bytes32,address,address)": {
        "details": "Emitted when `account` is granted `role`. `sender` is the account that originated the contract call. This account bears the admin role (for the granted role). Expected in cases where the role was granted using the internal {AccessControl-_grantRole}."
      },
      "RoleRevoked(bytes32,address,address)": {
        "details": "Emitted when `account` is revoked `role`. `sender` is the account that originated the contract call:   - if using `revokeRole`, it is the admin role bearer   - if using `renounceRole`, it is the role bearer (i.e. `account`)"
      }
    },
    "kind": "dev",
    "methods": {
      "eip712Domain()": {
        "details": "returns the fields and values that describe the domain separator used by this contract for EIP-712 signature."
      },
      "getRoleAdmin(bytes32)": {
        "details": "Returns the admin role that controls `role`. See {grantRole} and {revokeRole}. To change a role's admin, use {_setRoleAdmin}."
      },
      "grantRole(bytes32,address)": {
        "details": "Grants `role` to `account`. If `account` had not been already granted `role`, emits a {RoleGranted} event. Requirements: - the caller must have ``role``'s admin role. May emit a {RoleGranted} event."
      },
      "hasRole(bytes32,address)": {
        "details": "Returns `true` if `account` has been granted `role`."
      },
      "renounceRole(bytes32,address)": {
        "details": "Revokes `role` from the calling account. Roles are often managed via {grantRole} and {revokeRole}: this function's purpose is to provide a mechanism for accounts to lose their privileges if they are compromised (such as when a trusted device is misplaced). If the calling account had been revoked `role`, emits a {RoleRevoked} event. Requirements: - the caller must be `callerConfirmation`. May emit a {RoleRevoked} event."
      },
      "revokeRole(bytes32,address)": {
        "details": "Revokes `role` from `account`. If `account` had been granted `role`, emits a {RoleRevoked} event. Requirements: - the caller must have ``role``'s admin role. May emit a {RoleRevoked} event."
      },
      "supportsInterface(bytes4)": {
        "details": "Returns true if this contract implements the interface defined by `interfaceId`. See the corresponding https://eips.ethereum.org/EIPS/eip-165#how-interfaces-are-identified[ERC section] to learn more about how these ids are created. This function call must use less than 30 000 gas."
      }
    },
    "version": 1
  },
  "userdoc": {
    "kind": "user",
    "methods": {},
    "version": 1
  },
  "storageLayout": {
    "storage": [
      {
        "astId": 4796,
        "contract": "contracts/MetaTransactions.sol:MetaTransactions",
        "label": "_nameFallback",
        "offset": 0,
        "slot": "0",
        "type": "t_string_storage"
      },
      {
        "astId": 4798,
        "contract": "contracts/MetaTransactions.sol:MetaTransactions",
        "label": "_versionFallback",
        "offset": 0,
        "slot": "1",
        "type": "t_string_storage"
      },
      {
        "astId": 27,
        "contract": "contracts/MetaTransactions.sol:MetaTransactions",
        "label": "_roles",
        "offset": 0,
        "slot": "2",
        "type": "t_mapping(t_bytes32,t_struct(RoleData)22_storage)"
      },
      {
        "astId": 2610,
        "contract": "contracts/MetaTransactions.sol:MetaTransactions",
        "label": "_status",
        "offset": 0,
        "slot": "3",
        "type": "t_uint256"
      },
      {
        "astId": 10078,
        "contract": "contracts/MetaTransactions.sol:MetaTransactions",
        "label": "nonces",
        "offset": 0,
        "slot": "4",
        "type": "t_mapping(t_address,t_uint256)"
      },
      {
        "astId": 10082,
        "contract": "contracts/MetaTransactions.sol:MetaTransactions",
        "label": "isGaslessEligible",
        "offset": 0,
        "slot": "5",
        "type": "t_mapping(t_address,t_bool)"
      },
      {
        "astId": 10086,
        "contract": "contracts/MetaTransactions.sol:MetaTransactions",
        "label": "gaslessTransactionCount",
        "offset": 0,
        "slot": "6",
        "type": "t_mapping(t_address,t_uint256)"
      }
    ],
    "types": {
      "t_address": {
        "encoding": "inplace",
        "label": "address",
        "numberOfBytes": "20"
      },
      "t_bool": {
        "encoding": "inplace",
        "label": "bool",
        "numberOfBytes": "1"
      },
      "t_bytes32": {
        "encoding": "inplace",
        "label": "bytes32",
        "numberOfBytes": "32"
      },
      "t_mapping(t_address,t_bool)": {
        "encoding": "mapping",
        "key": "t_address",
        "label": "mapping(address => bool)",
        "numberOfBytes": "32",
        "value": "t_bool"
      },
      "t_mapping(t_address,t_uint256)": {
        "encoding": "mapping",
        "key": "t_address",
        "label": "mapping(address => uint256)",
        "numberOfBytes": "32",
        "value": "t_uint256"
      },
      "t_mapping(t_bytes32,t_struct(RoleData)22_storage)": {
        "encoding": "mapping",
        "key": "t_bytes32",
        "label": "mapping(bytes32 => struct AccessControl.RoleData)",
        "numberOfBytes": "32",
        "value": "t_struct(RoleData)22_storage"
      },
      "t_string_storage": {
        "encoding": "bytes",
        "label": "string",
        "numberOfBytes": "32"
      },
      "t_struct(RoleData)22_storage": {
        "encoding": "inplace",
        "label": "struct AccessControl.RoleData",
        "members": [
          {
            "astId": 19,
            "contract": "contracts/MetaTransactions.sol:MetaTransactions",
            "label": "hasRole",
            "offset": 0,
            "slot": "0",
            "type": "t_mapping(t_address,t_bool)"
          },
          {
            "astId": 21,
            "contract": "contracts/MetaTransactions.sol:MetaTransactions",
            "label": "adminRole",
            "offset": 0,
            "slot": "1",
            "type": "t_bytes32"
          }
        ],
        "numberOfBytes": "64"
      },
      "t_uint256": {
        "encoding": "inplace",
        "label": "uint256",
        "numberOfBytes": "32"
      }
    }
  }
}