{
  "address": "0x33cf2681363b893219B7397C43fF45d5362638cA",
  "abi": [
    {
      "inputs": [],
      "stateMutability": "nonpayable",
      "type": "constructor"
    },
    {
      "inputs": [],
      "name": "AccessControlBadConfirmation",
      "type": "error"
    },
    {
      "inputs": [
        {
          "internalType": "address",
          "name": "account",
          "type": "address"
        },
        {
          "internalType": "bytes32",
          "name": "neededRole",
          "type": "bytes32"
        }
      ],
      "name": "AccessControlUnauthorizedAccount",
      "type": "error"
    },
    {
      "inputs": [],
      "name": "ReentrancyGuardReentrantCall",
      "type": "error"
    },
    {
      "anonymous": false,
      "inputs": [
        {
          "indexed": true,
          "internalType": "uint256",
          "name": "agreementId",
          "type": "uint256"
        },
        {
          "indexed": true,
          "internalType": "address",
          "name": "creator",
          "type": "address"
        }
      ],
      "name": "AgreementCreated",
      "type": "event"
    },
    {
      "anonymous": false,
      "inputs": [
        {
          "indexed": true,
          "internalType": "uint256",
          "name": "agreementId",
          "type": "uint256"
        }
      ],
      "name": "AgreementEnded",
      "type": "event"
    },
    {
      "anonymous": false,
      "inputs": [
        {
          "indexed": true,
          "internalType": "uint256",
          "name": "agreementId",
          "type": "uint256"
        },
        {
          "indexed": true,
          "internalType": "address",
          "name": "party",
          "type": "address"
        }
      ],
      "name": "AgreementJoined",
      "type": "event"
    },
    {
      "anonymous": false,
      "inputs": [
        {
          "indexed": true,
          "internalType": "uint256",
          "name": "challengeId",
          "type": "uint256"
        },
        {
          "indexed": true,
          "internalType": "address",
          "name": "commenter",
          "type": "address"
        },
        {
          "indexed": false,
          "internalType": "string",
          "name": "content",
          "type": "string"
        }
      ],
      "name": "ChallengeCommented",
      "type": "event"
    },
    {
      "anonymous": false,
      "inputs": [
        {
          "indexed": true,
          "internalType": "uint256",
          "name": "challengeId",
          "type": "uint256"
        },
        {
          "indexed": true,
          "internalType": "address",
          "name": "creator",
          "type": "address"
        },
        {
          "indexed": false,
          "internalType": "enum ProofOfGood.ChallengeType",
          "name": "challengeType",
          "type": "uint8"
        }
      ],
      "name": "ChallengeCreated",
      "type": "event"
    },
    {
      "anonymous": false,
      "inputs": [
        {
          "indexed": true,
          "internalType": "uint256",
          "name": "challengeId",
          "type": "uint256"
        }
      ],
      "name": "ChallengeEnded",
      "type": "event"
    },
    {
      "anonymous": false,
      "inputs": [
        {
          "indexed": true,
          "internalType": "uint256",
          "name": "challengeId",
          "type": "uint256"
        },
        {
          "indexed": true,
          "internalType": "address",
          "name": "participant",
          "type": "address"
        }
      ],
      "name": "ChallengeJoined",
      "type": "event"
    },
    {
      "anonymous": false,
      "inputs": [
        {
          "indexed": true,
          "internalType": "uint256",
          "name": "challengeId",
          "type": "uint256"
        },
        {
          "indexed": true,
          "internalType": "address",
          "name": "liker",
          "type": "address"
        }
      ],
      "name": "ChallengeLiked",
      "type": "event"
    },
    {
      "anonymous": false,
      "inputs": [
        {
          "indexed": true,
          "internalType": "address",
          "name": "user",
          "type": "address"
        },
        {
          "indexed": false,
          "internalType": "string",
          "name": "subdomain",
          "type": "string"
        }
      ],
      "name": "ENSSubdomainAssigned",
      "type": "event"
    },
    {
      "anonymous": false,
      "inputs": [
        {
          "indexed": true,
          "internalType": "uint256",
          "name": "challengeId",
          "type": "uint256"
        },
        {
          "indexed": true,
          "internalType": "address",
          "name": "participant",
          "type": "address"
        },
        {
          "indexed": false,
          "internalType": "string",
          "name": "proof",
          "type": "string"
        }
      ],
      "name": "ProofSubmitted",
      "type": "event"
    },
    {
      "anonymous": false,
      "inputs": [
        {
          "indexed": true,
          "internalType": "uint256",
          "name": "challengeId",
          "type": "uint256"
        },
        {
          "indexed": true,
          "internalType": "address",
          "name": "participant",
          "type": "address"
        },
        {
          "indexed": false,
          "internalType": "bool",
          "name": "verified",
          "type": "bool"
        }
      ],
      "name": "ProofVerified",
      "type": "event"
    },
    {
      "anonymous": false,
      "inputs": [
        {
          "indexed": true,
          "internalType": "uint256",
          "name": "challengeId",
          "type": "uint256"
        }
      ],
      "name": "RewardsDistributed",
      "type": "event"
    },
    {
      "anonymous": false,
      "inputs": [
        {
          "indexed": true,
          "internalType": "bytes32",
          "name": "role",
          "type": "bytes32"
        },
        {
          "indexed": true,
          "internalType": "bytes32",
          "name": "previousAdminRole",
          "type": "bytes32"
        },
        {
          "indexed": true,
          "internalType": "bytes32",
          "name": "newAdminRole",
          "type": "bytes32"
        }
      ],
      "name": "RoleAdminChanged",
      "type": "event"
    },
    {
      "anonymous": false,
      "inputs": [
        {
          "indexed": true,
          "internalType": "bytes32",
          "name": "role",
          "type": "bytes32"
        },
        {
          "indexed": true,
          "internalType": "address",
          "name": "account",
          "type": "address"
        },
        {
          "indexed": true,
          "internalType": "address",
          "name": "sender",
          "type": "address"
        }
      ],
      "name": "RoleGranted",
      "type": "event"
    },
    {
      "anonymous": false,
      "inputs": [
        {
          "indexed": true,
          "internalType": "bytes32",
          "name": "role",
          "type": "bytes32"
        },
        {
          "indexed": true,
          "internalType": "address",
          "name": "account",
          "type": "address"
        },
        {
          "indexed": true,
          "internalType": "address",
          "name": "sender",
          "type": "address"
        }
      ],
      "name": "RoleRevoked",
      "type": "event"
    },
    {
      "anonymous": false,
      "inputs": [
        {
          "indexed": true,
          "internalType": "address",
          "name": "follower",
          "type": "address"
        },
        {
          "indexed": true,
          "internalType": "address",
          "name": "followed",
          "type": "address"
        }
      ],
      "name": "UserFollowed",
      "type": "event"
    },
    {
      "inputs": [],
      "name": "ADMIN_ROLE",
      "outputs": [
        {
          "internalType": "bytes32",
          "name": "",
          "type": "bytes32"
        }
      ],
      "stateMutability": "view",
      "type": "function"
    },
    {
      "inputs": [],
      "name": "COMMUNITY_FUND_PERCENTAGE",
      "outputs": [
        {
          "internalType": "uint256",
          "name": "",
          "type": "uint256"
        }
      ],
      "stateMutability": "view",
      "type": "function"
    },
    {
      "inputs": [],
      "name": "DEFAULT_ADMIN_ROLE",
      "outputs": [
        {
          "internalType": "bytes32",
          "name": "",
          "type": "bytes32"
        }
      ],
      "stateMutability": "view",
      "type": "function"
    },
    {
      "inputs": [],
      "name": "PLATFORM_FEE_PERCENTAGE",
      "outputs": [
        {
          "internalType": "uint256",
          "name": "",
          "type": "uint256"
        }
      ],
      "stateMutability": "view",
      "type": "function"
    },
    {
      "inputs": [],
      "name": "VERIFIER_ROLE",
      "outputs": [
        {
          "internalType": "bytes32",
          "name": "",
          "type": "bytes32"
        }
      ],
      "stateMutability": "view",
      "type": "function"
    },
    {
      "inputs": [
        {
          "internalType": "address",
          "name": "",
          "type": "address"
        }
      ],
      "name": "addressToEnsSubdomain",
      "outputs": [
        {
          "internalType": "string",
          "name": "",
          "type": "string"
        }
      ],
      "stateMutability": "view",
      "type": "function"
    },
    {
      "inputs": [
        {
          "internalType": "uint256",
          "name": "",
          "type": "uint256"
        }
      ],
      "name": "agreements",
      "outputs": [
        {
          "internalType": "uint256",
          "name": "id",
          "type": "uint256"
        },
        {
          "internalType": "string",
          "name": "title",
          "type": "string"
        },
        {
          "internalType": "string",
          "name": "description",
          "type": "string"
        },
        {
          "internalType": "address",
          "name": "creator",
          "type": "address"
        },
        {
          "internalType": "uint256",
          "name": "stakeAmount",
          "type": "uint256"
        },
        {
          "internalType": "uint256",
          "name": "deadline",
          "type": "uint256"
        },
        {
          "internalType": "bool",
          "name": "agreementEnded",
          "type": "bool"
        },
        {
          "internalType": "uint256",
          "name": "totalStaked",
          "type": "uint256"
        }
      ],
      "stateMutability": "view",
      "type": "function"
    },
    {
      "inputs": [
        {
          "internalType": "address",
          "name": "user",
          "type": "address"
        },
        {
          "internalType": "string",
          "name": "subdomain",
          "type": "string"
        }
      ],
      "name": "assignENSSubdomain",
      "outputs": [],
      "stateMutability": "nonpayable",
      "type": "function"
    },
    {
      "inputs": [
        {
          "internalType": "uint256",
          "name": "",
          "type": "uint256"
        },
        {
          "internalType": "uint256",
          "name": "",
          "type": "uint256"
        }
      ],
      "name": "challengeComments",
      "outputs": [
        {
          "internalType": "address",
          "name": "commenter",
          "type": "address"
        },
        {
          "internalType": "string",
          "name": "content",
          "type": "string"
        },
        {
          "internalType": "uint256",
          "name": "timestamp",
          "type": "uint256"
        }
      ],
      "stateMutability": "view",
      "type": "function"
    },
    {
      "inputs": [
        {
          "internalType": "uint256",
          "name": "",
          "type": "uint256"
        },
        {
          "internalType": "address",
          "name": "",
          "type": "address"
        }
      ],
      "name": "challengeLikes",
      "outputs": [
        {
          "internalType": "bool",
          "name": "",
          "type": "bool"
        }
      ],
      "stateMutability": "view",
      "type": "function"
    },
    {
      "inputs": [
        {
          "internalType": "uint256",
          "name": "",
          "type": "uint256"
        }
      ],
      "name": "challengeLikesCount",
      "outputs": [
        {
          "internalType": "uint256",
          "name": "",
          "type": "uint256"
        }
      ],
      "stateMutability": "view",
      "type": "function"
    },
    {
      "inputs": [
        {
          "internalType": "uint256",
          "name": "",
          "type": "uint256"
        }
      ],
      "name": "challenges",
      "outputs": [
        {
          "internalType": "uint256",
          "name": "id",
          "type": "uint256"
        },
        {
          "internalType": "string",
          "name": "title",
          "type": "string"
        },
        {
          "internalType": "string",
          "name": "description",
          "type": "string"
        },
        {
          "internalType": "string",
          "name": "category",
          "type": "string"
        },
        {
          "internalType": "address",
          "name": "creator",
          "type": "address"
        },
        {
          "internalType": "enum ProofOfGood.ChallengeType",
          "name": "challengeType",
          "type": "uint8"
        },
        {
          "internalType": "enum ProofOfGood.ChallengeStatus",
          "name": "status",
          "type": "uint8"
        },
        {
          "internalType": "uint256",
          "name": "stakeAmount",
          "type": "uint256"
        },
        {
          "internalType": "uint256",
          "name": "deadline",
          "type": "uint256"
        },
        {
          "internalType": "uint256",
          "name": "maxParticipants",
          "type": "uint256"
        },
        {
          "internalType": "uint256",
          "name": "totalStaked",
          "type": "uint256"
        },
        {
          "internalType": "uint256",
          "name": "participantCount",
          "type": "uint256"
        },
        {
          "internalType": "bool",
          "name": "requiresFollow",
          "type": "bool"
        },
        {
          "internalType": "uint256",
          "name": "winnersCount",
          "type": "uint256"
        },
        {
          "internalType": "uint256",
          "name": "rewardPerWinner",
          "type": "uint256"
        },
        {
          "internalType": "bool",
          "name": "rewardsDistributed",
          "type": "bool"
        }
      ],
      "stateMutability": "view",
      "type": "function"
    },
    {
      "inputs": [
        {
          "internalType": "uint256",
          "name": "challengeId",
          "type": "uint256"
        },
        {
          "internalType": "string",
          "name": "content",
          "type": "string"
        }
      ],
      "name": "commentOnChallenge",
      "outputs": [],
      "stateMutability": "nonpayable",
      "type": "function"
    },
    {
      "inputs": [],
      "name": "communityFund",
      "outputs": [
        {
          "internalType": "uint256",
          "name": "",
          "type": "uint256"
        }
      ],
      "stateMutability": "view",
      "type": "function"
    },
    {
      "inputs": [
        {
          "internalType": "string",
          "name": "title",
          "type": "string"
        },
        {
          "internalType": "string",
          "name": "description",
          "type": "string"
        },
        {
          "internalType": "uint256",
          "name": "stakeAmount",
          "type": "uint256"
        },
        {
          "internalType": "uint256",
          "name": "deadline",
          "type": "uint256"
        },
        {
          "internalType": "address[]",
          "name": "parties",
          "type": "address[]"
        },
        {
          "internalType": "address[]",
          "name": "verifiers",
          "type": "address[]"
        }
      ],
      "name": "createAgreement",
      "outputs": [
        {
          "internalType": "uint256",
          "name": "",
          "type": "uint256"
        }
      ],
      "stateMutability": "nonpayable",
      "type": "function"
    },
    {
      "inputs": [
        {
          "internalType": "string",
          "name": "title",
          "type": "string"
        },
        {
          "internalType": "string",
          "name": "description",
          "type": "string"
        },
        {
          "internalType": "string",
          "name": "category",
          "type": "string"
        },
        {
          "internalType": "enum ProofOfGood.ChallengeType",
          "name": "challengeType",
          "type": "uint8"
        },
        {
          "internalType": "uint256",
          "name": "stakeAmount",
          "type": "uint256"
        },
        {
          "internalType": "uint256",
          "name": "deadline",
          "type": "uint256"
        },
        {
          "internalType": "uint256",
          "name": "maxParticipants",
          "type": "uint256"
        },
        {
          "internalType": "address[]",
          "name": "verifiers",
          "type": "address[]"
        },
        {
          "internalType": "bool",
          "name": "requiresFollow",
          "type": "bool"
        }
      ],
      "name": "createChallenge",
      "outputs": [
        {
          "internalType": "uint256",
          "name": "",
          "type": "uint256"
        }
      ],
      "stateMutability": "nonpayable",
      "type": "function"
    },
    {
      "inputs": [
        {
          "internalType": "uint256",
          "name": "agreementId",
          "type": "uint256"
        }
      ],
      "name": "endAgreement",
      "outputs": [],
      "stateMutability": "nonpayable",
      "type": "function"
    },
    {
      "inputs": [
        {
          "internalType": "uint256",
          "name": "challengeId",
          "type": "uint256"
        }
      ],
      "name": "endChallenge",
      "outputs": [],
      "stateMutability": "nonpayable",
      "type": "function"
    },
    {
      "inputs": [
        {
          "internalType": "string",
          "name": "",
          "type": "string"
        }
      ],
      "name": "ensSubdomainToAddress",
      "outputs": [
        {
          "internalType": "address",
          "name": "",
          "type": "address"
        }
      ],
      "stateMutability": "view",
      "type": "function"
    },
    {
      "inputs": [
        {
          "internalType": "address",
          "name": "userToFollow",
          "type": "address"
        }
      ],
      "name": "followUser",
      "outputs": [],
      "stateMutability": "nonpayable",
      "type": "function"
    },
    {
      "inputs": [
        {
          "internalType": "uint256",
          "name": "challengeId",
          "type": "uint256"
        }
      ],
      "name": "getChallenge",
      "outputs": [
        {
          "internalType": "uint256",
          "name": "id",
          "type": "uint256"
        },
        {
          "internalType": "string",
          "name": "title",
          "type": "string"
        },
        {
          "internalType": "string",
          "name": "description",
          "type": "string"
        },
        {
          "internalType": "string",
          "name": "category",
          "type": "string"
        },
        {
          "internalType": "address",
          "name": "creator",
          "type": "address"
        },
        {
          "internalType": "enum ProofOfGood.ChallengeType",
          "name": "challengeType",
          "type": "uint8"
        },
        {
          "internalType": "enum ProofOfGood.ChallengeStatus",
          "name": "status",
          "type": "uint8"
        },
        {
          "internalType": "uint256",
          "name": "stakeAmount",
          "type": "uint256"
        },
        {
          "internalType": "uint256",
          "name": "deadline",
          "type": "uint256"
        },
        {
          "internalType": "uint256",
          "name": "maxParticipants",
          "type": "uint256"
        },
        {
          "internalType": "uint256",
          "name": "totalStaked",
          "type": "uint256"
        },
        {
          "internalType": "uint256",
          "name": "participantCount",
          "type": "uint256"
        },
        {
          "internalType": "address[]",
          "name": "verifiers",
          "type": "address[]"
        },
        {
          "internalType": "bool",
          "name": "requiresFollow",
          "type": "bool"
        },
        {
          "internalType": "uint256",
          "name": "winnersCount",
          "type": "uint256"
        },
        {
          "internalType": "uint256",
          "name": "rewardPerWinner",
          "type": "uint256"
        },
        {
          "internalType": "bool",
          "name": "rewardsDistributed",
          "type": "bool"
        }
      ],
      "stateMutability": "view",
      "type": "function"
    },
    {
      "inputs": [
        {
          "internalType": "uint256",
          "name": "challengeId",
          "type": "uint256"
        }
      ],
      "name": "getChallengeComments",
      "outputs": [
        {
          "components": [
            {
              "internalType": "address",
              "name": "commenter",
              "type": "address"
            },
            {
              "internalType": "string",
              "name": "content",
              "type": "string"
            },
            {
              "internalType": "uint256",
              "name": "timestamp",
              "type": "uint256"
            }
          ],
          "internalType": "struct ProofOfGood.ChallengeComment[]",
          "name": "",
          "type": "tuple[]"
        }
      ],
      "stateMutability": "view",
      "type": "function"
    },
    {
      "inputs": [
        {
          "internalType": "uint256",
          "name": "challengeId",
          "type": "uint256"
        }
      ],
      "name": "getChallengeParticipants",
      "outputs": [
        {
          "internalType": "address[]",
          "name": "",
          "type": "address[]"
        }
      ],
      "stateMutability": "view",
      "type": "function"
    },
    {
      "inputs": [
        {
          "internalType": "uint256",
          "name": "challengeId",
          "type": "uint256"
        },
        {
          "internalType": "address",
          "name": "participant",
          "type": "address"
        }
      ],
      "name": "getParticipantStatus",
      "outputs": [
        {
          "internalType": "enum ProofOfGood.ParticipantStatus",
          "name": "",
          "type": "uint8"
        }
      ],
      "stateMutability": "view",
      "type": "function"
    },
    {
      "inputs": [
        {
          "internalType": "uint256",
          "name": "challengeId",
          "type": "uint256"
        },
        {
          "internalType": "address",
          "name": "participant",
          "type": "address"
        }
      ],
      "name": "getProof",
      "outputs": [
        {
          "internalType": "string",
          "name": "",
          "type": "string"
        }
      ],
      "stateMutability": "view",
      "type": "function"
    },
    {
      "inputs": [
        {
          "internalType": "uint256",
          "name": "challengeId",
          "type": "uint256"
        },
        {
          "internalType": "address",
          "name": "participant",
          "type": "address"
        }
      ],
      "name": "getProofStatus",
      "outputs": [
        {
          "internalType": "enum ProofOfGood.ProofStatus",
          "name": "",
          "type": "uint8"
        }
      ],
      "stateMutability": "view",
      "type": "function"
    },
    {
      "inputs": [
        {
          "internalType": "bytes32",
          "name": "role",
          "type": "bytes32"
        }
      ],
      "name": "getRoleAdmin",
      "outputs": [
        {
          "internalType": "bytes32",
          "name": "",
          "type": "bytes32"
        }
      ],
      "stateMutability": "view",
      "type": "function"
    },
    {
      "inputs": [],
      "name": "getTotalAgreements",
      "outputs": [
        {
          "internalType": "uint256",
          "name": "",
          "type": "uint256"
        }
      ],
      "stateMutability": "view",
      "type": "function"
    },
    {
      "inputs": [],
      "name": "getTotalChallenges",
      "outputs": [
        {
          "internalType": "uint256",
          "name": "",
          "type": "uint256"
        }
      ],
      "stateMutability": "view",
      "type": "function"
    },
    {
      "inputs": [
        {
          "internalType": "address",
          "name": "user",
          "type": "address"
        }
      ],
      "name": "getUserProfile",
      "outputs": [
        {
          "internalType": "string",
          "name": "ensSubdomain",
          "type": "string"
        },
        {
          "internalType": "uint256",
          "name": "totalChallengesWon",
          "type": "uint256"
        },
        {
          "internalType": "uint256",
          "name": "totalChallengesParticipated",
          "type": "uint256"
        },
        {
          "internalType": "uint256",
          "name": "totalStaked",
          "type": "uint256"
        },
        {
          "internalType": "uint256",
          "name": "totalWinnings",
          "type": "uint256"
        },
        {
          "internalType": "bool",
          "name": "isFirstTime",
          "type": "bool"
        },
        {
          "internalType": "address[]",
          "name": "followers",
          "type": "address[]"
        }
      ],
      "stateMutability": "view",
      "type": "function"
    },
    {
      "inputs": [
        {
          "internalType": "bytes32",
          "name": "role",
          "type": "bytes32"
        },
        {
          "internalType": "address",
          "name": "account",
          "type": "address"
        }
      ],
      "name": "grantRole",
      "outputs": [],
      "stateMutability": "nonpayable",
      "type": "function"
    },
    {
      "inputs": [
        {
          "internalType": "bytes32",
          "name": "role",
          "type": "bytes32"
        },
        {
          "internalType": "address",
          "name": "account",
          "type": "address"
        }
      ],
      "name": "hasRole",
      "outputs": [
        {
          "internalType": "bool",
          "name": "",
          "type": "bool"
        }
      ],
      "stateMutability": "view",
      "type": "function"
    },
    {
      "inputs": [
        {
          "internalType": "address",
          "name": "follower",
          "type": "address"
        },
        {
          "internalType": "address",
          "name": "followed",
          "type": "address"
        }
      ],
      "name": "isFollowing",
      "outputs": [
        {
          "internalType": "bool",
          "name": "",
          "type": "bool"
        }
      ],
      "stateMutability": "view",
      "type": "function"
    },
    {
      "inputs": [
        {
          "internalType": "uint256",
          "name": "agreementId",
          "type": "uint256"
        }
      ],
      "name": "joinAgreement",
      "outputs": [],
      "stateMutability": "payable",
      "type": "function"
    },
    {
      "inputs": [
        {
          "internalType": "uint256",
          "name": "challengeId",
          "type": "uint256"
        }
      ],
      "name": "joinChallenge",
      "outputs": [],
      "stateMutability": "payable",
      "type": "function"
    },
    {
      "inputs": [
        {
          "internalType": "uint256",
          "name": "challengeId",
          "type": "uint256"
        }
      ],
      "name": "likeChallenge",
      "outputs": [],
      "stateMutability": "nonpayable",
      "type": "function"
    },
    {
      "inputs": [],
      "name": "platformOwner",
      "outputs": [
        {
          "internalType": "address",
          "name": "",
          "type": "address"
        }
      ],
      "stateMutability": "view",
      "type": "function"
    },
    {
      "inputs": [
        {
          "internalType": "bytes32",
          "name": "role",
          "type": "bytes32"
        },
        {
          "internalType": "address",
          "name": "callerConfirmation",
          "type": "address"
        }
      ],
      "name": "renounceRole",
      "outputs": [],
      "stateMutability": "nonpayable",
      "type": "function"
    },
    {
      "inputs": [
        {
          "internalType": "bytes32",
          "name": "role",
          "type": "bytes32"
        },
        {
          "internalType": "address",
          "name": "account",
          "type": "address"
        }
      ],
      "name": "revokeRole",
      "outputs": [],
      "stateMutability": "nonpayable",
      "type": "function"
    },
    {
      "inputs": [
        {
          "internalType": "uint256",
          "name": "agreementId",
          "type": "uint256"
        },
        {
          "internalType": "string",
          "name": "proof",
          "type": "string"
        }
      ],
      "name": "submitAgreementProof",
      "outputs": [],
      "stateMutability": "nonpayable",
      "type": "function"
    },
    {
      "inputs": [
        {
          "internalType": "uint256",
          "name": "challengeId",
          "type": "uint256"
        },
        {
          "internalType": "string",
          "name": "proof",
          "type": "string"
        }
      ],
      "name": "submitProof",
      "outputs": [],
      "stateMutability": "nonpayable",
      "type": "function"
    },
    {
      "inputs": [
        {
          "internalType": "bytes4",
          "name": "interfaceId",
          "type": "bytes4"
        }
      ],
      "name": "supportsInterface",
      "outputs": [
        {
          "internalType": "bool",
          "name": "",
          "type": "bool"
        }
      ],
      "stateMutability": "view",
      "type": "function"
    },
    {
      "inputs": [
        {
          "internalType": "address",
          "name": "",
          "type": "address"
        }
      ],
      "name": "userProfiles",
      "outputs": [
        {
          "internalType": "string",
          "name": "ensSubdomain",
          "type": "string"
        },
        {
          "internalType": "uint256",
          "name": "totalChallengesWon",
          "type": "uint256"
        },
        {
          "internalType": "uint256",
          "name": "totalChallengesParticipated",
          "type": "uint256"
        },
        {
          "internalType": "uint256",
          "name": "totalStaked",
          "type": "uint256"
        },
        {
          "internalType": "uint256",
          "name": "totalWinnings",
          "type": "uint256"
        },
        {
          "internalType": "bool",
          "name": "isFirstTime",
          "type": "bool"
        }
      ],
      "stateMutability": "view",
      "type": "function"
    },
    {
      "inputs": [
        {
          "internalType": "uint256",
          "name": "agreementId",
          "type": "uint256"
        },
        {
          "internalType": "address",
          "name": "party",
          "type": "address"
        },
        {
          "internalType": "bool",
          "name": "isValid",
          "type": "bool"
        }
      ],
      "name": "verifyAgreementProof",
      "outputs": [],
      "stateMutability": "nonpayable",
      "type": "function"
    },
    {
      "inputs": [
        {
          "internalType": "uint256",
          "name": "challengeId",
          "type": "uint256"
        },
        {
          "internalType": "address",
          "name": "participant",
          "type": "address"
        },
        {
          "internalType": "bool",
          "name": "isValid",
          "type": "bool"
        }
      ],
      "name": "verifyProof",
      "outputs": [],
      "stateMutability": "nonpayable",
      "type": "function"
    },
    {
      "inputs": [
        {
          "internalType": "uint256",
          "name": "amount",
          "type": "uint256"
        }
      ],
      "name": "withdrawCommunityFund",
      "outputs": [],
      "stateMutability": "nonpayable",
      "type": "function"
    },
    {
      "stateMutability": "payable",
      "type": "receive"
    }
  ],
  "transactionHash": "0xe0220ff7f4c8d6254cb2d5d40472c7640b24aa793e762054cdb5c8876aa4e4de",
  "args": [],
  "numDeployments": 1,
  "solcInputHash": "fa9b6b3c5b8f5adfe51df92ed6f57f7a",
  "bytecode": "0x608060405234620000575760018055600d80546001600160a01b031916339081179091556200002e906200005c565b506200003a33620000dc565b5062000046336200017e565b50604051613eb090816200021c8239f35b600080fd5b6001600160a01b031660008181527fad3228b676f7d3cd4284a5443f17f1962b36e491b30a40b2405849e597ba5fb5602052604081205490919060ff16620000d857818052816020526040822081835260205260408220600160ff198254161790553391600080516020620040cc8339815191528180a4600190565b5090565b6001600160a01b031660008181527f7d7ffb7a348e1c6a02869081a26547b49160dd3df72d1d75a570eb9b698292ec60205260408120549091907fa49807205ce4d355092ef5a8a18f56e8913cf4a201fbe287825b095693c217759060ff166200017957808352826020526040832082845260205260408320600160ff19825416179055600080516020620040cc833981519152339380a4600190565b505090565b6001600160a01b031660008181527f1da0b5176dfe03406af5a6eed66ca01dda9b45ac4da671c3fa379cb93717ef8160205260408120549091907f0ce23c3e399818cfee81a7ab0880f714e53d7672b08df0fa62f2843416e1ea099060ff166200017957808352826020526040832082845260205260408320600160ff19825416179055600080516020620040cc833981519152339380a460019056fe608080604052600436101561002c575b50361561001b57600080fd5b61002734600c54613a8c565b600c55005b60003560e01c908162f380f41461355f5750806301ffc9a714613509578063023bf958146134a8578063155482321461348c5780631bdd4b74146133095780632208c01c1461321c57806322325255146131f0578063248a9ca3146131c15780632af0051014612f8e5780632f2ff15d14612f41578063332d56d714612eb257806336568abe14612e6b5780633ef49ec814612c715780634df8ccb114612c4857806351e85a0614612be057806361eae9ee14612b8957806363f18c0c1461291f5780636819425c1461233d5780636c51010f14611f14578063712eb6a914611ec757806375b238fc14611e8c5780637f45466e14611dc55780637fec3e9714611bab57806381363aeb14611b545780638f1d377614611a1657806391d14854146119c95780639543e9961461198f578063987ee156146118ea57806399ec3a42146118915780639cd5b283146116c7578063a217fddf146116ab578063a2762bc21461141b578063a70806f7146112f7578063b61c3d3214610f1f578063ba90d77614610ebc578063bd14de9614610e0c578063bd933d1b14610dee578063bdaafdaa146108fe578063bf79f906146107cf578063cd332fdc14610755578063d547741f14610706578063de9105b3146106e8578063e3c11f5c146106cc578063e448ee26146103b0578063e7705db6146103755763ec2b7b6714610232573861000f565b346103705760208060031936011261037057600435600290815481111580610367575b610261909392936139af565b6000526009815260406000208054610278816137d9565b936102866040519586613624565b81855260009283528383208486019391845b84841061031e57604080518881528951818a01819052600092600582901b83018101918a918c9085015b8287106102cf5785850386f35b909192938280600192603f19898203018552875190848060a01b03825116815260408061030885850151606080888701528501906135da565b93015191015296019201960195929190926102c2565b60038760019260409a999a5161033381613609565b848060a01b038754168152610349858801613733565b83820152858701546040820152815201930193019291969596610298565b50801515610255565b600080fd5b346103705760003660031901126103705760206040517f0ce23c3e399818cfee81a7ab0880f714e53d7672b08df0fa62f2843416e1ea098152f35b6020806003193601126103705760043590600254821115806106c3575b6103d6906139af565b6103de613aec565b8160005260048152604060002090600482015460ff9061040c828260a81c16610406816135ff565b156139fb565b6006938481015442101561067e57600981019283546007830154111561064557600e820192336000528386528160406000205416600481101561062f57158015610610575b156105d35781600b84015416806105bb575b61054f575b9060028161048f949360a01c1661047e816135ff565b036104f4575b50600d339101613ab1565b336000528252604060002060ff1981541690556104ac8154613989565b9055336000525260026040600020016104c58154613989565b905533907f690ecbabe96222b39728b512682860cc6460002a670ff94954038286bea0ba69600080a360018055005b336000528686526005604060002001541660001461052a5733600052858552600560406000200160ff1981541690555b87610484565b61053960058201543414613a47565b60088101610548348254613a8c565b9055610524565b33600090815287875260408082206001600160a01b03841683528901885290205482166104685760405162461bcd60e51b815260048101879052601960248201527f4d75737420626520666f6c6c6f77696e672063726561746f72000000000000006044820152606490fd5b506001828260a01c166105cd816135ff565b14610463565b60405162461bcd60e51b8152600481018790526015602482015274416c72656164792070617274696369706174696e6760581b6044820152606490fd5b50336000528386528160406000205416600481101561062f5715610451565b634e487b7160e01b600052602160045260246000fd5b60405162461bcd60e51b815260048101869052601160248201527010da185b1b195b99d9481a5cc8199d5b1b607a1b6044820152606490fd5b60405162461bcd60e51b815260048101859052601d60248201527f4368616c6c656e676520646561646c696e6520686173207061737365640000006044820152606490fd5b508115156103cd565b34610370576000366003190112610370576020604051600a8152f35b34610370576000366003190112610370576020600254604051908152f35b34610370576040366003190112610370576107536107226136cd565b336000908152600080516020613e5b833981519152602052604090205461074b9060ff16613d4e565b6004356138c3565b005b3461037057604036600319011261037057602435600435600052600960205260406000209081548110156103705761078c91613891565b5080546001600160a01b031660026107a660018401613733565b9201546107c560405193849384526060602085015260608401906135da565b9060408301520390f35b34610370576107dd3661385e565b6003929192918254811115806108f5575b6107f790613c7b565b600052600560205260406000209061081460058301544211613d09565b600a820160018060a01b0380951694856000528160205261084660ff60406000205416610840816135ff565b15613bae565b600094600091600786018054935b8481106108b4575b505050505061086f61088a929394613bee565b82156108ac576001905b856000526020526040600020613b51565b61089057005b6000918252600b0160205260409020805460ff19166001179055005b600290610879565b826108bf8284613a99565b905490861b1c1633146108da576108d590613989565b610854565b506001975061086f935061088a92508991508190508061085c565b508015156107ee565b346103705760c0366003190112610370576004356001600160401b0381116103705761092e903690600401613645565b6024356001600160401b0381116103705761094d903690600401613645565b906084356001600160401b0381116103705761096d9036906004016137f0565b9060a4356001600160401b0381116103705761098d9036906004016137f0565b9061099b426064351161393d565b6002835110610d9b57815115610d56576109b6600354613989565b93846003558460005260056020526040600020918583558051906001600160401b038211610b975781906109ed60018601546136f9565b601f8111610d21575b50602090601f8311600114610caf57600092610ca4575b50508160011b916000199060031b1c19161760018301555b8051906001600160401b038211610b97578190610a4560028501546136f9565b601f8111610c64575b50602090601f8311600114610bf257600092610be7575b50508160011b916000199060031b1c19161760028201555b6003810180546001600160a01b03191633179055604435600482015560643560058201558251600682016001600160401b038211610b9757600160401b94858311610b97576020908254848455808510610bca575b500190600052602060002060005b838110610bad5750505050600701908051926001600160401b038411610b97578311610b97576020908254848455808510610b7a575b500190600052602060002060005b838110610b5d576020856040519033817f9d0109af3593c414edfa74aa36ce36b7b0c4e261998d858618c7a982b423939a600080a38152f35b82516001600160a01b031681830155602090920191600101610b24565b610b91908460005285846000209182019101613998565b85610b16565b634e487b7160e01b600052604160045260246000fd5b82516001600160a01b031681830155602090920191600101610ae0565b610be1908460005285846000209182019101613998565b88610ad2565b015190508680610a65565b9250600284016000526020600020906000935b601f1984168510610c49576001945083601f19811610610c30575b505050811b016002820155610a7d565b015160001960f88460031b161c19169055868080610c20565b81810151835560209485019460019093019290910190610c05565b610c9490600286016000526020600020601f850160051c81019160208610610c9a575b601f0160051c0190613998565b87610a4e565b9091508190610c87565b015190508780610a0d565b9250600185016000526020600020906000935b601f1984168510610d06576001945083601f19811610610ced575b505050811b016001830155610a25565b015160001960f88460031b161c19169055878080610cdd565b81810151835560209485019460019093019290910190610cc2565b610d5090600187016000526020600020601f850160051c81019160208610610c9a57601f0160051c0190613998565b886109f6565b60405162461bcd60e51b815260206004820152601c60248201527f41677265656d656e7420726571756972657320766572696669657273000000006044820152606490fd5b60405162461bcd60e51b815260206004820152602560248201527f41677265656d656e74207265717569726573206174206c656173742032207061604482015264727469657360d81b6064820152608490fd5b34610370576000366003190112610370576020600354604051908152f35b3461037057602036600319011261037057600435600052600560205260406000208054610e3b60018301613733565b91610e4860028201613733565b60018060a01b03600383015416916004810154600582015490610e9c600d60ff600c8601541694015494610e8e604051998a998a526101008060208c01528a01906135da565b9088820360408a01526135da565b946060870152608086015260a0850152151560c084015260e08301520390f35b3461037057604036600319011261037057610ed56136cd565b6004356000526004602052600f6040600020019060018060a01b0316600052602052610f1b610f076040600020613733565b6040519182916020835260208301906135da565b0390f35b3461037057604036600319011261037057610f386136e3565b6001600160401b039060243582811161037057610f59903690600401613645565b336000908152600080516020613e5b8339815191526020908152604090912054610f859060ff16613d4e565b60405182519382840194610f9a8184886135b7565b8201600a8152828460018060a01b039485930301902054166112b257169283600052600b8252610fce6040600020546136f9565b61126d5781610fe8916040518093819287519283916135b7565b8101600a815203019020836bffffffffffffffffffffffff60a01b82541617905582600052600b81526040600020825190858211610b975761102a81546136f9565b91601f9283811161123f575b5080848482116001146111dc576000916111d1575b508160011b916000199060031b1c19161790555b83600052600682526040600020908351958611610b975761108082546136f9565b818111611199575b50829086116001146111145794807f1634a01480a7c8af85e8acfda76a319c2006e71518aa2ad37c240a0843e04ff19596600091611109575b508160011b916000199060031b1c19161790555b83600052600681526005604060002001600160ff198254161790556111046040519282849384528301906135da565b0390a2005b9050840151876110c1565b601f1986169082600052836000209160005b81811061118257509187917f1634a01480a7c8af85e8acfda76a319c2006e71518aa2ad37c240a0843e04ff1979860019410611169575b5050811b0190556110d5565b86015160001960f88460031b161c19169055878061115d565b91928560018192868a015181550194019201611126565b6111c290836000528460002083808a0160051c820192878b106111c8575b0160051c0190613998565b86611088565b925081926111b7565b90508501518861104b565b60008481528681209250601f198416905b878282106112295750509083600194939210611210575b5050811b01905561105f565b87015160001960f88460031b161c191690558880611204565b600184958293958c0151815501940192016111ed565b6112679083600052856000208580850160051c8201928886106111c8570160051c0190613998565b87611036565b60405162461bcd60e51b815260048101839052601a60248201527f5573657220616c72656164792068617320737562646f6d61696e0000000000006044820152606490fd5b60405162461bcd60e51b815260048101849052601760248201527f537562646f6d61696e20616c72656164792074616b656e0000000000000000006044820152606490fd5b3461037057602080600319360112610370576001600160a01b036113196136e3565b16903382146113de573360005260068152600660406000200182600052815260ff604060002054166113a65760069033600052818152816040600020018360005281526040600020600160ff198254161790555261137e336007604060002001613ab1565b337f30b3435b456f45779984ddfa456115ee4c20d9e446979b1b9e90dbb7e12b90b7600080a3005b6064906040519062461bcd60e51b825260048201526011602482015270416c726561647920666f6c6c6f77696e6760781b6044820152fd5b6064906040519062461bcd60e51b82526004820152601660248201527521b0b73737ba103337b63637bb903cb7bab939b2b63360511b6044820152fd5b3461037057602080600319360112610370576004356003908154811115806116a2575b61144790613c7b565b61144f613aec565b8060005260058352604060002061146b60058201544211613d09565b600c81019283549360ff9081861661165d576001809660ff191617905560009060009060068501928354600b8701935b81811061160d5750918189969594938b93146000146115545750505050600460009401925b6114f3575b505050505b7fe68817e6393ef0ffbeea6b9f9250b8834e36523c649ab5c76f543218ca9600b8600080a28055005b805484101561154f57600080808061150b8886613a99565b9054885491881b1c6001600160a01b0316828215611546575bf11561153a576115348694613989565b936114c0565b6040513d6000823e3d90fd5b506108fc611524565b6114c5565b80979192959493969761156f575b50505050505050506114ca565b600d61157c920154613c4e565b946000875b15611562578354811015611608576115998185613a99565b90546001600160a01b0391871b1c81166000908152838852604090205484166115cd575b506115c790613989565b87611581565b819850600080898194936115e283958a613a99565b9054908b1b1c168282156115ff575bf11561153a5788968a6115bd565b506108fc6115f1565b611562565b6116178187613a99565b905490881b1c6001600160a01b03166000908152858c5260409020548416611648575b61164390613989565b61149b565b9161165561164391613989565b92905061163a565b60405162461bcd60e51b815260048101889052601760248201527f41677265656d656e7420616c726561647920656e6465640000000000000000006044820152606490fd5b5080151561143e565b3461037057600036600319011261037057602060405160008152f35b34610370576116d53661369b565b9060035481111580611888575b6116eb90613c7b565b60005260209060058252604060002061170b60ff600c8301541615613cc7565b3360005260088101835260ff6040600020541615611850576117336005820154421115613b0f565b33600052600981018352604060002082516001600160401b038111610b975761175c82546136f9565b601f8111611820575b508493601f82116001146117b857600a94600091836117ad575b50508160011b916000199060031b1c19161790555b33600052019052604060002060ff198154169055600080f35b01519050868061177f565b601f1982169483600052866000209160005b8888821061180a57505090839291600194600a98106117f1575b505050811b019055611794565b015160001960f88460031b161c191690558680806117e4565b60018495829395850151815501940192016117ca565b61184a908360005286600020601f840160051c810191888510610c9a57601f0160051c0190613998565b85611765565b60405162461bcd60e51b815260048101849052601060248201526f135d5cdd081cdd185ad948199a5c9cdd60821b6044820152606490fd5b508015156116e2565b34610370576040366003190112610370576118aa6136e3565b6118b26136cd565b9060018060a01b03809116600052600660205260066040600020019116600052602052602060ff604060002054166040519015158152f35b34610370576020366003190112610370576001600160a01b0361190b6136e3565b1660005260066020526119666040600020610f1b600182015460028301546003840154600485015460ff60058701541691611951600761194a89613733565b9801613e02565b9360405198899860e08a5260e08a01906135da565b956020890152604088015260608701526080860152151560a085015283820360c085015261357a565b34610370576020366003190112610370576001600160a01b036119b06136e3565b16600052600b602052610f1b610f076040600020613733565b34610370576040366003190112610370576119e26136cd565b600435600052600060205260406000209060018060a01b0316600052602052602060ff604060002054166040519015158152f35b346103705760203660031901126103705760043560005260046020526040600020805460018201611a4690613733565b91611a5360028201613733565b611a5f60038301613733565b91600481015492600582015460068301546007840154600885015490600986015492600b87015460ff16946011880154966012890154986013015460ff16996040519d8e9d8e528d6102009081602082015201611abb916135da565b8d810360408f0152611acc916135da565b8c810360608e0152611add916135da565b6001600160a01b038b1660808d01529960ff60a082901c16611afe816135ff565b60a08d015260a81c60ff16611b12816135ff565b60c08c015260e08b01526101008a015261012089015261014088015261016087015215156101808601526101a08501526101c084015215156101e08301520390f35b3461037057604036600319011261037057611b6d6136cd565b6004356000526004602052600e6040600020019060018060a01b031660005260205260ff60406000205416604051600482101561062f576020918152f35b3461037057611bb93661385e565b9160025481111580611dbc575b611bcf906139af565b806000526020600481526040600020611bed60068201544211613b69565b601081019460018060a01b038095169586600052808452611c1960ff60406000205416610840816135ff565b60009560ff600485015460a01c16611c30816135ff565b8015908115611da8575b5015611d0257507f05597b97d547c9207d3d98b82a128731567eee26e223a684f904579646ea0de3949550611cc7907f0ce23c3e399818cfee81a7ab0880f714e53d7672b08df0fa62f2843416e1ea09600052600085526040600020336000528552611cad60ff60406000205416613bee565b8215611cfa576001905b8860005285526040600020613b51565b159081611cda575b5060405190158152a3005b600e90866000520182526040600020600260ff1982541617905585611ccf565b600290611cb7565b600090600a85018054925b838110611d48575b50505050611cc790611cad7f05597b97d547c9207d3d98b82a128731567eee26e223a684f904579646ea0de39697613bee565b82611d538284613a99565b919054339260031b1c1614611d7057611d6b90613989565b611d0d565b5060019850839250611cad91507f05597b97d547c9207d3d98b82a128731567eee26e223a684f904579646ea0de39050611cc7611d15565b60029150611db5816135ff565b1489611c3a565b50801515611bc6565b3461037057602036600319011261037057336000908152600080516020613e5b833981519152602052604090205460043590611e039060ff16613d4e565b611e0b613aec565b600c54808211611e475760008083611e2582958395613c6e565b600c55818115611e3e575b3390f11561153a5760018055005b506108fc611e30565b60405162461bcd60e51b815260206004820152601b60248201527f496e73756666696369656e7420636f6d6d756e6974792066756e6400000000006044820152606490fd5b346103705760003660031901126103705760206040517fa49807205ce4d355092ef5a8a18f56e8913cf4a201fbe287825b095693c217758152f35b3461037057604036600319011261037057611ee06136cd565b600435600052600760205260406000209060018060a01b0316600052602052602060ff604060002054166040519015158152f35b3461037057602080600319360112610370576004359060025482111580612334575b611f3f906139af565b8160005260048152604060002090600691611f5e838201544211613b69565b600481019081549160ff92838160a81c16611f78816135ff565b6122ef57836013840154166122aa5760ff60a81b1916600160a81b179055600981015490611fa5826137d9565b91611fb36040519384613624565b808352611fc2601f19916137d9565b013685840137600d8101805460009490916010840190865b8481106122425750505050508215159081612234575b5061201e575b847f7c58f94357cb33a6ec49caa074baef6c7014ad16815b784a4f6ef741f83f28ed600080a2005b8460005260048352604060002092600884015492600584029584159685810460051488171561221e576064900496600a860290868204600a14171561221e57879561207160646120769304978892613c6e565b613c6e565b94600080808060018060a01b039b8c600d5416828215612215575bf11561153a576120a390600c54613a8c565b600c5560039081831115612207576120bf828097969496613c4e565b97600e880191891560005b8b8a82106121845750505050869360058901945b8781106121365750505050505050509060129160138201600160ff1982541617905560118201550155807f6d1c76d614228b523baa4dcd9539e2c713b54ff4ab3ff2d1627e7f6cd32be442600080a281808080611ff6565b6000808080866121468688613c3a565b5116808252888c5260408220805460ff19168b1790558a549082821561217b575bf11561153a5761217690613989565b6120de565b506108fc612167565b6000808080938c888d9f9d61219a898d92613c3a565b5116918285528c8152604085206001908160ff1982541617905582825260408620016121c68154613989565b905582855252600460408420016121de838254613a8c565b905582886121fe575bf11561153a576121f690613989565b9795976120ca565b506108fc6121e7565b6120bf838097969496613c4e565b506108fc612091565b634e487b7160e01b600052601160045260246000fd5b600891500154151586611ff0565b61224c8183613a99565b60018060a01b0391549060031b1c1680600052838a5260018560406000205416612275816135ff565b1461228a575b5061228590613989565b611fda565b886122a39161229d612285949b8b613c3a565b52613989565b979061227b565b60405162461bcd60e51b815260048101869052601b60248201527f5265776172647320616c726561647920646973747269627574656400000000006044820152606490fd5b60405162461bcd60e51b815260048101869052601760248201527f4368616c6c656e676520616c726561647920656e6465640000000000000000006044820152606490fd5b50811515611f36565b3461037057610120366003190112610370576004356001600160401b0381116103705761236e903690600401613645565b6024356001600160401b0381116103705761238d903690600401613645565b6044356001600160401b038111610370576123ac903690600401613645565b600360643510156103705760e4356001600160401b038111610370576123d69036906004016137f0565b61010435918215158303610370576123f14260a4351161393d565b60c435156128ca576124046064356135ff565b600160643514612873575b61241a600254613989565b93846002558460005260046020526040600020958587558051906001600160401b038211610b9757819061245160018a01546136f9565b601f811161283e575b50602090601f83116001146127cc576000926127c1575b50508160011b916000199060031b1c19161760018701555b8051906001600160401b038211610b975781906124a960028901546136f9565b601f811161278c575b50602090601f831160011461271a5760009261270f575b50508160011b916000199060031b1c19161760028601555b8051906001600160401b038211610b9757819061250160038801546136f9565b601f81116126da575b50602090601f83116001146126685760009261265d575b50508160011b916000199060031b1c19161760038501555b60048401805461254a6064356135ff565b6001600160b01b0319163361ffff60a01b19161760643560a01b60ff60a01b16179055608435600585015560a435600685015560c4356007850155805190600a8501906001600160401b038311610b9757600160401b8311610b97576020908254848455808510612640575b500190600052602060002060005b8381106126235760208686600b8a019060ff8019835416911515161790556040516125f06064356135ff565b6064358152817f023889da3bcc1f9764adfc87ba7e04ef1225660085bd2bdb050090bf3fd9f4a9843393a3604051908152f35b82516001600160a01b0316818301556020909201916001016125c4565b612657908460005285846000209182019101613998565b876125b6565b015190508680612521565b9250600387016000526020600020906000935b601f19841685106126bf576001945083601f198116106126a6575b505050811b016003850155612539565b015160001960f88460031b161c19169055868080612696565b8181015183556020948501946001909301929091019061267b565b61270990600389016000526020600020601f850160051c81019160208610610c9a57601f0160051c0190613998565b8761250a565b0151905087806124c9565b9250600288016000526020600020906000935b601f1984168510612771576001945083601f19811610612758575b505050811b0160028601556124e1565b015160001960f88460031b161c19169055878080612748565b8181015183556020948501946001909301929091019061272d565b6127bb9060028a016000526020600020601f850160051c81019160208610610c9a57601f0160051c0190613998565b886124b2565b015190508880612471565b9250600189016000526020600020906000935b601f1984168510612823576001945083601f1981161061280a575b505050811b016001870155612489565b015160001960f88460031b161c191690558880806127fa565b818101518355602094850194600190930192909101906127df565b61286d9060018b016000526020600020601f850160051c81019160208610610c9a57601f0160051c0190613998565b8961245a565b815161240f5760405162461bcd60e51b815260206004820152602360248201527f437573746f6d206368616c6c656e67657320726571756972652076657269666960448201526265727360e81b6064820152608490fd5b60405162461bcd60e51b815260206004820152602760248201527f4d6178207061727469636970616e7473206d75737420626520677265617465726044820152660207468616e20360cc1b6064820152608490fd5b346103705761292d3661369b565b9060025481111580612b80575b612943906139af565b815115612b3b57806000526020916009835260406000206040519061296782613609565b33825284820183815260408301914283528054600160401b811015610b9757612997906001928382018155613891565b949094612b25575184546001600160a01b0319166001600160a01b0391909116178455905180518285019290916001600160401b038311610b97576129dc84546136f9565b601f8111612af5575b508890601f8411600114612a64579280807ff68e71eea002ea06ddd26f400ceab9d3ac2fdd32b867737b8a1a6204b631fa05999794612a54999794600297600094612a59575b50501b916000199060031b1c19161790555b5191015560405191829186835233968301906135da565b0390a3005b015192508d80612a2b565b90601f93929319831691856000528a6000209260005b8c828210612ae1575050926002959285927ff68e71eea002ea06ddd26f400ceab9d3ac2fdd32b867737b8a1a6204b631fa059b9996612a549b999610612ac8575b505050811b019055612a3d565b015160001960f88460031b161c191690558b8080612abb565b838501518655948701949384019301612a7a565b612b1f90856000528a600020601f860160051c8101918c8710610c9a57601f0160051c0190613998565b896129e5565b634e487b7160e01b600052600060045260246000fd5b60405162461bcd60e51b815260206004820152601760248201527f436f6d6d656e742063616e6e6f7420626520656d7074790000000000000000006044820152606490fd5b5080151561293a565b3461037057604036600319011261037057612ba26136cd565b600435600052600460205260106040600020019060018060a01b0316600052602052602060ff6040600020541660405190612bdc816135ff565b8152f35b34610370576020366003190112610370576004356001600160401b03811161037057612c126020913690600401613645565b81612c2660405192838151938492016135b7565b600a90820190815281900382019020546040516001600160a01b039091168152f35b3461037057600036600319011261037057600d546040516001600160a01b039091168152602090f35b602080600319360112610370576004356003805482111580612e62575b612c9790613c7b565b612c9f613aec565b8160005260058352604060002090612cbe60ff600c8401541615613cc7565b6005820154421015612e1d5760088201903360005281855260ff60406000205416612de757600090600090600685018054925b838110612daa575b5050505015612d6557600d9293612d1560048401543414613a47565b33600052526040600020600160ff1982541617905501612d36348254613a8c565b905533907f8d77501e2651bc4019e0acdb3bb0a1b540ec28a64082e5edf8ef8f3b977e333f600080a360018055005b60405162461bcd60e51b815260048101859052601d60248201527f4e6f74206120706172747920746f20746869732061677265656d656e740000006044820152606490fd5b612db48183613a99565b905490841b1c6001600160a01b03163314612dd757612dd290613989565b612cf1565b5050505050600185808080612cf9565b60405162461bcd60e51b815260048101869052600e60248201526d105b1c9958591e481cdd185ad95960921b6044820152606490fd5b60405162461bcd60e51b815260048101859052601d60248201527f41677265656d656e7420646561646c696e6520686173207061737365640000006044820152606490fd5b50811515612c8e565b3461037057604036600319011261037057612e846136cd565b336001600160a01b03821603612ea057610753906004356138c3565b60405163334bd91960e11b8152600490fd5b34610370576020366003190112610370576001600160a01b03612ed36136e3565b166000526006602052612f216040600020612eed81613733565b90600181015490600281015490600381015460ff60056004840154930154169260405196879660c0885260c08801906135da565b946020870152604086015260608501526080840152151560a08301520390f35b3461037057604036600319011261037057610753612f5d6136cd565b336000908152600080516020613e5b8339815191526020526040902054612f869060ff16613d4e565b600435613d89565b3461037057612f9c3661369b565b90600254811115806131b8575b612fb2906139af565b80600052602091600483526040600020612fd960ff600483015460a81c16610406816135ff565b33600052600e8101845260ff60406000205416600481101561062f5761317f576130096006820154421115613b0f565b33600052600f81018452604060002082516001600160401b038111610b975761303282546136f9565b601f811161314f575b5085601f82116001146130c257927fb2217a1ebc8d6435d328a4607aa9709269fe4cb393535a1675721d8431a54018949282601093612a54966000916130b7575b508160011b916000199060031b1c19161790555b33600052018552604060002060ff19815416905560405191829186835233968301906135da565b90508501518a61307c565b601f1982169083600052876000209160005b8982821061313957505083612a5496937fb2217a1ebc8d6435d328a4607aa9709269fe4cb393535a1675721d8431a5401898969360109660019410613120575b5050811b019055613090565b87015160001960f88460031b161c191690558a80613114565b600184958293958b0151815501940192016130d4565b613179908360005287600020601f840160051c810191898510610c9a57601f0160051c0190613998565b8661303b565b60405162461bcd60e51b81526004810185905260116024820152704e6f742070617274696369706174696e6760781b6044820152606490fd5b50801515612fa9565b346103705760203660031901126103705760043560005260006020526020600160406000200154604051908152f35b346103705760203660031901126103705760043560005260086020526020604060002054604051908152f35b3461037057602080600319360112610370576004359060025482111580613300575b613247906139af565b8160005260078152604060002033600052815260ff604060002054166132cc57600890826000526007815260406000203360005281526040600020600160ff19825416179055826000525260406000206132a18154613989565b905533907f02fac8fe167ad1f9f3bfc1205336220c5901e576e3c7e175224db6edc52b5254600080a3005b6064906040519062461bcd60e51b82526004820152600d60248201526c105b1c9958591e481b1a5ad959609a1b6044820152fd5b5081151561323e565b346103705760203660031901126103705760043560025481111580613483575b613332906139af565b600052600460205260406000208054906004810154600582015491600681015490600781015490600881015490600981015494600b82015460ff1695601183015493601284015495601385015460ff16976001860161339090613733565b9a61339d60028801613733565b966133aa60038201613733565b90600a016133b790613e02565b976040519e8f9e8f91825261022080602084015282016133d6916135da565b9080820390604001526133e8916135da565b8d810360608f01526133f9916135da565b6001600160a01b03871660808e01529560ff60a082901c168d61341b826135ff565b60a0015260a81c60ff1661342e816135ff565b60c08d015260e08c01526101008b01526101208a01526101408901526101608801528681036101808801526134629161357a565b9315156101a08601526101c08501526101e084015215156102008301520390f35b50801515613329565b3461037057600036600319011261037057602060405160058152f35b346103705760203660031901126103705760043560025481111580613500575b6134d1906139af565b6000526004602052610f1b6134ec600d604060002001613e02565b60405191829160208352602083019061357a565b508015156134c8565b346103705760203660031901126103705760043563ffffffff60e01b811680910361037057602090637965db0b60e01b811490811561354e575b506040519015158152f35b6301ffc9a760e01b14905082613543565b3461037057600036600319011261037057602090600c548152f35b90815180825260208080930193019160005b82811061359a575050505090565b83516001600160a01b03168552938101939281019260010161358c565b60005b8381106135ca5750506000910152565b81810151838201526020016135ba565b906020916135f3815180928185528580860191016135b7565b601f01601f1916010190565b6003111561062f57565b606081019081106001600160401b03821117610b9757604052565b90601f801991011681019081106001600160401b03821117610b9757604052565b81601f82011215610370578035906001600160401b038211610b975760405192613679601f8401601f191660200185613624565b8284526020838301011161037057816000926020809301838601378301015290565b9060406003198301126103705760043591602435906001600160401b038211610370576136ca91600401613645565b90565b602435906001600160a01b038216820361037057565b600435906001600160a01b038216820361037057565b90600182811c92168015613729575b602083101461371357565b634e487b7160e01b600052602260045260246000fd5b91607f1691613708565b9060405191826000825492613747846136f9565b9081845260019485811690816000146137b65750600114613773575b505061377192500383613624565b565b9093915060005260209081600020936000915b81831061379e57505061377193508201013880613763565b85548884018501529485019487945091830191613786565b91505061377194506020925060ff191682840152151560051b8201013880613763565b6001600160401b038111610b975760051b60200190565b81601f8201121561037057803591613807836137d9565b926138156040519485613624565b808452602092838086019260051b820101928311610370578301905b82821061383f575050505090565b81356001600160a01b0381168103610370578152908301908301613831565b606090600319011261037057600435906024356001600160a01b0381168103610370579060443580151581036103705790565b80548210156138ad576000526003602060002091020190600090565b634e487b7160e01b600052603260045260246000fd5b9060009180835282602052604083209160018060a01b03169182845260205260ff6040842054166000146139385780835282602052604083208284526020526040832060ff1981541690557ff6391f5c32d9c69d2a47ea670b442974b53935d1edc7fd64eb21e047a839171b339380a4600190565b505090565b1561394457565b60405162461bcd60e51b815260206004820152601e60248201527f446561646c696e65206d75737420626520696e207468652066757475726500006044820152606490fd5b600019811461221e5760010190565b8181106139a3575050565b60008155600101613998565b156139b657565b60405162461bcd60e51b815260206004820152601860248201527f4368616c6c656e676520646f6573206e6f7420657869737400000000000000006044820152606490fd5b15613a0257565b60405162461bcd60e51b815260206004820152601760248201527f4368616c6c656e6765206973206e6f74206163746976650000000000000000006044820152606490fd5b15613a4e57565b60405162461bcd60e51b8152602060048201526016602482015275125b98dbdc9c9958dd081cdd185ad948185b5bdd5b9d60521b6044820152606490fd5b9190820180921161221e57565b80548210156138ad5760005260206000200190600090565b8054600160401b811015610b9757613ace91600182018155613a99565b819291549060031b9160018060a01b03809116831b921b1916179055565b600260015414613afd576002600155565b604051633ee5aeb560e01b8152600490fd5b15613b1657565b60405162461bcd60e51b8152602060048201526013602482015272111958591b1a5b99481a185cc81c185cdcd959606a1b6044820152606490fd5b90613b5b816135ff565b60ff80198354169116179055565b15613b7057565b60405162461bcd60e51b81526020600482015260166024820152754368616c6c656e6765207374696c6c2061637469766560501b6044820152606490fd5b15613bb557565b60405162461bcd60e51b815260206004820152601160248201527050726f6f66206e6f742070656e64696e6760781b6044820152606490fd5b15613bf557565b60405162461bcd60e51b815260206004820152601860248201527f4e6f7420617574686f72697a656420746f2076657269667900000000000000006044820152606490fd5b80518210156138ad5760209160051b010190565b8115613c58570490565b634e487b7160e01b600052601260045260246000fd5b9190820391821161221e57565b15613c8257565b60405162461bcd60e51b815260206004820152601860248201527f41677265656d656e7420646f6573206e6f7420657869737400000000000000006044820152606490fd5b15613cce57565b60405162461bcd60e51b81526020600482015260136024820152721059dc99595b595b9d081a185cc8195b991959606a1b6044820152606490fd5b15613d1057565b60405162461bcd60e51b815260206004820152601660248201527541677265656d656e74207374696c6c2061637469766560501b6044820152606490fd5b15613d5557565b60405162461bcd60e51b815260206004820152600c60248201526b2737ba1030b71030b236b4b760a11b6044820152606490fd5b9060009180835282602052604083209160018060a01b03169182845260205260ff6040842054161560001461393857808352826020526040832082845260205260408320600160ff198254161790557f2f8788117e7eff1d82e926ec794901d17c78024a50270940304540a733656f0d339380a4600190565b9060405191828154918282526020928383019160005283600020936000905b828210613e375750505061377192500383613624565b85546001600160a01b031684526001958601958895509381019390910190613e2156fe7d7ffb7a348e1c6a02869081a26547b49160dd3df72d1d75a570eb9b698292eca26469706673582212209899707dfb027c5fe4d2883fd9860b10520f164d5562eb06b0565371ebd8b78e64736f6c634300081400332f8788117e7eff1d82e926ec794901d17c78024a50270940304540a733656f0d",
  "devdoc": {
    "errors": {
      "AccessControlBadConfirmation()": [
        {
          "details": "The caller of a function is not the expected one. NOTE: Don't confuse with {AccessControlUnauthorizedAccount}."
        }
      ],
      "AccessControlUnauthorizedAccount(address,bytes32)": [
        {
          "details": "The `account` is missing a role."
        }
      ],
      "ReentrancyGuardReentrantCall()": [
        {
          "details": "Unauthorized reentrant call."
        }
      ]
    },
    "events": {
      "RoleAdminChanged(bytes32,bytes32,bytes32)": {
        "details": "Emitted when `newAdminRole` is set as ``role``'s admin role, replacing `previousAdminRole` `DEFAULT_ADMIN_ROLE` is the starting admin for all roles, despite {RoleAdminChanged} not being emitted to signal this."
      },
      "RoleGranted(bytes32,address,address)": {
        "details": "Emitted when `account` is granted `role`. `sender` is the account that originated the contract call. This account bears the admin role (for the granted role). Expected in cases where the role was granted using the internal {AccessControl-_grantRole}."
      },
      "RoleRevoked(bytes32,address,address)": {
        "details": "Emitted when `account` is revoked `role`. `sender` is the account that originated the contract call:   - if using `revokeRole`, it is the admin role bearer   - if using `renounceRole`, it is the role bearer (i.e. `account`)"
      }
    },
    "kind": "dev",
    "methods": {
      "getRoleAdmin(bytes32)": {
        "details": "Returns the admin role that controls `role`. See {grantRole} and {revokeRole}. To change a role's admin, use {_setRoleAdmin}."
      },
      "grantRole(bytes32,address)": {
        "details": "Grants `role` to `account`. If `account` had not been already granted `role`, emits a {RoleGranted} event. Requirements: - the caller must have ``role``'s admin role. May emit a {RoleGranted} event."
      },
      "hasRole(bytes32,address)": {
        "details": "Returns `true` if `account` has been granted `role`."
      },
      "renounceRole(bytes32,address)": {
        "details": "Revokes `role` from the calling account. Roles are often managed via {grantRole} and {revokeRole}: this function's purpose is to provide a mechanism for accounts to lose their privileges if they are compromised (such as when a trusted device is misplaced). If the calling account had been revoked `role`, emits a {RoleRevoked} event. Requirements: - the caller must be `callerConfirmation`. May emit a {RoleRevoked} event."
      },
      "revokeRole(bytes32,address)": {
        "details": "Revokes `role` from `account`. If `account` had been granted `role`, emits a {RoleRevoked} event. Requirements: - the caller must have ``role``'s admin role. May emit a {RoleRevoked} event."
      },
      "supportsInterface(bytes4)": {
        "details": "Returns true if this contract implements the interface defined by `interfaceId`. See the corresponding https://eips.ethereum.org/EIPS/eip-165#how-interfaces-are-identified[ERC section] to learn more about how these ids are created. This function call must use less than 30 000 gas."
      }
    },
    "version": 1
  },
  "userdoc": {
    "kind": "user",
    "methods": {},
    "version": 1
  },
  "storageLayout": {
    "storage": [
      {
        "astId": 27,
        "contract": "contracts/ProofOfGood.sol:ProofOfGood",
        "label": "_roles",
        "offset": 0,
        "slot": "0",
        "type": "t_mapping(t_bytes32,t_struct(RoleData)22_storage)"
      },
      {
        "astId": 2610,
        "contract": "contracts/ProofOfGood.sol:ProofOfGood",
        "label": "_status",
        "offset": 0,
        "slot": "1",
        "type": "t_uint256"
      },
      {
        "astId": 10467,
        "contract": "contracts/ProofOfGood.sol:ProofOfGood",
        "label": "_challengeIds",
        "offset": 0,
        "slot": "2",
        "type": "t_uint256"
      },
      {
        "astId": 10469,
        "contract": "contracts/ProofOfGood.sol:ProofOfGood",
        "label": "_agreementIds",
        "offset": 0,
        "slot": "3",
        "type": "t_uint256"
      },
      {
        "astId": 10617,
        "contract": "contracts/ProofOfGood.sol:ProofOfGood",
        "label": "challenges",
        "offset": 0,
        "slot": "4",
        "type": "t_mapping(t_uint256,t_struct(Challenge)10545_storage)"
      },
      {
        "astId": 10622,
        "contract": "contracts/ProofOfGood.sol:ProofOfGood",
        "label": "agreements",
        "offset": 0,
        "slot": "5",
        "type": "t_mapping(t_uint256,t_struct(Agreement)10585_storage)"
      },
      {
        "astId": 10627,
        "contract": "contracts/ProofOfGood.sol:ProofOfGood",
        "label": "userProfiles",
        "offset": 0,
        "slot": "6",
        "type": "t_mapping(t_address,t_struct(UserProfile)10605_storage)"
      },
      {
        "astId": 10633,
        "contract": "contracts/ProofOfGood.sol:ProofOfGood",
        "label": "challengeLikes",
        "offset": 0,
        "slot": "7",
        "type": "t_mapping(t_uint256,t_mapping(t_address,t_bool))"
      },
      {
        "astId": 10637,
        "contract": "contracts/ProofOfGood.sol:ProofOfGood",
        "label": "challengeLikesCount",
        "offset": 0,
        "slot": "8",
        "type": "t_mapping(t_uint256,t_uint256)"
      },
      {
        "astId": 10643,
        "contract": "contracts/ProofOfGood.sol:ProofOfGood",
        "label": "challengeComments",
        "offset": 0,
        "slot": "9",
        "type": "t_mapping(t_uint256,t_array(t_struct(ChallengeComment)10612_storage)dyn_storage)"
      },
      {
        "astId": 10647,
        "contract": "contracts/ProofOfGood.sol:ProofOfGood",
        "label": "ensSubdomainToAddress",
        "offset": 0,
        "slot": "10",
        "type": "t_mapping(t_string_memory_ptr,t_address)"
      },
      {
        "astId": 10651,
        "contract": "contracts/ProofOfGood.sol:ProofOfGood",
        "label": "addressToEnsSubdomain",
        "offset": 0,
        "slot": "11",
        "type": "t_mapping(t_address,t_string_storage)"
      },
      {
        "astId": 10659,
        "contract": "contracts/ProofOfGood.sol:ProofOfGood",
        "label": "communityFund",
        "offset": 0,
        "slot": "12",
        "type": "t_uint256"
      },
      {
        "astId": 10661,
        "contract": "contracts/ProofOfGood.sol:ProofOfGood",
        "label": "platformOwner",
        "offset": 0,
        "slot": "13",
        "type": "t_address"
      }
    ],
    "types": {
      "t_address": {
        "encoding": "inplace",
        "label": "address",
        "numberOfBytes": "20"
      },
      "t_array(t_address)dyn_storage": {
        "base": "t_address",
        "encoding": "dynamic_array",
        "label": "address[]",
        "numberOfBytes": "32"
      },
      "t_array(t_struct(ChallengeComment)10612_storage)dyn_storage": {
        "base": "t_struct(ChallengeComment)10612_storage",
        "encoding": "dynamic_array",
        "label": "struct ProofOfGood.ChallengeComment[]",
        "numberOfBytes": "32"
      },
      "t_bool": {
        "encoding": "inplace",
        "label": "bool",
        "numberOfBytes": "1"
      },
      "t_bytes32": {
        "encoding": "inplace",
        "label": "bytes32",
        "numberOfBytes": "32"
      },
      "t_enum(ChallengeStatus)10477": {
        "encoding": "inplace",
        "label": "enum ProofOfGood.ChallengeStatus",
        "numberOfBytes": "1"
      },
      "t_enum(ChallengeType)10473": {
        "encoding": "inplace",
        "label": "enum ProofOfGood.ChallengeType",
        "numberOfBytes": "1"
      },
      "t_enum(ParticipantStatus)10486": {
        "encoding": "inplace",
        "label": "enum ProofOfGood.ParticipantStatus",
        "numberOfBytes": "1"
      },
      "t_enum(ProofStatus)10481": {
        "encoding": "inplace",
        "label": "enum ProofOfGood.ProofStatus",
        "numberOfBytes": "1"
      },
      "t_mapping(t_address,t_bool)": {
        "encoding": "mapping",
        "key": "t_address",
        "label": "mapping(address => bool)",
        "numberOfBytes": "32",
        "value": "t_bool"
      },
      "t_mapping(t_address,t_enum(ParticipantStatus)10486)": {
        "encoding": "mapping",
        "key": "t_address",
        "label": "mapping(address => enum ProofOfGood.ParticipantStatus)",
        "numberOfBytes": "32",
        "value": "t_enum(ParticipantStatus)10486"
      },
      "t_mapping(t_address,t_enum(ProofStatus)10481)": {
        "encoding": "mapping",
        "key": "t_address",
        "label": "mapping(address => enum ProofOfGood.ProofStatus)",
        "numberOfBytes": "32",
        "value": "t_enum(ProofStatus)10481"
      },
      "t_mapping(t_address,t_string_storage)": {
        "encoding": "mapping",
        "key": "t_address",
        "label": "mapping(address => string)",
        "numberOfBytes": "32",
        "value": "t_string_storage"
      },
      "t_mapping(t_address,t_struct(UserProfile)10605_storage)": {
        "encoding": "mapping",
        "key": "t_address",
        "label": "mapping(address => struct ProofOfGood.UserProfile)",
        "numberOfBytes": "32",
        "value": "t_struct(UserProfile)10605_storage"
      },
      "t_mapping(t_bytes32,t_struct(RoleData)22_storage)": {
        "encoding": "mapping",
        "key": "t_bytes32",
        "label": "mapping(bytes32 => struct AccessControl.RoleData)",
        "numberOfBytes": "32",
        "value": "t_struct(RoleData)22_storage"
      },
      "t_mapping(t_string_memory_ptr,t_address)": {
        "encoding": "mapping",
        "key": "t_string_memory_ptr",
        "label": "mapping(string => address)",
        "numberOfBytes": "32",
        "value": "t_address"
      },
      "t_mapping(t_uint256,t_array(t_struct(ChallengeComment)10612_storage)dyn_storage)": {
        "encoding": "mapping",
        "key": "t_uint256",
        "label": "mapping(uint256 => struct ProofOfGood.ChallengeComment[])",
        "numberOfBytes": "32",
        "value": "t_array(t_struct(ChallengeComment)10612_storage)dyn_storage"
      },
      "t_mapping(t_uint256,t_mapping(t_address,t_bool))": {
        "encoding": "mapping",
        "key": "t_uint256",
        "label": "mapping(uint256 => mapping(address => bool))",
        "numberOfBytes": "32",
        "value": "t_mapping(t_address,t_bool)"
      },
      "t_mapping(t_uint256,t_struct(Agreement)10585_storage)": {
        "encoding": "mapping",
        "key": "t_uint256",
        "label": "mapping(uint256 => struct ProofOfGood.Agreement)",
        "numberOfBytes": "32",
        "value": "t_struct(Agreement)10585_storage"
      },
      "t_mapping(t_uint256,t_struct(Challenge)10545_storage)": {
        "encoding": "mapping",
        "key": "t_uint256",
        "label": "mapping(uint256 => struct ProofOfGood.Challenge)",
        "numberOfBytes": "32",
        "value": "t_struct(Challenge)10545_storage"
      },
      "t_mapping(t_uint256,t_uint256)": {
        "encoding": "mapping",
        "key": "t_uint256",
        "label": "mapping(uint256 => uint256)",
        "numberOfBytes": "32",
        "value": "t_uint256"
      },
      "t_string_memory_ptr": {
        "encoding": "bytes",
        "label": "string",
        "numberOfBytes": "32"
      },
      "t_string_storage": {
        "encoding": "bytes",
        "label": "string",
        "numberOfBytes": "32"
      },
      "t_struct(Agreement)10585_storage": {
        "encoding": "inplace",
        "label": "struct ProofOfGood.Agreement",
        "members": [
          {
            "astId": 10547,
            "contract": "contracts/ProofOfGood.sol:ProofOfGood",
            "label": "id",
            "offset": 0,
            "slot": "0",
            "type": "t_uint256"
          },
          {
            "astId": 10549,
            "contract": "contracts/ProofOfGood.sol:ProofOfGood",
            "label": "title",
            "offset": 0,
            "slot": "1",
            "type": "t_string_storage"
          },
          {
            "astId": 10551,
            "contract": "contracts/ProofOfGood.sol:ProofOfGood",
            "label": "description",
            "offset": 0,
            "slot": "2",
            "type": "t_string_storage"
          },
          {
            "astId": 10553,
            "contract": "contracts/ProofOfGood.sol:ProofOfGood",
            "label": "creator",
            "offset": 0,
            "slot": "3",
            "type": "t_address"
          },
          {
            "astId": 10555,
            "contract": "contracts/ProofOfGood.sol:ProofOfGood",
            "label": "stakeAmount",
            "offset": 0,
            "slot": "4",
            "type": "t_uint256"
          },
          {
            "astId": 10557,
            "contract": "contracts/ProofOfGood.sol:ProofOfGood",
            "label": "deadline",
            "offset": 0,
            "slot": "5",
            "type": "t_uint256"
          },
          {
            "astId": 10560,
            "contract": "contracts/ProofOfGood.sol:ProofOfGood",
            "label": "parties",
            "offset": 0,
            "slot": "6",
            "type": "t_array(t_address)dyn_storage"
          },
          {
            "astId": 10563,
            "contract": "contracts/ProofOfGood.sol:ProofOfGood",
            "label": "verifiers",
            "offset": 0,
            "slot": "7",
            "type": "t_array(t_address)dyn_storage"
          },
          {
            "astId": 10567,
            "contract": "contracts/ProofOfGood.sol:ProofOfGood",
            "label": "hasStaked",
            "offset": 0,
            "slot": "8",
            "type": "t_mapping(t_address,t_bool)"
          },
          {
            "astId": 10571,
            "contract": "contracts/ProofOfGood.sol:ProofOfGood",
            "label": "proofs",
            "offset": 0,
            "slot": "9",
            "type": "t_mapping(t_address,t_string_storage)"
          },
          {
            "astId": 10576,
            "contract": "contracts/ProofOfGood.sol:ProofOfGood",
            "label": "proofStatus",
            "offset": 0,
            "slot": "10",
            "type": "t_mapping(t_address,t_enum(ProofStatus)10481)"
          },
          {
            "astId": 10580,
            "contract": "contracts/ProofOfGood.sol:ProofOfGood",
            "label": "hasWon",
            "offset": 0,
            "slot": "11",
            "type": "t_mapping(t_address,t_bool)"
          },
          {
            "astId": 10582,
            "contract": "contracts/ProofOfGood.sol:ProofOfGood",
            "label": "agreementEnded",
            "offset": 0,
            "slot": "12",
            "type": "t_bool"
          },
          {
            "astId": 10584,
            "contract": "contracts/ProofOfGood.sol:ProofOfGood",
            "label": "totalStaked",
            "offset": 0,
            "slot": "13",
            "type": "t_uint256"
          }
        ],
        "numberOfBytes": "448"
      },
      "t_struct(Challenge)10545_storage": {
        "encoding": "inplace",
        "label": "struct ProofOfGood.Challenge",
        "members": [
          {
            "astId": 10488,
            "contract": "contracts/ProofOfGood.sol:ProofOfGood",
            "label": "id",
            "offset": 0,
            "slot": "0",
            "type": "t_uint256"
          },
          {
            "astId": 10490,
            "contract": "contracts/ProofOfGood.sol:ProofOfGood",
            "label": "title",
            "offset": 0,
            "slot": "1",
            "type": "t_string_storage"
          },
          {
            "astId": 10492,
            "contract": "contracts/ProofOfGood.sol:ProofOfGood",
            "label": "description",
            "offset": 0,
            "slot": "2",
            "type": "t_string_storage"
          },
          {
            "astId": 10494,
            "contract": "contracts/ProofOfGood.sol:ProofOfGood",
            "label": "category",
            "offset": 0,
            "slot": "3",
            "type": "t_string_storage"
          },
          {
            "astId": 10496,
            "contract": "contracts/ProofOfGood.sol:ProofOfGood",
            "label": "creator",
            "offset": 0,
            "slot": "4",
            "type": "t_address"
          },
          {
            "astId": 10499,
            "contract": "contracts/ProofOfGood.sol:ProofOfGood",
            "label": "challengeType",
            "offset": 20,
            "slot": "4",
            "type": "t_enum(ChallengeType)10473"
          },
          {
            "astId": 10502,
            "contract": "contracts/ProofOfGood.sol:ProofOfGood",
            "label": "status",
            "offset": 21,
            "slot": "4",
            "type": "t_enum(ChallengeStatus)10477"
          },
          {
            "astId": 10504,
            "contract": "contracts/ProofOfGood.sol:ProofOfGood",
            "label": "stakeAmount",
            "offset": 0,
            "slot": "5",
            "type": "t_uint256"
          },
          {
            "astId": 10506,
            "contract": "contracts/ProofOfGood.sol:ProofOfGood",
            "label": "deadline",
            "offset": 0,
            "slot": "6",
            "type": "t_uint256"
          },
          {
            "astId": 10508,
            "contract": "contracts/ProofOfGood.sol:ProofOfGood",
            "label": "maxParticipants",
            "offset": 0,
            "slot": "7",
            "type": "t_uint256"
          },
          {
            "astId": 10510,
            "contract": "contracts/ProofOfGood.sol:ProofOfGood",
            "label": "totalStaked",
            "offset": 0,
            "slot": "8",
            "type": "t_uint256"
          },
          {
            "astId": 10512,
            "contract": "contracts/ProofOfGood.sol:ProofOfGood",
            "label": "participantCount",
            "offset": 0,
            "slot": "9",
            "type": "t_uint256"
          },
          {
            "astId": 10515,
            "contract": "contracts/ProofOfGood.sol:ProofOfGood",
            "label": "verifiers",
            "offset": 0,
            "slot": "10",
            "type": "t_array(t_address)dyn_storage"
          },
          {
            "astId": 10517,
            "contract": "contracts/ProofOfGood.sol:ProofOfGood",
            "label": "requiresFollow",
            "offset": 0,
            "slot": "11",
            "type": "t_bool"
          },
          {
            "astId": 10521,
            "contract": "contracts/ProofOfGood.sol:ProofOfGood",
            "label": "allowedParticipants",
            "offset": 0,
            "slot": "12",
            "type": "t_mapping(t_address,t_bool)"
          },
          {
            "astId": 10524,
            "contract": "contracts/ProofOfGood.sol:ProofOfGood",
            "label": "participants",
            "offset": 0,
            "slot": "13",
            "type": "t_array(t_address)dyn_storage"
          },
          {
            "astId": 10529,
            "contract": "contracts/ProofOfGood.sol:ProofOfGood",
            "label": "participantStatus",
            "offset": 0,
            "slot": "14",
            "type": "t_mapping(t_address,t_enum(ParticipantStatus)10486)"
          },
          {
            "astId": 10533,
            "contract": "contracts/ProofOfGood.sol:ProofOfGood",
            "label": "proofs",
            "offset": 0,
            "slot": "15",
            "type": "t_mapping(t_address,t_string_storage)"
          },
          {
            "astId": 10538,
            "contract": "contracts/ProofOfGood.sol:ProofOfGood",
            "label": "proofStatus",
            "offset": 0,
            "slot": "16",
            "type": "t_mapping(t_address,t_enum(ProofStatus)10481)"
          },
          {
            "astId": 10540,
            "contract": "contracts/ProofOfGood.sol:ProofOfGood",
            "label": "winnersCount",
            "offset": 0,
            "slot": "17",
            "type": "t_uint256"
          },
          {
            "astId": 10542,
            "contract": "contracts/ProofOfGood.sol:ProofOfGood",
            "label": "rewardPerWinner",
            "offset": 0,
            "slot": "18",
            "type": "t_uint256"
          },
          {
            "astId": 10544,
            "contract": "contracts/ProofOfGood.sol:ProofOfGood",
            "label": "rewardsDistributed",
            "offset": 0,
            "slot": "19",
            "type": "t_bool"
          }
        ],
        "numberOfBytes": "640"
      },
      "t_struct(ChallengeComment)10612_storage": {
        "encoding": "inplace",
        "label": "struct ProofOfGood.ChallengeComment",
        "members": [
          {
            "astId": 10607,
            "contract": "contracts/ProofOfGood.sol:ProofOfGood",
            "label": "commenter",
            "offset": 0,
            "slot": "0",
            "type": "t_address"
          },
          {
            "astId": 10609,
            "contract": "contracts/ProofOfGood.sol:ProofOfGood",
            "label": "content",
            "offset": 0,
            "slot": "1",
            "type": "t_string_storage"
          },
          {
            "astId": 10611,
            "contract": "contracts/ProofOfGood.sol:ProofOfGood",
            "label": "timestamp",
            "offset": 0,
            "slot": "2",
            "type": "t_uint256"
          }
        ],
        "numberOfBytes": "96"
      },
      "t_struct(RoleData)22_storage": {
        "encoding": "inplace",
        "label": "struct AccessControl.RoleData",
        "members": [
          {
            "astId": 19,
            "contract": "contracts/ProofOfGood.sol:ProofOfGood",
            "label": "hasRole",
            "offset": 0,
            "slot": "0",
            "type": "t_mapping(t_address,t_bool)"
          },
          {
            "astId": 21,
            "contract": "contracts/ProofOfGood.sol:ProofOfGood",
            "label": "adminRole",
            "offset": 0,
            "slot": "1",
            "type": "t_bytes32"
          }
        ],
        "numberOfBytes": "64"
      },
      "t_struct(UserProfile)10605_storage": {
        "encoding": "inplace",
        "label": "struct ProofOfGood.UserProfile",
        "members": [
          {
            "astId": 10587,
            "contract": "contracts/ProofOfGood.sol:ProofOfGood",
            "label": "ensSubdomain",
            "offset": 0,
            "slot": "0",
            "type": "t_string_storage"
          },
          {
            "astId": 10589,
            "contract": "contracts/ProofOfGood.sol:ProofOfGood",
            "label": "totalChallengesWon",
            "offset": 0,
            "slot": "1",
            "type": "t_uint256"
          },
          {
            "astId": 10591,
            "contract": "contracts/ProofOfGood.sol:ProofOfGood",
            "label": "totalChallengesParticipated",
            "offset": 0,
            "slot": "2",
            "type": "t_uint256"
          },
          {
            "astId": 10593,
            "contract": "contracts/ProofOfGood.sol:ProofOfGood",
            "label": "totalStaked",
            "offset": 0,
            "slot": "3",
            "type": "t_uint256"
          },
          {
            "astId": 10595,
            "contract": "contracts/ProofOfGood.sol:ProofOfGood",
            "label": "totalWinnings",
            "offset": 0,
            "slot": "4",
            "type": "t_uint256"
          },
          {
            "astId": 10597,
            "contract": "contracts/ProofOfGood.sol:ProofOfGood",
            "label": "isFirstTime",
            "offset": 0,
            "slot": "5",
            "type": "t_bool"
          },
          {
            "astId": 10601,
            "contract": "contracts/ProofOfGood.sol:ProofOfGood",
            "label": "following",
            "offset": 0,
            "slot": "6",
            "type": "t_mapping(t_address,t_bool)"
          },
          {
            "astId": 10604,
            "contract": "contracts/ProofOfGood.sol:ProofOfGood",
            "label": "followers",
            "offset": 0,
            "slot": "7",
            "type": "t_array(t_address)dyn_storage"
          }
        ],
        "numberOfBytes": "256"
      },
      "t_uint256": {
        "encoding": "inplace",
        "label": "uint256",
        "numberOfBytes": "32"
      }
    }
  }
}